:020000040000FA
:040000004CEF00F0D1
:100008005082E9CF0AF0EACF0BF0F6CF0CF0F7CF29
:100018000DF0F8CF0EF0F5CF0FF09EAA16EF00F016
:1000280018EF00F03EEF00F0ABB41DEF00F01FEF4B
:1000380000F026EF00F0ABA224EF00F026EF00F06E
:1000480029EF00F0AB82AB98AB880AEC0AF0660A9D
:10005800D8A431EF00F033EF00F03DEF00F00C0EC4
:10006800026E030E036E000E056E100E046EA4ECF5
:1000780008F09E9A0FC0F5FF0EC0F8FF0DC0F7FFFD
:100088000CC0F6FF0BC0EAFF0AC0E9FF509211004E
:04009800E1EF09F09B
:10030000002D2D2D2D2D2D2D2D2D2D006672656E80
:10031000746500414E303A2000414E313A20004190
:100320004E323A2000414E333A2000414E343A20BA
:1003300000414E353A2000414E363A2000414E37BA
:100340003A20000D00002150800B2A6E21502124FC
:10035000306E20AEAEEF01F0B0EF01F0B1EF01F082
:1003600030803050D8B4B7EF01F0B9EF01F0CCEFE6
:1003700001F03028D8A4BFEF01F0C1EF01F0C9EFC0
:1003800001F0000E1E6E000E1F6E000E206E000E9D
:10039000216E208ED4EF01F0000E1E6E000E1F6E37
:1003A000000E206E000E216E2550800B2A1A25505B
:1003B00025242F6E24AEDFEF01F0E1EF01F0E2EF34
:1003C00001F02F802F50D8B4E8EF01F0EAEF01F0F0
:1003D000FDEF01F02F28D8A4F0EF01F0F2EF01F0CB
:1003E000FAEF01F0000E226E000E236E000E246E56
:1003F000000E256E248E05EF02F0000E226E000E18
:10040000236E000E246E000E256E2F50D8B40BEF15
:1004100002F00DEF02F015EF02F03050D8A413EF08
:1004200002F015EF02F01FEF02F0000E1E6E000E3C
:100430001F6E000E206E000E216EB7EF03F02450E9
:100440001E02F3CF35F0F4CF36F035502B6E2C6A08
:100450002D6A2E6A3650316E326A336A346A2350FE
:100460001F02F3CF35F0F4CF36F035502B26000EB7
:100470002C222D222E2236503126000E32223322FB
:10048000342222502002F3CF35F0F4CF36F035502D
:100490002B26000E2C222D222E2236503126000E25
:1004A0003222332234222DC02EF02CC02DF02BC04E
:1004B0002CF02B6A22501F02F3CF35F0F4CF36F028
:1004C00035502B2636502C22000E2D22000E2E22C7
:1004D00023501E02F3CF35F0F4CF36F035502B26E3
:1004E00036502C22000E2D22000E2E222DC02EF072
:1004F0002CC02DF02BC02CF02B6A22501E02F3CF03
:1005000035F0F4CF36F035502B2636502C22000E25
:100510002D22000E2E2224501F02F3CF35F0F4CFEF
:1005200036F03550312636503222000E3322000E7E
:10053000342223502002F3CF35F0F4CF36F035507B
:10054000312636503222000E3322000E342224503F
:100550002002F3CF35F0F4CF36F03550266E36500A
:10056000276E286A296A28C029F027C028F026C0EB
:1005700027F0266A2650312627503222285033226F
:10058000295034222BC026F02CC027F02DC028F093
:100590002EC029F0190ED2EF02F0D890293228325D
:1005A00027322632E82ECDEF02F026503126275092
:1005B000322228503322295034222DC02EF02CC054
:1005C0002DF02BC02CF02B6A2F5030C026F0276A5C
:1005D0002626000E2722820E2624356EFF0E2720A7
:1005E000366E08EF03F0D890313632363336343673
:1005F0002EAEFDEF02F0FFEF02F000EF03F03180CE
:10060000D8902B362C362D362E363506D8A0360609
:1006100033AE0DEF03F00FEF03F0F3EF02F0000E37
:100620002F6E2EAE16EF03F018EF03F03CEF03F041
:10063000FF0E2B14266EFF0E2C14276EFF0E2D14AA
:10064000286E7F0E2E14296E265027102810291090
:10065000D8B42DEF03F02FEF03F033EF03F0010ECA
:100660002F6E3CEF03F031A038EF03F03AEF03F0C8
:100670003CEF03F02FEF03F02F50D8B442EF03F01C
:1006800044EF03F068EF03F0010E3126000E322232
:100690003322342234A04FEF03F051EF03F068EF20
:1006A00003F031C026F032C027F033C028F034C048
:1006B00029F02934293228322732263226C031F057
:1006C00027C032F028C033F029C034F0354A362A2A
:1006D00036BE73EF03F0365008E13528D8A073EF2B
:1006E00003F075EF03F07FEF03F0000E316E000EA4
:1006F000326E800E336E7F0E346EADEF03F036BE79
:100700008CEF03F0365006E13504D8B08AEF03F0E1
:100710008CEF03F098EF03F0000E316E000E326E96
:10072000000E336E000E346E000E2A6EADEF03F035
:1007300035C030F0FF0E3116FF0E32167F0E331625
:10074000000E341630A0A7EF03F0A9EF03F0AAEFD4
:1007500003F0338ED8903030346E2A50341231C0CA
:100760001EF032C01FF033C020F034C021F0120060
:10077000130E00016F6F030E706F000E726F100E7C
:10078000716F2BEC07F0000E406E000E3F6E1EECFA
:1007900006F03FC060F040C061F0F3EC07F060C0CD
:1007A0006FF061C070F0000E0001726F100E716F7B
:1007B0002BEC07F0430E00016F6F030E706F000EFD
:1007C000726F100E716F2BEC07F0190E00016F6F36
:1007D000030E706F000E726F100E716F2BEC07F02E
:1007E000000E406E010E3F6E1EEC06F03FC060F042
:1007F00040C061F0F3EC07F060C06FF061C070F0D2
:10080000000E0001726F100E716F2BEC07F0430E9B
:1008100000016F6F030E706F000E726F100E716F1C
:100820002BEC07F01F0E00016F6F030E706F000EB0
:10083000726F100E716F2BEC07F0000E406E020EFF
:100840003F6E1EEC06F03FC060F040C061F0F3EC7C
:1008500007F060C06FF061C070F0000E0001726FB1
:10086000100E716F2BEC07F0430E00016F6F030E3B
:10087000706F000E726F100E716F2BEC07F0250E6B
:1008800000016F6F030E706F000E726F100E716FAC
:100890002BEC07F0000E406E030E3F6E1EEC06F0D0
:1008A0003FC060F040C061F0F3EC07F060C06FF053
:1008B00061C070F0000E0001726F100E716F2BECB2
:1008C00007F0430E00016F6F030E706F000E726F22
:1008D000100E716F2BEC07F02B0E00016F6F030EE3
:1008E000706F000E726F100E716F2BEC07F0000E20
:1008F000406E040E3F6E1EEC06F03FC060F040C03C
:1009000061F0F3EC07F060C06FF061C070F0000EB2
:100910000001726F100E716F2BEC07F0430E000197
:100920006F6F030E706F000E726F100E716F2BECF5
:1009300007F0310E00016F6F030E706F000E726FC3
:10094000100E716F2BEC07F0000E406E050E3F6E1F
:100950001EEC06F03FC060F040C061F0F3EC07F021
:1009600060C06FF061C070F0000E0001726F100E79
:10097000716F2BEC07F0430E00016F6F030E706F69
:10098000000E726F100E716F2BEC07F0370E000126
:100990006F6F030E706F000E726F100E716F2BEC85
:1009A00007F0000E406E060E3F6E1EEC06F03FC0D4
:1009B00060F040C061F0F3EC07F060C06FF061C020
:1009C00070F0000E0001726F100E716F2BEC07F0CB
:1009D000430E00016F6F030E706F000E726F100EEA
:1009E000716F2BEC07F03D0E00016F6F030E706FFF
:1009F000000E726F100E716F2BEC07F0000E406E40
:100A0000070E3F6E1EEC06F03FC060F040C061F084
:100A1000F3EC07F060C06FF061C070F0000E0001F1
:100A2000726F100E716F2BEC07F0430E00016F6FA9
:100A3000030E706F000E726F100E716F2BEC07F0CB
:100A4000010E00016F6F030E706F000E726F100EBB
:100A5000716F2BEC07F0430E00016F6F030E706F88
:100A6000000E726F100E716F2BEC07F00D0E00016F
:100A7000786FAF0E776FB60EE82EFED7772FFCD7C4
:100A8000782FFAD700F01200186E1850D8B44BEF38
:100A900005F04DEF05F06FEF05F013BE54EF05F0D4
:100AA00052EF05F06FEF05F010C014F011C015F013
:100AB00012C016F013C017F0141E151E161E171EB6
:100AC000142A000E15221622172214C01AF015C07F
:100AD0001BF016C01CF017C01DF077EF05F010C01A
:100AE0001AF011C01BF012C01CF013C01DF0105002
:100AF000111012101310D8A480EF05F082EF05F04A
:100B00008CEF05F0000E106E000E116E000E126ECE
:100B1000000E136E1DEF06F0960E196E96EF05F09F
:100B2000192AD8901D321C321B321A32000E1A14A8
:100B3000146E000E1B14156E000E1C14166EFE0EA5
:100B40001D14176E1450151016101710D8A4ABEF03
:100B500005F0ADEF05F090EF05F0BBEF05F0192AB9
:100B6000010E1A26000E1B221C221D22D8901D32B7
:100B70001C321B321A32000E1A14146E000E1B1493
:100B8000156E000E1C14166EFF0E1D14176E1450F9
:100B9000151016101710D8A4D0EF05F0D2EF05F0FD
:100BA000AFEF05F0DAEF05F01906D8901A361B36CC
:100BB0001C361D361CBEDFEF05F0E1EF05F0E9EF56
:100BC00005F0020E1960E7EF05F0E9EF05F0D4EF4C
:100BD00005F019B0EEEF05F0F0EF05F0F1EF05F0DC
:100BE0001C9ED890193219C014F0156A166A176A3B
:100BF00014C017F0166A156A146A14501A121550A8
:100C00001B1216501C1217501D121850D8B40BEF9F
:100C100006F00DEF06F015EF06F013BE14EF06F028
:100C200012EF06F015EF06F01D8E1AC010F01BC073
:100C300011F01CC012F01DC013F012003FC010F0E4
:100C400040C011F0000E136E020E126E000E156EF3
:100C5000000E146E81EC09F010461046C2501018B8
:100C6000F30B1018C26E3FC010F040C011F0000E20
:100C7000136E010E126E000E156E020E146E81ECD4
:100C800009F099501018FE0B1018996E3FC010F023
:100C900040C011F0000E136E010E126E000E156EA4
:100CA000020E146E81EC09F0103A99501018EF0BF7
:100CB0001018996E3FC010F040C011F0000E136E76
:100CC000010E126E000E156E020E146E81EC09F00C
:100CD0001046104699501018FB0B1018996E3FC023
:100CE00010F040C011F0000E136E010E126E000ED7
:100CF000156E020E146E81EC09F0103A1046104683
:100D000099501018BF0B1018996EC280C282C2B2DF
:100D10008CEF06F08EEF06F087EF06F0FCEC08F0A3
:100D200037C041F038C042F039C043F03AC044F017
:100D3000C29041C010F042C011F043C012F044C054
:100D400013F0A8EC06F010C03FF011C040F0120004
:100D500012341334196E1950D8A4B1EF06F0B3EF62
:100D600006F0BDEF06F0000E106E000E116E000EC4
:100D7000126E000E136E2AEF07F010C014F011C0AF
:100D800015F012C016F013C017F0200ECDEF06F0CC
:100D9000D8901732163215321432E82EC8EF06F00A
:100DA0001450186E128EFF0E1016FF0E1116FF0E45
:100DB0001216000E1316960E195E19BEE4EF06F019
:100DC000E2EF06F0FAEF06F01950800A970FD8B05C
:100DD000ECEF06F0EEEF06F0F0EF06F0B3EF06F002
:100DE000D8901332123211321032193EF0EF06F061
:100DF00012EF07F01F0E196400EF07F002EF07F083
:100E00000AEF07F0B3EF06F0D8901036113612361D
:100E1000133619061950D8A410EF07F012EF07F097
:100E200004EF07F01850D8B418EF07F01AEF07F0E6
:100E300022EF07F0131E121E111E106C000E11225D
:100E40001222132210C010F011C011F012C012F0C3
:100E500013C013F01200000E0001766F000E756FC4
:100E6000000E766F000E756F72BF41EF07F0725182
:100E700006E17105D8B03FEF07F041EF07F043EF0F
:100E800007F090EF07F075516F25736F7651702161
:100E9000746F73C0F6FF74C0F7FFF86A020EF76450
:100EA00003D00800F55005D0F6CFE9FFF7CFEAFFF1
:100EB000EF500009D8A45FEF07F061EF07F063EF90
:100EC00007F090EF07F0000175516F25736F7651B1
:100ED0007021746F73C0F6FF74C0F7FFF86A020EDA
:100EE000F76403D00800F55005D0F6CFE9FFF7CF3F
:100EF000EAFFEF50FEEC09F0EEEC09F00001754B53
:100F0000762B7151755D7651800A736F7251800A2C
:100F10007359D8A08EEF07F090EF07F043EF07F07A
:100F20001200000E156E13BE9AEF07F098EF07F04F
:100F3000A0EF07F0126C131ED8B0132A010E156E25
:100F400011BEA7EF07F0A5EF07F0ADEF07F0106CAB
:100F5000111ED8B0112A010E151A000E176E000EC0
:100F6000166E12501310D8B4B8EF07F0BAEF07F0AE
:100F7000E2EF07F0010E146EC2EF07F0D8901236C0
:100F80001336142A13AEC7EF07F0C9EF07F0BEEF10
:100F900007F0D890163617361250105C13501158BF
:100FA000D8A0D5EF07F0D7EF07F0DCEF07F012502D
:100FB000105E1350115A1680D89013321232142E2C
:100FC000C9EF07F01550D8B4E8EF07F0EAEF07F0E3
:100FD000EEEF07F0166C171ED8B0172A16C010F0E7
:100FE00017C011F0120060C010F061C011F0000EC7
:100FF000136E640E126E91EC07F010C062F011C017
:1010000063F0000E136E0A0E126E60C010F061C025
:1010100011F091EC07F010C018F011C019F0000E9B
:101020001B6E0A0E1A6E4CEC08F018C064F019C062
:1010300065F0000E1B6E640E1A6E60C018F061C081
:1010400019F04CEC08F018C068F019C069F068C0DD
:1010500018F069C019F0000E1B6E0A0E1A6E4CECE7
:1010600008F018C066F019C067F020EE6AF0040EB0
:10107000DE6AE806FDE200016251300F6A6F2E0E53
:101080006B6F6451300F6C6F6651300F6D6F6A0E6D
:10109000606F000E616F1200000E1D6E19BE55EFDD
:1010A00008F053EF08F05BEF08F0186C191ED8B089
:1010B000192A010E1D6E1BBE62EF08F060EF08F0EA
:1010C00066EF08F01A6C1B1ED8B01B2A1A501B10B2
:1010D000D8B46DEF08F06FEF08F093EF08F0010E51
:1010E0001C6E77EF08F0D8901A361B361C2A1BAE00
:1010F0007CEF08F07EEF08F073EF08F01A50185CF0
:101100001B501958D8A087EF08F089EF08F08DEF31
:1011100008F01A50185E1B50195AD8901B321A3218
:101120001C2E7EEF08F01D50D8B499EF08F09BEF0D
:1011300008F09FEF08F0186C191ED8B0192A18C0D3
:1011400018F019C019F01200000E096E000E086E9A
:10115000000E096E000E086E0450085C0950800AEB
:10116000066E0550800A0658D8A0B9EF08F0BBEF0C
:1011700008F0BDEF08F0FBEF08F008500224066EFF
:1011800009500320076E06C0F6FF07C0F7FFF86A94
:10119000020EF76403D00800F55005D0F6CFE9FF42
:1011A000F7CFEAFFEF500009D8A4D9EF08F0DBEF42
:1011B00008F0DDEF08F0FBEF08F008500224066E9F
:1011C00009500320076E06C0F6FF07C0F7FFF86A54
:1011D000020EF76403D00800F55005D0F6CFE9FF02
:1011E000F7CFEAFFEF5004EC0AF0F6EC09F0084AFA
:1011F000092AACEF08F01200C4CF4EF04F6A4E50EF
:101200004F6E4E6AC3504E26000E4F22F60E226ECF
:10121000280E236E9C0E246E400E256E4EC010F0DC
:101220004FC011F0000E11BEFF0E126E136E010EB4
:1012300044EC05F010C01EF011C01FF012C020F0E9
:1012400013C021F0A3EC01F01EC03BF01FC03CF026
:1012500020C03DF021C03EF03BC01EF03CC01FF05E
:101260003DC020F03EC021F0CD0E226ECC0E236E8C
:10127000CC0E246E3D0E256EA3EC01F01EC04AF08C
:101280001FC04BF020C04CF021C04DF04AC037F0D9
:101290004BC038F04CC039F04DC03AF01200030E8C
:1012A00000017A6F8A0E796F550EE82EFED7792FDE
:1012B000FCD77A2FFAD700F000F0B868010EB96EAB
:1012C0009268000E936E800E946E1C0E956E070E43
:1012D000966E000E816E000E826E000E836E000E02
:1012E000846EF28EF28C0EEC0AF0D2EC09F0AEECC9
:1012F00009F0C0EC09F0B8EC03F07BEF09F04CEF1B
:1013000000F014C016F010C017F011C018F0162A23
:101310008DEF09F0183418321732162E8AEF09F0C3
:10132000FF0E196EFF0E1A6E12C01BF0010E1C6E1E
:10133000000E1D6E1B2AA0EF09F0D8901C361D363A
:101340001B2E9DEF09F019501C261A501D22175014
:101350001C14106E18501D14116E1200000E7F6EBA
:10136000800E7E6E5F0E6F6E010E6E6E100E6D6ED5
:101370006B68000E6A6E960E7B6E000E7A6E12001F
:10138000C19CC19EC29AC298F30EC216C08EC050B4
:10139000870B3009C06EC050F80B0509C06E000EF7
:1013A0009A6E1200810EAF6EAC84AC98AC9CAC8A85
:1013B0009D98AB8EAB9CAB88949C948E9E9A9D8A94
:1013C000120000EE45F00B0EEE6AE806FDE15090CB
:1013D0005092000EF86E00014FEF09F0ACA2F3EF4F
:1013E00009F0F5EF09F0EEEF09F01200ACA2FBEF07
:1013F00009F0FDEF09F0F6EF09F01200106E10C0D1
:10140000ADFFEEEC09F01200016E01C0ADFFF6EC8D
:0E14100009F01200AECF01F0015012001200E0
:020000040020DA
:08000000FFFFFFFFFFFFFFFF00
:020000040030CA
:0E000000FFC20D3E3C9D85FF0FC00FE00F407C
:00000001FF
