:020000040000FA
:0400000025EF01F0F7
:100008004D82E9CF0BF0EACF0CF0F3CF0DF0F4CF2F
:100018000EF0F6CF0FF0F7CF10F0F8CF11F0F5CFC4
:1000280012F09EAA1AEF00F01CEF00F002EF01F0A8
:10003800ABB421EF00F023EF00F02AEF00F0ABA201
:1000480028EF00F02AEF00F02DEF00F0AB82AB981C
:10005800AB8842EC19F04A6E310EAE18D8A437EFCF
:1000680000F039EF00F045EF00F046EC19F04F0EC4
:10007800026E030E036E000E056E100E046E12EC77
:1000880016F0610EAE18D8A44CEF00F04EEF00F059
:100098005EEF00F02C0E016E030E026E35EC19F0C7
:1000A800FEC002F0FFC003F0000E056E100E046ED5
:1000B80012EC16F0620EAE18D8A465EF00F067EFE8
:1000C80000F077EF00F01E0E016E030E026E35ECA5
:1000D80019F0FEC002F0FFC003F0000E056E100E0E
:1000E800046E12EC16F0630EAE18D8A47EEF00F082
:1000F80080EF00F090EF00F09D0E016E030E026E8F
:1001080035EC19F0FEC002F0FFC003F0000E056EDA
:10011800100E046E12EC16F0640EAE18D8A497EF09
:1001280000F099EF00F0A9EF00F0990E016E030EB0
:10013800026E35EC19F0FEC002F0FFC003F0000EAD
:10014800056E100E046E12EC16F0660EAE18D8A4EA
:10015800B0EF00F0B2EF00F0C2EF00F0440E016E15
:10016800030E026E35EC19F0FEC002F0FFC003F07A
:10017800000E056E100E046E12EC16F0700EAE181E
:10018800D8A4C9EF00F0CBEF00F001EF01F0940E16
:10019800016E030E026E35EC19F08F0E026E030E1F
:1001A800036E000E056E100E046E12EC16F0000EB3
:1001B800086E000E076EACEC18F0000E086E000E0C
:1001C800076E99EC18F0000E086E000E076E86ECAC
:1001D80018F0000E086E000E076E73EC18F082809F
:1001E800828282848286FEC002F0FFC003F0000E85
:1001F800056E100E046E12EC16F09E9AF2A407EF2C
:1002080001F009EF01F013EF01F0630ED66E010E55
:100218000001F027000EF123F223F323F29412C019
:10022800F5FF11C0F8FF10C0F7FF0FC0F6FF0EC0B2
:10023800F4FF0DC0F3FF0CC0EAFF0BC0E9FF4D92BD
:060248001100A9EF17F000
:100300000050574D412054657374652046696D0057
:1003100050574D412054657374616E646F0074656D
:100320007374654C616D706164617300746573749E
:10033000654D6F746F726573002D2D2D2D2D2D2D34
:100340002D2D2D00746573746541446269740054E9
:10035000696D657230206F6E00414E303A20004169
:100360004E313A2000414E323A2000414E333A207D
:1003700000414E343A2000414E353A2000414E367D
:100380003A2000414E373A200066696E616C0049A0
:10039000444C450069646C65005049440041440088
:0503A00000000D00004B
:1003A60000016351800B686F635163256A6F62AF0A
:1003B600DFEF01F0E1EF01F0E2EF01F06A816A514F
:1003C600D8B4E8EF01F0EAEF01F0FFEF01F06A2997
:1003D600D8A4F0EF01F0F2EF01F0FAEF01F0000E11
:1003E600606F000E616F000E626F000E636F628FAA
:1003F600000E636F07EF02F0000E606F000E616F74
:10040600000E626F000E636F6751800B696F685153
:100416006919D8B411EF02F013EF02F014EF02F0ED
:10042600688D67516725696F66AF1CEF02F01EEF96
:1004360002F01FEF02F069816951D8B425EF02F08E
:1004460027EF02F03CEF02F06929D8A42DEF02F065
:100456002FEF02F037EF02F0000E646F000E656FAB
:10046600000E666F000E676F668F000E676F44EFB3
:1004760002F0000E646F000E656F000E666F000ED0
:10048600676F6A51695DD8B04BEF02F04DEF02F02D
:1004960074EF02F068AD52EF02F054EF02F056EF3F
:1004A60002F0800E681B6AC06BF069C06AF06BC010
:1004B60069F060C06BF064C060F06BC064F061C04E
:1004C6006BF065C061F06BC065F062C06BF066C032
:1004D60062F06BC066F063C06BF067C063F06BC020
:1004E60067F0000E6B6F6A5169C03AF03B6A3A5E7C
:1004F600000E3B5A3BBE89EF02F03B5009E11A0E53
:100506003A5CD8A089EF02F08BEF02F0C2EF02F05E
:100516006051611162116311D8A494EF02F097EF54
:1005260002F0010E98EF02F0000E6B6F000E606F86
:10053600000E616F000E626F000E636F69C06AF095
:10054600CBEF02F06BA1AAEF02F0ACEF02F0B2EF34
:1005560002F0D8906B3101096B6FB4EF02F0D890BE
:100566006B3360A1B9EF02F0BBEF02F0BCEF02F013
:100576006B8F633563336233613360336A2B695142
:100586006A5DD8A0C9EF02F0CBEF02F0A5EF02F04A
:1005960068BDD0EF02F0D2EF02F012EF03F06A511D
:1005A600D8A4D8EF02F0DAEF02F0E4EF02F0000E82
:1005B600606F000E616F000E626F000E636F33EFA7
:1005C60004F06451602765516123665162236751C7
:1005D600632363A1F1EF02F0F3EF02F09FEF03F064
:1005E6006BA1F8EF02F0FAEF02F000EF03F0D890FB
:1005F6006B3101096B6F02EF03F0D8906B3360A18A
:1006060007EF03F009EF03F00AEF03F06B8F633592
:1006160063336233613360336A2B9FEF03F06451B7
:10062600605D65516159665162596351800A3A6E3F
:100636006751800A3A58D8B023EF03F025EF03F04C
:1006460050EF03F06051645D3A6E615165593B6E3F
:10065600625166593C6E635167593D6EFF0E3A24EE
:10066600606FFF0E3B20616FFF0E3C20626FFF0E36
:100676003D20636F800E681B6B6D6B51D8A446EFEF
:1006860003F048EF03F058EF03F0010E6027000E69
:1006960061236223632358EF03F06451605F655161
:1006A600615B6651625B6751635B60516111621108
:1006B6006311D8A461EF03F063EF03F098EF03F042
:1006C6006B51D8A469EF03F06BEF03F098EF03F0DA
:1006D600000E606F000E616F000E626F000E636F9A
:1006E60033EF04F0D89060376137623763376BAF0A
:1006F6007FEF03F081EF03F082EF03F060816BA1DF
:1007060087EF03F089EF03F08DEF03F0D8806B37A6
:100716008FEF03F0D8906B376A51D8B495EF03F09A
:1007260097EF03F098EF03F06A0762AF9DEF03F0CF
:100736009FEF03F075EF03F0000E696F6BAFA6EF46
:1007460003F0A8EF03F0C0EF03F06BC03AF07F0EA2
:100756003A16D8B4B1EF03F0B3EF03F0B7EF03F0F6
:10076600010E696FC0EF03F060A1BCEF03F0BEEFAE
:1007760003F0C0EF03F0B3EF03F06951D8B4C6EF4E
:1007860003F0C8EF03F0F3EF03F0010E6027000E4D
:1007960061236223632363A1D3EF03F0D5EF03F054
:1007A600F3EF03F060C03AF061C03BF062C03CF08A
:1007B60063C03DF03D343D323C323B323A323AC0C2
:1007C60060F03BC061F03CC062F03DC063F06A2956
:1007D600D8B4F0EF03F0F2EF03F0F3EF03F06A2B77
:1007E6006A29D8B4F9EF03F0FBEF03F003EF04F046
:1007F6006A51D8A401EF04F003EF04F015EF04F0FA
:10080600000E606F000E616F000E626F000E636F68
:100816006A51D8A411EF04F013EF04F015EF04F0B9
:10082600000E686F6AA11AEF04F01CEF04F01FEFC8
:1008360004F0628F20EF04F0629FD8906A31636FF4
:1008460068AF28EF04F02AEF04F02BEF04F0638F73
:1008560060C060F061C061F062C062F063C063F0C6
:100866001200818C818E100E0001AA6F030EAB6FF1
:10087600000EAD6F100EAC6F38EC14F0000E0101D7
:10088600396F000E386F38C119F039C11AF04DECC6
:1008960018F0820E406EDE0EE82EFED7402EFCD7F4
:1008A600FEC018F0FFC019F0940E1A6E030E1B6EF0
:1008B600F6EC17F018501910D8B464EF04F066EF90
:1008C60004F068EF04F079EF04F00101384B392B9E
:1008D60039BF77EF04F0395109E1650E385DD8A0CC
:1008E60077EF04F079EF04F046EF04F0010E000113
:1008F600AA6F030EAB6F000EAD6F100EAC6F38EC27
:1009060014F0000E1A6E000E196E4DEC18F0000E63
:100916000101396F000E386F38C119F039C11AF06C
:1009260014EC18F0820E406EDE0EE82EFED7402E36
:10093600FCD7FEC018F0FFC019F0940E1A6E030E15
:100946001B6EF6EC17F018501910D8B4ADEF04F082
:10095600AFEF04F0B1EF04F0C2EF04F00101384B41
:10096600392B39BFC0EF04F0395109E1650E385D06
:10097600D8A0C0EF04F0C2EF04F08FEF04F0000E31
:100986001A6E000E196E14EC18F0000E0101396F84
:10099600000E386F38C119F039C11AF03AEC18F068
:1009A600820E406EDE0EE82EFED7402EFCD7FEC02D
:1009B60018F0FFC019F0940E1A6E030E1B6EF6ECBB
:1009C60017F018501910D8B4EBEF04F0EDEF04F05F
:1009D600EFEF04F000EF05F00101384B392B39BF7A
:1009E600FEEF04F0395109E1650E385DD8A0FEEF3F
:1009F60004F000EF05F0CDEF04F0000E1A6E000EC5
:100A0600196E3AEC18F0000E0101396F000E386FBE
:100A160038C119F039C11AF03AEC18F0820E406E5E
:100A2600DE0EE82EFED7402EFCD7FEC018F0FFC023
:100A360019F0940E1A6E030E1B6EF6EC17F0185092
:100A46001910D8B429EF05F02BEF05F02DEF05F0BE
:100A56003EEF05F00101384B392B39BF3CEF05F06D
:100A6600395109E1650E385DD8A03CEF05F03EEF3F
:100A760005F00BEF05F0000E1A6E000E196E27EC4E
:100A860018F0000E0101396F000E386F38C119F0E9
:100A960039C11AF04DEC18F038C119F039C11AF005
:100AA6003AEC18F0820E406EDE0EE82EFED7402E8F
:100AB600FCD7FEC018F0FFC019F0940E1A6E030E94
:100AC6001B6EF6EC17F018501910D8B46DEF05F040
:100AD6006FEF05F071EF05F082EF05F00101384B7D
:100AE600392B39BF80EF05F0395109E1650E385DC4
:100AF600D8A080EF05F082EF05F049EF05F0000E73
:100B06001A6E000E196E4DEC18F0000E1A6E000EDD
:100B1600196E3AEC18F0000E0101396F000E386FAD
:100B260038C119F039C11AF04DEC18F038C119F076
:100B360039C11AF027EC18F0820E406EDE0EE82E50
:100B4600FED7402EFCD7FEC018F0FFC019F0940E59
:100B56001A6E030E1B6EF6EC17F018501910D8B467
:100B6600B7EF05F0B9EF05F0BBEF05F0CCEF05F0F8
:100B76000101384B392B39BFCAEF05F0395109E16C
:100B8600650E385DD8A0CAEF05F0CCEF05F093EFFF
:100B960005F0000E1A6E000E196E4DEC18F0000EE0
:100BA6001A6E000E196E27EC18F0000E0101396F4F
:100BB600000E386F38C119F039C11AF014EC18F06C
:100BC60038C119F039C11AF03AEC18F0820E406EAD
:100BD600DE0EE82EFED7402EFCD7FEC018F0FFC072
:100BE60019F0940E1A6E030E1B6EF6EC17F01850E1
:100BF6001910D8B401EF06F003EF06F005EF06F082
:100C060016EF06F00101384B392B39BF14EF06F009
:100C1600395109E1650E385DD8A014EF06F016EFDC
:100C260006F0DDEF05F0000E1A6E000E196E14ECDC
:100C360018F0000E1A6E000E196E3AEC18F0000E3F
:100C46000101396F000E386F38C119F039C11AF039
:100C560014EC18F038C119F039C11AF027EC18F065
:100C6600820E406EDE0EE82EFED7402EFCD7FEC06A
:100C760018F0FFC019F0940E1A6E030E1B6EF6ECF8
:100C860017F018501910D8B44BEF06F04DEF06F0D8
:100C96004FEF06F060EF06F00101384B392B39BFF4
:100CA6005EEF06F0395109E1650E385DD8A05EEFBA
:100CB60006F060EF06F027EF06F0000E1A6E000E43
:100CC600196E14EC18F0000E1A6E000E196E27EC51
:100CD60018F012002450800B2D6E24502424336EFD
:100CE60023AE78EF06F07AEF06F07BEF06F033805E
:100CF6003350D8B481EF06F083EF06F096EF06F096
:100D06003328D8A489EF06F08BEF06F093EF06F0B0
:100D1600000E216E000E226E000E236E000E246E53
:100D2600238E9EEF06F0000E216E000E226E000E40
:100D3600236E000E246E2850800B2D1A285028246E
:100D46002E6E27AEA9EF06F0ABEF06F0ACEF06F07D
:100D56002E802E50D8B4B2EF06F0B4EF06F0C7EFEF
:100D660006F02E28D8A4BAEF06F0BCEF06F0C4EFC2
:100D760006F0000E256E000E266E000E276E000E83
:100D8600286E278ECFEF06F0000E256E000E266E1B
:100D9600000E276E000E286E2E50D8B4D5EF06F042
:100DA600D7EF06F0DFEF06F03350D8A4DDEF06F0FC
:100DB600DFEF06F0E9EF06F0000E216E000E226E60
:100DC600000E236E000E246E81EF08F027502102DC
:100DD600F3CF38F0F4CF39F038502F6E306A316ADD
:100DE600326A3950346E356A366A376A26502202BC
:100DF600F3CF38F0F4CF39F038502F26000E3022DA
:100E06003122322239503426000E3522362237223C
:100E160025502302F3CF38F0F4CF39F038502F267F
:100E2600000E30223122322239503426000E35226D
:100E36003622372231C032F030C031F02FC030F0C8
:100E46002F6A25502202F3CF38F0F4CF39F038500C
:100E56002F2639503022000E3122000E3222265023
:100E66002102F3CF38F0F4CF39F038502F2639501D
:100E76003022000E3122000E322231C032F030C054
:100E860031F02FC030F02F6A25502102F3CF38F011
:100E9600F4CF39F038502F2639503022000E312247
:100EA600000E322227502202F3CF38F0F4CF39F069
:100EB6003850342639503522000E3622000E37229D
:100EC60026502302F3CF38F0F4CF39F038503426C9
:100ED60039503522000E3622000E372227502302C3
:100EE600F3CF38F0F4CF39F03850296E39502A6EE6
:100EF6002B6A2C6A2BC02CF02AC02BF029C02AF0B2
:100F0600296A295034262A5035222B5036222C5055
:100F160037222FC029F030C02AF031C02BF032C062
:100F26002CF0190E9CEF07F0D8902C322B322A3277
:100F36002932E82E97EF07F0295034262A50352219
:100F46002B5036222C50372231C032F030C031F0CF
:100F56002FC030F02F6A2E5033C029F02A6A292676
:100F6600000E2A22820E2924386EFF0E2A20396EA0
:100F7600D2EF07F0D890343635363636373632AEBD
:100F8600C7EF07F0C9EF07F0CAEF07F03480D89033
:100F96002F363036313632363806D8A0390636AED8
:100FA600D7EF07F0D9EF07F0BDEF07F0000E2E6E72
:100FB60032AEE0EF07F0E2EF07F006EF08F0FF0EC3
:100FC6002F14296EFF0E30142A6EFF0E31142B6E6D
:100FD6007F0E32142C6E29502A102B102C10D8B4E8
:100FE600F7EF07F0F9EF07F0FDEF07F0010E2E6EB1
:100FF60006EF08F034A002EF08F004EF08F006EF61
:1010060008F0F9EF07F02E50D8B40CEF08F00EEF09
:1010160008F032EF08F0010E3426000E3522362293
:10102600372237A019EF08F01BEF08F032EF08F06F
:1010360034C029F035C02AF036C02BF037C02CF06A
:101046002C342C322B322A32293229C034F02AC0D1
:1010560035F02BC036F02CC037F0384A392A39BE65
:101066003DEF08F0395008E13828D8A03DEF08F0E8
:101076003FEF08F049EF08F0000E346E000E356EB3
:10108600800E366E7F0E376E77EF08F039BE56EF5C
:1010960008F0395006E13804D8B054EF08F056EF9E
:1010A60008F062EF08F0000E346E000E356E000E8A
:1010B600366E000E376E000E2D6E77EF08F038C0D4
:1010C60033F0FF0E3416FF0E35167F0E3616000E61
:1010D600371633A071EF08F073EF08F074EF08F0DD
:1010E600368ED8903330376E2D50371234C021F0FB
:1010F60035C022F036C023F037C024F012000001BC
:101106007751800B846F775177258B6F76AF8EEF93
:1011160008F090EF08F091EF08F08B818B51D8B46E
:1011260097EF08F099EF08F0AEEF08F08B29D8A4F6
:101136009FEF08F0A1EF08F0A9EF08F0000E746F1A
:10114600000E756F000E766F000E776F768F000EAD
:10115600776FB6EF08F0000E746F000E756F000E15
:10116600766F000E776F7B51800B841B7B517B253E
:101176008C6F7AAFC1EF08F0C3EF08F0C4EF08F048
:101186008C818C51D8B4CAEF08F0CCEF08F0E1EFAF
:1011960008F08C29D8A4D2EF08F0D4EF08F0DCEFE1
:1011A60008F0000E786F000E796F000E7A6F000E51
:1011B6007B6F7A8F000E7B6FE9EF08F0000E786F79
:1011C600000E796F000E7A6F000E7B6F78517911E1
:1011D6007A117B11D8A4F2EF08F0F4EF08F00CEFC7
:1011E60009F0000E746F000E756F000E766F000E1C
:1011F600776F800E76137F0E77138451771374C042
:1012060074F075C075F076C076F077C077F04FEF62
:101216000AF08B51D8A412EF09F014EF09F01EEF73
:1012260009F0000E746F000E756F000E766F000EDB
:10123600776F4FEF0AF08C518BC07CF07D6B7C5F33
:10124600000E7D5B7F0E7C25856F000E7D21866FEF
:1012560074C080F075C081F076C082F077C083F0EC
:10126600000E746F000E756F000E766F000E776FAE
:10127600000E876F000E886F000E896F000E8A6F52
:10128600000E8C6F7FEF09F08C51D8B44DEF09F04A
:101296004FEF09F066EF09F0D89080378137823733
:1012A6008337D89074377537763777378AAF5EEFDE
:1012B60009F060EF09F061EF09F07481D890873783
:1012C600883789378A377851805D795181597A51C3
:1012D60082597B518359D8A073EF09F075EF09F055
:1012E6007EEF09F08A8D7851805F7951815B7A5162
:1012F600825B7B51835B8C2B190E8C6585EF09F025
:1013060087EF09F047EF09F08051811182118311AF
:10131600D8B490EF09F092EF09F0AAEF09F08781AF
:10132600AAEF09F0D89074377537763777378AAFD2
:101336009FEF09F0A1EF09F0A2EF09F07481D890B0
:101346008737883789378A378507D8A0860776AFE3
:10135600AFEF09F0B1EF09F095EF09F0000E8C6FD1
:101366008AAFB8EF09F0BAEF09F0DEEF09F0FF0E29
:1013760087157C6FFF0E88157D6FFF0E89157E6FB2
:101386007F0E8A157F6F7C517D117E117F11D8B437
:10139600CFEF09F0D1EF09F0D5EF09F0010E8C6F10
:1013A600DEEF09F074A1DAEF09F0DCEF09F0DEEF09
:1013B60009F0D1EF09F08C51D8B4E4EF09F0E6EF6B
:1013C60009F00AEF0AF0010E7427000E7523762342
:1013D600772377A1F1EF09F0F3EF09F00AEF0AF0AE
:1013E60074C07CF075C07DF076C07EF077C07FF06B
:1013F6007F357F337E337D337C337CC074F07DC094
:1014060075F07EC076F07FC077F0854B862B86BF61
:1014160015EF0AF0865108E18529D8A015EF0AF0E4
:1014260017EF0AF022EF0AF0000E866F8569000EAC
:10143600746F000E756F000E766F000E776F86BFA5
:101446002FEF0AF0865106E18505D8B02DEF0AF098
:101456002FEF0AF03DEF0AF0000E866F000E856F43
:10146600000E746F000E756F000E766F000E776FAC
:10147600000E846F85C08BF08BA144EF0AF046EF17
:101486000AF049EF0AF0768F4AEF0AF0769FD89075
:101496008B31776F00EF09F01200590E0001AA6F29
:1014A600030EAB6F000EAD6F100EAC6F38EC14F080
:1014B600000E0001966F000E956F41EC11F095C07D
:1014C6009BF096C09CF061EC15F09BC0AAF09CC006
:1014D600ABF0000E0001AD6F100EAC6F38EC14F0DF
:1014E600A20E0001AA6F030EAB6F000EAD6F100EB9
:1014F600AC6F38EC14F05F0E0001AA6F030EAB6FF1
:10150600000EAD6F100EAC6F38EC14F0000E00013B
:10151600966F010E956F41EC11F095C09BF096C049
:101526009CF061EC15F09BC0AAF09CC0ABF0000EDD
:101536000001AD6F100EAC6F38EC14F0A20E000176
:10154600AA6F030EAB6F000EAD6F100EAC6F38ECCA
:1015560014F0650E0001AA6F030EAB6F000EAD6F9F
:10156600100EAC6F38EC14F0000E0001966F020EF0
:10157600956F41EC11F095C09BF096C09CF061EC24
:1015860015F09BC0AAF09CC0ABF0000E0001AD6F39
:10159600100EAC6F38EC14F0A20E0001AA6F030E09
:1015A600AB6F000EAD6F100EAC6F38EC14F06B0E17
:1015B6000001AA6F030EAB6F000EAD6F100EAC6F7D
:1015C60038EC14F0000E0001966F030E956F41EC97
:1015D60011F095C09BF096C09CF061EC15F09BC095
:1015E600AAF09CC0ABF0000E0001AD6F100EAC6F00
:1015F60038EC14F0A20E0001AA6F030EAB6F000EBA
:10160600AD6F100EAC6F38EC14F0710E0001AA6FBE
:10161600030EAB6F000EAD6F100EAC6F38EC14F00E
:10162600000E0001966F040E956F41EC11F095C007
:101636009BF096C09CF061EC15F09BC0AAF09CC094
:10164600ABF0000E0001AD6F100EAC6F38EC14F06D
:10165600A20E0001AA6F030EAB6F000EAD6F100E47
:10166600AC6F38EC14F0770E0001AA6F030EAB6F67
:10167600000EAD6F100EAC6F38EC14F0000E0001CA
:10168600966F050E956F41EC11F095C09BF096C0D4
:101696009CF061EC15F09BC0AAF09CC0ABF0000E6C
:1016A6000001AD6F100EAC6F38EC14F0A20E000105
:1016B600AA6F030EAB6F000EAD6F100EAC6F38EC59
:1016C60014F07D0E0001AA6F030EAB6F000EAD6F16
:1016D600100EAC6F38EC14F0000E0001966F060E7B
:1016E600956F41EC11F095C09BF096C09CF061ECB3
:1016F60015F09BC0AAF09CC0ABF0000E0001AD6FC8
:10170600100EAC6F38EC14F0A20E0001AA6F030E97
:10171600AB6F000EAD6F100EAC6F38EC14F0830E8D
:101726000001AA6F030EAB6F000EAD6F100EAC6F0B
:1017360038EC14F0000E0001966F070E956F41EC21
:1017460011F095C09BF096C09CF061EC15F09BC023
:10175600AAF09CC0ABF0000E0001AD6F100EAC6F8E
:1017660038EC14F0A20E0001AA6F030EAB6F000E48
:10177600AD6F100EAC6F38EC14F0390E0001AA6F85
:10178600030EAB6F000EAD6F100EAC6F38EC14F09D
:10179600A20E0001AA6F030EAB6F000EAD6F100E06
:1017A600AC6F38EC14F00D0E0101396FAF0E386FC7
:1017B600B60EE82EFED7382FFCD7392FFAD700F011
:1017C600120003EC10F038EC0FF08DC0E8F08EC07C
:1017D600E9F08FC0EAF090C0EBF0E8C0ECF0E9C0A9
:1017E600EDF0EAC0EEF0EBC0EFF0000E00016C6F1A
:1017F600000E6D6F400E6E6F400E6F6FE8C070F09A
:10180600E9C071F0EAC072F0EBC073F0D2EC17F0E9
:101816006CC0E4F06DC0E5F06EC0E6F06FC0E7F0B6
:10182600E4C06CF0E5C06DF0E6C06EF0E7C06FF0A6
:10183600B8C070F0B9C071F0BAC072F0BBC073F036
:10184600D2EC17F06CC0C0F06DC0C1F06EC0C2F033
:101856006FC0C3F0E4C0B8F0E5C0B9F0E6C0BAF0B6
:10186600E7C0BBF0BCC070F0BDC071F0BEC072F086
:10187600BFC073F0F0C013F0F1C014F0F2C015F061
:10188600F3C016F0000E5EEC0EF013C06CF014C040
:101896006DF015C06EF016C06FF0D2EC17F06CC08C
:1018A60074F06DC075F06EC076F06FC077F0000E04
:1018B6000001786F000E796F7A0E7A6F440E7B6F97
:1018C60082EC08F074C0C4F075C0C5F076C0C6F0EE
:1018D60077C0C7F0F0C013F0F1C014F0F2C015F0F5
:1018E600F3C016F0000E5EEC0EF013C0BCF014C090
:1018F600BDF015C0BEF016C0BFF0E4C021F0E5C0D3
:1019060022F0E6C023F0E7C024F0000E256E000E9C
:10191600266E000E276E000E286E6DEC06F021C0B6
:10192600E0F022C0E1F023C0E2F024C0E3F0000EB4
:10193600256E000E266E000E276E000E286EE4C081
:1019460021F0E5C022F0E6C023F0E7C024F06DECFC
:1019560006F021C0A3F022C0A4F023C0A5F024C045
:10196600A6F0C4C025F0C5C026F0C6C027F0C7C083
:1019760028F0A3C021F0A4C022F0A5C023F0A6C081
:1019860024F06DEC06F021C060F022C061F023C0A7
:1019960062F024C063F0DCC064F0DDC065F0DEC038
:1019A60066F0DFC067F0D3EC01F060C0DCF061C028
:1019B600DDF062C0DEF063C0DFF0000E256E000EC3
:1019C600266E000E276E000E286EC0C021F0C1C024
:1019D60022F0C2C023F0C3C024F06DEC06F021C093
:1019E60074F022C075F023C076F024C077F0C4C02E
:1019F60078F0C5C079F0C6C07AF0C7C07BF082EC3B
:101A060008F074C0D8F075C0D9F076C0DAF077C0A7
:101A1600DBF0DCC064F0DDC065F0DEC066F0DFC080
:101A260067F0E0C060F0E1C061F0E2C062F0E3C0E0
:101A360063F0D3EC01F060C0A7F061C0A8F062C00B
:101A4600A9F063C0AAF0A7C060F0A8C061F0A9C061
:101A560062F0AAC063F0D8C064F0D9C065F0DAC0FD
:101A660066F0DBC067F0D3EC01F060C0D4F061C073
:101A7600D5F062C0D6F063C0D7F0D4C095F0D5C01B
:101A860096F0D6C097F0D7C098F000EC15F012008B
:101A9600820E0001B26FDD0EE82EFED7B22FFCD704
:101AA60000F000F0B868010EB96E9268000E936EF1
:101AB600800E946E1C0E956E070E966E000E816E4D
:101AC6008268000E836E000E846EF28EF28CF28AAD
:101AD60048EC19F005EC19F0D2EC18F0E4EC18F02B
:101AE600000E146E630E136E30EC19F0A00E00019A
:101AF600FE6F030EFF6FFEC018F0FFC019F0940EC4
:101B06001A6E030E1B6EF6EC17F018501910D8B4A7
:101B16008FEF0DF091EF0DF095EF0DF03EEC19F013
:101B260024EC19F0FEC018F0FFC019F02C0E1A6E46
:101B3600030E1B6EF6EC17F018501910D8B4A6EF6A
:101B46000DF0A8EF0DF0AAEF0DF034EC04F0FEC096
:101B560018F0FFC019F01E0E1A6E030E1B6EF6EC7F
:101B660017F018501910D8B4BBEF0DF0BDEF0DF0FB
:101B7600BFEF0DF0AAEC10F0FEC018F0FFC019F090
:101B86009D0E1A6E030E1B6EF6EC17F01850191008
:101B9600D8B4D0EF0DF0D2EF0DF0D8EF0DF03EEC4B
:101BA60019F024EC19F050EC0AF0FEC018F0FFC052
:101BB60019F0440E1A6E030E1B6EF6EC17F0185051
:101BC6001910D8B4E9EF0DF0EBEF0DF0F1EF0DF0D1
:101BD6003EEC19F024EC19F04DEC13F0FEC018F0B1
:101BE600FFC019F0990E1A6E030E1B6EF6EC17F075
:101BF60018501910D8B402EF0EF004EF0EF006EFED
:101C06000EF0E4EC0BF0FEC018F0FFC019F0890EE0
:101C16001A6E030E1B6EF6EC17F018501910D8B496
:101C260017EF0EF019EF0EF07EEF0DF0E4EC0BF06F
:101C360082908292829482960001F3510DE1C10E48
:101C4600F05DD40EF159010EF259D8A02DEF0EF029
:101C56002FEF0EF07EEF0DF08F0EAA6F030EAB6F17
:101C6600000EAD6F100EAC6F38EC14F0940E000140
:101C7600FE6F030EFF6F000E1A6E000E196E4DEC0E
:101C860018F0000E1A6E000E196E3AEC18F0000EDF
:101C96001A6E000E196E27EC18F0000E1A6E000E62
:101CA600196E14EC18F082808282828482867EEF1E
:101CB6000DF025EF01F01B6E1B50D8B465EF0EF04A
:101CC60067EF0EF089EF0EF016BE6EEF0EF06CEFBA
:101CD6000EF089EF0EF013C017F014C018F015C0FF
:101CE60019F016C01AF0171E181E191E1A1E172AEA
:101CF600000E182219221A2217C01DF018C01EF055
:101D060019C01FF01AC020F091EF0EF013C01DF09D
:101D160014C01EF015C01FF016C020F0135014108A
:101D260015101610D8A49AEF0EF09CEF0EF0A6EF41
:101D36000EF0000E136E000E146E000E156E000EE1
:101D4600166E37EF0FF0960E1C6EB0EF0EF01C2AD3
:101D5600D89020321F321E321D32000E1D14176E0F
:101D6600000E1E14186E000E1F14196EFE0E20149F
:101D76001A6E1750181019101A10D8A4C5EF0EF0C5
:101D8600C7EF0EF0AAEF0EF0D5EF0EF01C2A010EEB
:101D96001D26000E1E221F222022D89020321F321E
:101DA6001E321D32000E1D14176E000E1E14186E04
:101DB600000E1F14196EFF0E20141A6E17501810FD
:101DC60019101A10D8A4EAEF0EF0ECEF0EF0C9EFD6
:101DD6000EF0F4EF0EF01C06D8901D361E361F3698
:101DE60020361FBEF9EF0EF0FBEF0EF003EF0FF0FB
:101DF600020E1C6001EF0FF003EF0FF0EEEF0EF096
:101E06001CB008EF0FF00AEF0FF00BEF0FF01F9E5C
:101E1600D8901C321CC017F0186A196A1A6A17C0C3
:101E26001AF0196A186A176A17501D1218501E12EE
:101E360019501F121A5020121B50D8B425EF0FF05C
:101E460027EF0FF02FEF0FF016BE2EEF0FF02CEF4F
:101E56000FF02FEF0FF0208E1DC013F01EC014F0F0
:101E66001FC015F020C016F01200000E0001956F7D
:101E7600000E966F000E976F000E986F000E996F0A
:101E8600000E9A6F000E9B6F000E9C6F000E9E6FE9
:101E9600010E9D6F000E3E6E010E3F6ED8909D3571
:101EA600D96E9E35DA6ED890D936DA363E50D926B6
:101EB6003F50DA22DECF13F0DECF14F0DECF15F07E
:101EC600DECF16F0000E176E000E186E800E196E1D
:101ED6003F0E1A6E6AEC16F0D8A074EF0FF076EF8C
:101EE6000FF0ACEF0FF095C060F096C061F097C0B0
:101EF60062F098C063F0000E0001646F000E656F1B
:101F0600800E666F3F0E676FD3EC01F060C095F0F0
:101F160061C096F062C097F063C098F099C060F017
:101F26009AC061F09BC062F09CC063F0000E000195
:101F3600646F000E656F800E666F3F0E676FD3ECA1
:101F460001F060C099F061C09AF062C09BF063C076
:101F56009CF000019D4B9E2B9EBFBBEF0FF09E5148
:101F660009E1060E9D5DD8A0BBEF0FF0BDEF0FF0A7
:101F76004DEF0FF099C013F09AC014F09BC015F006
:101F86009CC016F0000E176E000E186E000E196E2D
:101F9600000E1A6E6AEC16F0D8B0D4EF0FF0D6EF3A
:101FA6000FF0FAEF0FF095C074F096C075F097C079
:101FB60076F098C077F099C078F09AC079F09BC017
:101FC6007AF09CC07BF082EC08F074C091F075C08A
:101FD60092F076C093F077C094F091C08DF092C0E5
:101FE6008EF093C08FF094C090F002EF10F0ECC02A
:101FF6008DF0EDC08EF0EEC08FF0EFC090F01200C5
:10200600000E0001A26F000EA16FA1C095F0A2C044
:1020160096F041EC11F0000195C09DF096C09EF03F
:10202600000E9EBFFF0E9F6FA06F9DC013F09EC057
:1020360014F09FC015F0A0C016F0010E5EEC0EF075
:102046001C0E00019B6F010E9C6FD890A135D96EB6
:10205600A235DA6ED890D936DA369B51D9269C51FC
:10206600DA2213C0DEFF14C0DEFF15C0DEFF16C085
:10207600DEFF000E136E800E146E540E156E440EA7
:10208600166E1C0E9B6F010E9C6FD890A135D96EF3
:10209600A235DA6ED890D936DA369B51D9269C51BC
:1020A600DA22DECF17F0DECF18F0DECF19F0DECF62
:1020B6001AF04FEC12F0D8B063EF10F065EF10F0A5
:1020C60080EF10F0000E00019B6F010E9C6FD89000
:1020D600A135D96EA235DA6ED890D936DA369B514B
:1020E600D9269C51DA22000EDE6E000EDE6E800EC0
:1020F600DE6E3F0EDD6E99EF10F0000E00019B6F55
:10210600010E9C6FD890A135D96EA235DA6ED890A3
:10211600D936DA369B51D9269C51DA22000EDE6E6C
:10212600000EDE6E000EDE6E000EDD6EA14BA22BE3
:10213600A2BFA7EF10F0A25109E1070EA15DD8A03A
:10214600A7EF10F0A9EF10F008EF10F01200000E44
:10215600246E000E236E23C013F024C014F0000E6C
:10216600166E010E156E000E186E000E176E7CECC4
:1021760017F01330D8B0C2EF10F0C5EF10F0828020
:10218600C6EF10F0829023C013F024C014F0000EA6
:10219600166E010E156E000E186E010E176E7CEC93
:1021A60017F01330D8B0DAEF10F0DDEF10F08282BE
:1021B600DEEF10F0829223C013F024C014F0000E5C
:1021C600166E010E156E000E186E020E176E7CEC62
:1021D60017F01330D8B0F2EF10F0F5EF10F082845C
:1021E600F6EF10F0829423C013F024C014F0000E12
:1021F600166E010E156E000E186E030E176E7CEC31
:1022060017F01330D8B00AEF11F00DEF11F08286F7
:102216000EEF11F08296FEC018F0FFC019F0940E72
:102226001A6E030E1B6EF6EC17F018501910D8B480
:102236001FEF11F021EF11F023EF11F040EF11F035
:102246000D0E226EAF0E216EB60EE82EFED7212E93
:10225600FCD7222EFAD700F000F0234A242A24BE07
:102266003EEF11F0245009E1100E235CD8A03EEF9A
:1022760011F040EF11F0AEEF10F0120095C013F020
:1022860096C014F0000E166E020E156E000E186E35
:10229600000E176E7CEC17F013461346C250131847
:1022A600F30B1318C26E95C013F096C014F0000E0F
:1022B600166E010E156E000E186E020E176E7CEC71
:1022C60017F099501318FE0B1318996E95C013F05A
:1022D60096C014F0000E166E010E156E000E186EE6
:1022E600020E176E7CEC17F0133A99501318EF0B89
:1022F6001318996E95C013F096C014F0000E166E62
:10230600010E156E000E186E020E176E7CEC17F09D
:102316001346134699501318FB0B1318996E95C064
:1023260013F096C014F0000E166E010E156E000E18
:10233600186E020E176E7CEC17F0133A134613460E
:1023460099501318BF0B1318996EC280C282C2B27D
:10235600AFEF11F0B1EF11F0AAEF11F0BFEC16F0EC
:102366003AC097F03BC098F03CC099F03DC09AF057
:10237600C29097C08DF098C08EF099C08FF09AC029
:1023860090F0CBEC11F08DC095F08EC096F0120057
:1023960000018F3590353F6E3F50D8A4D5EF11F030
:1023A600D7EF11F0E1EF11F0000E8D6F000E8E6F7A
:1023B600000E8F6F000E906F4EEF12F08DC091F0F1
:1023C6008EC092F08FC093F090C094F0200EF1EF83
:1023D60011F0D8909433933392339133E82EECEF87
:1023E60011F091513E6E8F8FFF0E8D17FF0E8E17D7
:1023F600FF0E8F17000E9017960E3F5E3FBE08EF3A
:1024060012F006EF12F01EEF12F03F50800A970FFF
:10241600D8B010EF12F012EF12F014EF12F0D7EF5F
:1024260011F0D89090338F338E338D333F3E14EFB7
:1024360012F036EF12F01F0E3F6424EF12F026EF73
:1024460012F02EEF12F0D7EF11F0D8908D378E37AD
:102456008F3790373F063F50D8A434EF12F036EF4F
:1024660012F028EF12F03E50D8B43CEF12F03EEFD7
:1024760012F046EF12F0901F8F1F8E1F8D6D000E0B
:102486008E238F2390238DC08DF08EC08EF08FC04B
:102496008FF090C090F01200000E13141B6E000E09
:1024A60014141C6E800E15141D6E7F0E16141E6EEF
:1024B6001B501C101D101E10D8A464EF12F066EFFE
:1024C60012F06EEF12F0000E136E000E146E000E78
:1024D600156E000E166E000E17141B6E000E1814E5
:1024E6001C6E800E19141D6E7F0E1A141E6E1B5064
:1024F6001C101D101E10D8A483EF12F085EF12F0E9
:102506008DEF12F0000E176E000E186E000E196E8B
:10251600000E1A6E16AE92EF12F094EF12F09DEFC7
:1025260012F0136C141ED8B0142A151ED8B0152A32
:10253600800E16561AAEA2EF12F0A4EF12F0ADEF0F
:1025460012F0176C181ED8B0182A191ED8B0192AFE
:10255600800E1A56000E131A000E141A000E151AC3
:10256600800E161A000E171A000E181A000E191AE7
:10257600800E1A1A1750135C185014581950155813
:102586001A501658D8B0CAEF12F0CCEF12F0CFEFAF
:1025960012F0D890D0EF12F0D880120021C013F0BC
:1025A60022C014F0000E166E020E156E000E186E86
:1025B600000E176E7CEC17F013461346C250131824
:1025C600F30B1318C26E21C013F022C014F0000ED4
:1025D600166E010E156E000E186E020E176E7CEC4E
:1025E60017F099501318FE0B1318996E21C013F0AB
:1025F60022C014F0000E166E010E156E000E186E37
:10260600020E176E7CEC17F0133A99501318EF0B65
:102616001318996E21C013F022C014F0000E166E26
:10262600010E156E000E186E020E176E7CEC17F07A
:102636001346134699501318FB0B1318996E21C0B5
:1026460013F022C014F0000E166E010E156E000E69
:10265600186E020E176E7CEC17F0133A13461346EB
:1026660099501318BF0B1318996EC280C282C2B25A
:102676003FEF13F041EF13F03AEF13F0F6EC18F0DA
:1026860013C023F014C024F0C29023C021F024C04C
:1026960022F01200000E01013D6F000E3C6F000E8D
:1026A6003B6F000E3A6F3C51300F3A6F3A0E000105
:1026B600AA6F010EAB6F000EAD6F100EAC6F38EC4B
:1026C60014F0A20E0001AA6F030EAB6F000EAD6FE1
:1026D600100EAC6F38EC14F03CC121F03DC122F075
:1026E600D1EC12F021C025F022C026F0C7EC13F081
:1026F60025C0AAF026C0ABF0000E0001AD6F100E8B
:10270600AC6F38EC14F0A20E0001AA6F030EAB6F8B
:10271600000EAD6F100EAC6F38EC14F0390E0001E0
:10272600AA6F030EAB6F000EAD6F100EAC6F38ECD8
:1027360014F0A20E0001AA6F030EAB6F000EAD6F70
:10274600100EAC6F38EC14F001013C4B3D2B3DBF35
:10275600B6EF13F03D5109E1070E3C5DD8A0B6EF88
:1027660013F0B8EF13F052EF13F0330E0101396F87
:10277600BB0E386FDF0EE82EFED7382FFCD7392F69
:10278600FAD700F000F0120025C013F026C014F0AE
:10279600030E166EE80E156E9EEC14F013C027F0AD
:1027A60014C028F0000E166E640E156E25C013F0C8
:1027B60026C014F09EEC14F013C01BF014C01CF0DD
:1027C600000E1E6E0A0E1D6EBAEC15F01BC029F027
:1027D6001CC02AF0000E166E0A0E156E25C013F0E8
:1027E60026C014F09EEC14F013C01BF014C01CF0AD
:1027F600000E1E6E0A0E1D6EBAEC15F01BC02BF0F5
:102806001CC02CF0000E1E6E640E1D6E25C01BF043
:1028160026C01CF0BAEC15F01BC02FF01CC030F01F
:102826002FC01BF030C01CF0000E1E6E0A0E1D6E6F
:10283600BAEC15F01BC02DF01CC02EF020EE31F0C6
:10284600040EDE6AE806FDE22750300F316E29508D
:10285600300F326E2B50300F336E2D50300F346EDA
:10286600310E256E000E266E1200000E0001B16FAD
:10287600000EB06F000EB16F000EB06FADBF4EEF21
:1028860014F0AD5106E1AC05D8B04CEF14F04EEFA4
:1028960014F050EF14F09DEF14F0B051AA25AE6F6E
:1028A600B151AB21AF6FAEC0F6FFAFC0F7FFF86A0C
:1028B600020EF76403D00800F55005D0F6CFE9FF05
:1028C600F7CFEAFFEF500009D8A46CEF14F06EEFD3
:1028D60014F070EF14F09DEF14F00001B051AA252A
:1028E600AE6FB151AB21AF6FAEC0F6FFAFC0F7FF11
:1028F600F86A020EF76403D00800F55005D0F6CF4B
:10290600E9FFF7CFEAFFEF5024EC19F014EC19F0C9
:102916000001B04BB12BAC51B05DB151800AAE6F26
:10292600AD51800AAE59D8A09BEF14F09DEF14F07C
:1029360050EF14F01200000E186E16BEA7EF14F03A
:10294600A5EF14F0ADEF14F0156C161ED8B0162ACC
:10295600010E186E14BEB4EF14F0B2EF14F0BAEF15
:1029660014F0136C141ED8B0142A010E181A000E97
:102976001A6E000E196E15501610D8B4C5EF14F065
:10298600C7EF14F0EFEF14F0010E176ECFEF14F04F
:10299600D89015361636172A16AED4EF14F0D6EFA1
:1029A60014F0CBEF14F0D89019361A361550135C84
:1029B60016501458D8A0E2EF14F0E4EF14F0E9EF43
:1029C60014F01550135E1650145A1980D89016320A
:1029D6001532172ED6EF14F01850D8B4F5EF14F0C0
:1029E600F7EF14F0FBEF14F0196C1A1ED8B01A2A80
:1029F60019C013F01AC014F0120095C013F096C057
:102A060014F097C015F098C016F0000E176E000E61
:102A1600186E000E196E000E1A6E6AEC16F0D8A02B
:102A260017EF15F019EF15F029EF15F0000E1E6ED1
:102A3600030E1D6E650E4EEC17F0000E1E6E030E95
:102A46001D6E640E4EEC17F060EF15F0000E0001DF
:102A5600786F000E796F000E7A6F400E7B6F95C00F
:102A660074F096C075F097C076F098C077F082EC57
:102A760008F074C08DF075C08EF076C08FF077C008
:102A860090F0CBEC11F08DC0F4F08EC0F5F0030E93
:102A96000001F4251D6E000EF5211E6E650E4EEC2E
:102AA60017F00001F45103081D6EF551D8A0E82A6D
:102AB60000081E6E640E4EEC17F012009BC013F059
:102AC6009CC014F0000E166E640E156E9EEC14F08B
:102AD60013C09DF014C09EF0000E166E0A0E156E01
:102AE6009BC013F09CC014F09EEC14F013C01BF0B6
:102AF60014C01CF0000E1E6E0A0E1D6EBAEC15F008
:102B06001BC09FF01CC0A0F0000E1E6E640E1D6E52
:102B16009BC01BF09CC01CF0BAEC15F01BC0A3F0C8
:102B26001CC0A4F0A3C01BF0A4C01CF0000E1E6EB7
:102B36000A0E1D6EBAEC15F01BC0A1F01CC0A2F067
:102B460020EEA5F0040EDE6AE806FDE200019D51C6
:102B5600300FA56F2E0EA66F9F51300FA76FA15194
:102B6600300FA86FA50E9B6F000E9C6F1200000E13
:102B7600206E1CBEC3EF15F0C1EF15F0C9EF15F0BE
:102B86001B6C1C1ED8B01C2A010E206E1EBED0EF78
:102B960015F0CEEF15F0D4EF15F01D6C1E1ED8B053
:102BA6001E2A1D501E10D8B4DBEF15F0DDEF15F010
:102BB60001EF16F0010E1F6EE5EF15F0D8901D36E9
:102BC6001E361F2A1EAEEAEF15F0ECEF15F0E1EF08
:102BD60015F01D501B5C1E501C58D8A0F5EF15F0C3
:102BE600F7EF15F0FBEF15F01D501B5E1E501C5A3B
:102BF600D8901E321D321F2EECEF15F02050D8B49F
:102C060007EF16F009EF16F00DEF16F01B6C1C1E01
:102C1600D8B01C2A1BC01BF01CC01CF01200000EF2
:102C2600096E000E086E000E096E000E086E045046
:102C3600085C0950800A066E0550800A0658D8A01E
:102C460027EF16F029EF16F02BEF16F069EF16F0C6
:102C560008500224066E09500320076E06C0F6FFD0
:102C660007C0F7FFF86A020EF76403D00800F550B4
:102C760005D0F6CFE9FFF7CFEAFFEF500009D8A459
:102C860047EF16F049EF16F04BEF16F069EF16F026
:102C960008500224066E09500320076E06C0F6FF90
:102CA60007C0F7FFF86A020EF76403D00800F55074
:102CB60005D0F6CFE9FFF7CFEAFFEF502AEC19F07F
:102CC6001CEC19F0084A092A1AEF16F01200000E39
:102CD60013141B6E000E14141C6E800E15141D6E3C
:102CE6007F0E16141E6E1B501C101D101E10D8A42D
:102CF6007FEF16F081EF16F089EF16F0000E136ED7
:102D0600000E146E000E156E000E166E000E1714D1
:102D16001B6E000E18141C6E800E19141D6E7F0E8D
:102D26001A141E6E1B501C101D101E10D8A49EEFE8
:102D360016F0A0EF16F0A8EF16F0000E176E000EB4
:102D4600186E000E196E000E1A6E175013180FE14A
:102D5600185014180CE11950151809E11A501618D4
:102D6600D8B4B8EF16F0BAEF16F0BDEF16F0D8905B
:102D7600BEEF16F0D8801200C4CF4BF04C6A4B5011
:102D86004C6E4B6AC3504B26000E4C22F60E256E37
:102D9600280E266E9C0E276E400E286E4BC013F032
:102DA6004CC014F0000E14BEFF0E156E166E010E0A
:102DB6005EEC0EF013C021F014C022F015C023F013
:102DC60016C024F06DEC06F021C060F022C061F060
:102DD60023C062F024C063F060C021F061C022F01D
:102DE60062C023F063C024F0CD0E256ECC0E266E95
:102DF600CC0E276E3D0E286E6DEC06F021C046F017
:102E060022C047F023C048F024C049F046C03AF03B
:102E160047C03BF048C03CF049C03DF0120018EFF7
:102E260017F0134A142A154A162A13C0F6FF14C0BF
:102E3600F7FF0800F5CF17F015C0F6FF16C0F7FF2D
:102E46000800F5501718D8A42BEF17F02DEF17F040
:102E56003BEF17F013C0F6FF14C0F7FF0800F5505C
:102E66000009D8A439EF17F03BEF17F014EF17F06D
:102E760013C0F6FF14C0F7FF0800F5CF17F015C012
:102E8600F6FF16C0F7FF0800F550175C136E146ABC
:102E9600D8A0140612001F6E818C818E650E1F1835
:102EA600D8A458EF17F05AEF17F066EF17F01DC0C9
:102EB60019F01EC01AF04DEC18F0000E1A6E000E36
:102EC600196E14EC18F0640E1F18D8A46DEF17F0E5
:102ED6006FEF17F07BEF17F01DC019F01EC01AF048
:102EE6003AEC18F0000E1A6E000E196E27EC18F068
:102EF600120017C019F013C01AF014C01BF0192ADB
:102F060088EF17F01B341B321A32192E85EF17F093
:102F1600FF0E1C6EFF0E1D6E15C01EF0010E1F6EFD
:102F2600000E206E1E2A9BEF17F0D8901F36203613
:102F36001E2E98EF17F01C501F261D5020221A50E7
:102F46001F14136E1B502014146E1200740EF66EAE
:102F5600320EF76E000EF86E00EEF8F010EE08F086
:102F66000900F5CFEEFFE550E150FAE101EE00F081
:102F7600380EEE6AE806FDE100EEB3F0450EEE6AA5
:102F8600E806FDE100EE41F00C0EEE6AE806FDE112
:102F96004D904D92000EF86E00014BEF0DF0000EB5
:102FA6000001701B000E711B000E721B800E731B3E
:102FB6006CC060F06DC061F06EC062F06FC063F00F
:102FC60070C064F071C065F072C066F073C067F0DF
:102FD600D3EC01F060C06CF061C06DF062C06EF0C1
:102FE60063C06FF0120018C013F019C014F01AC0B5
:102FF60015F01BC016F012EC17F013501410D8A4DD
:1030060007EF18F009EF18F00FEF18F0000E196E21
:10301600010E186E13EF18F0000E196E000E186EE2
:10302600120019C013F01AC014F0000E166E060E28
:10303600156E60EC18F013C01BF014C01CF01BC01A
:1030460073FF1C50726E120019C013F01AC014F0F0
:10305600000E166E060E156E60EC18F013C01BF00F
:1030660014C01CF01BC075FF1C50746E120019C0F2
:1030760013F01AC014F0000E166E060E156E60ECF4
:1030860018F013C01BF014C01CF01BC077FF1C50B7
:10309600766E120019C013F01AC014F0000E166EE8
:1030A600060E156E60EC18F013C01BF014C01CF071
:1030B6001BC079FF1C50786E120013501502F3CF17
:1030C60017F0F4CF18F013501602F35018261450C8
:1030D6001502F350182617C013F018C014F012008A
:1030E60007C001F008C002F0000E046E060E036E63
:1030F600BFEC18F001C009F002C00AF009C073FF66
:103106000A50726E120007C001F008C002F0000EED
:10311600046E060E036EBFEC18F001C009F002C083
:103126000AF009C075FF0A50746E120007C001F05C
:1031360008C002F0000E046E060E036EBFEC18F017
:1031460001C009F002C00AF009C077FF0A50766E86
:10315600120007C001F008C002F0000E046E060E51
:10316600036EBFEC18F001C009F002C00AF009C0F6
:1031760079FF0A50786E120001500302F3CF05F072
:10318600F4CF06F001500402F35006260250030263
:10319600F350062605C001F006C002F01200000E2C
:1031A6007F6E800E7E6E5F0E6F6E010E6E6E100E5F
:1031B6006D6E6B68000E6A6E960E7B6E000E7A6EF2
:1031C6001200C19CC19EC29AC298F30EC216C08E4E
:1031D600C050870B3009C06EC050F80B0509C06E91
:1031E600000E9A6E1200C4CF4BF04C6A4B504C6ED8
:1031F6004B6AC3504B26000E4C224BC013F04CC0FA
:1032060014F01200810EAF6EAC84AC98AC9CAC8A04
:103216009D98AB8EAB9CAB88949C948E9E9A9D8A0F
:103226001200ACA219EF19F01BEF19F014EF19F008
:103236001200ACA221EF19F023EF19F01CEF19F0E0
:103246001200136E13C0ADFF14EC19F01200016EDC
:1032560001C0ADFF1CEC19F01200D40ED56E13C0E0
:10326600D6FF120001C0FEF002C0FFF012000000FF
:1032760040400300A103AECF13F013501200AECFAF
:0C32860001F001501200D58E1200120061
:020000040020DA
:08000000FFFFFFFFFFFFFFFF00
:020000040030CA
:0E000000FFC20D3E3C9D85FF0FC00FE00F407C
:00000001FF
