:020000040000FA
:040000004CEF00F0D1
:100008002A82E9CF0AF0EACF0BF0F6CF0CF0F7CF4F
:100018000DF0F8CF0EF0F5CF0FF09EAA16EF00F016
:1000280018EF00F03EEF00F0ABB41DEF00F01FEF4B
:1000380000F026EF00F0ABA224EF00F026EF00F06E
:1000480029EF00F0AB82AB98AB88D9EC04F0660AD4
:10005800D8A431EF00F033EF00F03DEF00F0300EA0
:10006800026E030E036E000E056E100E046E97EC02
:1000780003F09E9A0FC0F5FF0EC0F8FF0DC0F7FF02
:100088000CC0F6FF0BC0EAFF0AC0E9FF2A92110074
:04009800B0EF04F0D1
:100300000050574D412054657374652066696E61D5
:100310006C697A61646F0050574D41205465737465
:10032000616E646F002D2D2D2D2D2D2D2D2D2D0069
:100330006672656E746500414E303A2000414E3160
:100340003A2000414E323A2000414E333A200041DB
:100350004E343A2000414E353A2000414E363A2084
:1003600000414E373A20000D0000818C818E170E1F
:10037000116E030E126E000E146E100E136E34EC1E
:1003800003F0000E1C6E000E1B6E1BC016F01CC08E
:1003900017F057EC04F0820E1A6EDE0EE82EFED730
:1003A0001A2EFCD71B4A1C2A1CBEE0EF01F01C5081
:1003B00009E1650E1B5CD8A0E0EF01F0E2EF01F06F
:1003C000C5EF01F0010E116E030E126E000E146ED9
:1003D000100E136E34EC03F0000E176E000E166E46
:1003E00057EC04F0000E1C6E000E1B6E1BC016F0C6
:1003F0001CC017F01EEC04F0820E1A6EDE0EE82E02
:10040000FED71A2EFCD71B4A1C2A1CBE11EF02F085
:100410001C5009E1650E1B5CD8A011EF02F013EF30
:1004200002F0F6EF01F0000E176E000E166E1EECD5
:1004300004F0000E1C6E000E1B6E1BC016F01CC0DC
:1004400017F044EC04F0820E1A6EDE0EE82EFED792
:100450001A2EFCD71B4A1C2A1CBE38EF02F01C5077
:1004600009E1650E1B5CD8A038EF02F03AEF02F00C
:100470001DEF02F0000E176E000E166E44EC04F035
:10048000000E1C6E000E1B6E1BC016F01CC017F079
:1004900044EC04F0820E1A6EDE0EE82EFED71A2E01
:1004A000FCD71B4A1C2A1CBE5FEF02F01C5009E15E
:1004B000650E1B5CD8A05FEF02F061EF02F044EF25
:1004C00002F0000E176E000E166E31EC04F0000EF6
:1004D0001C6E000E1B6E1BC016F01CC017F057ECF4
:1004E00004F01BC016F01CC017F044EC04F0820EA0
:1004F0001A6EDE0EE82EFED71A2EFCD71B4A1C2AD7
:100500001CBE8CEF02F01C5009E1650E1B5CD8A0EC
:100510008CEF02F08EEF02F06BEF02F0000E176E20
:10052000000E166E57EC04F0000E176E000E166EDD
:1005300044EC04F0000E1C6E000E1B6E1BC016F087
:100540001CC017F057EC04F01BC016F01CC017F0CD
:1005500031EC04F0820E1A6EDE0EE82EFED71A2E53
:10056000FCD71B4A1C2A1CBEBFEF02F01C5009E13D
:10057000650E1B5CD8A0BFEF02F0C1EF02F09EEF4A
:1005800002F0000E176E000E166E57EC04F0000E0F
:10059000176E000E166E31EC04F0000E1C6E000E8D
:1005A0001B6E1BC016F01CC017F01EEC04F01BC025
:1005B00016F01CC017F044EC04F0820E1A6EDE0E2A
:1005C000E82EFED71A2EFCD71B4A1C2A1CBEF2EFBF
:1005D00002F01C5009E1650E1B5CD8A0F2EF02F09E
:1005E000F4EF02F0D1EF02F0000E176E000E166E5F
:1005F0001EEC04F0000E176E000E166E44EC04F0B4
:10060000000E1C6E000E1B6E1BC016F01CC017F0F7
:100610001EEC04F01BC016F01CC017F031EC04F007
:10062000820E1A6EDE0EE82EFED71A2EFCD71B4A5B
:100630001C2A1CBE25EF03F01C5009E1650E1B5C53
:10064000D8A025EF03F027EF03F004EF03F0000E2E
:10065000176E000E166E1EEC04F0000E176E000EE4
:10066000166E31EC04F01200000E186E000E176EBC
:10067000000E186E000E176E14BE49EF03F01450F2
:1006800006E11304D8B047EF03F049EF03F04BEF56
:1006900003F096EF03F017501124156E1850122036
:1006A000166E15C0F6FF16C0F7FFF86A020EF76463
:1006B00003D00800F55005D0F6CFE9FFF7CFEAFFE9
:1006C000EF500009D8A467EF03F069EF03F06BEF78
:1006D00003F096EF03F017501124156E18501220F6
:1006E000166E15C0F6FF16C0F7FFF86A020EF76423
:1006F00003D00800F55005D0F6CFE9FFF7CFEAFFA9
:10070000EF50CDEC04F0BDEC04F0174A182A13505A
:10071000175C1850800A156E1450800A1558D8A01E
:1007200094EF03F096EF03F04BEF03F01200000E8E
:10073000096E000E086E000E096E000E086E045061
:10074000085C0950800A066E0550800A0658D8A039
:10075000ACEF03F0AEEF03F0B0EF03F0EEEF03F019
:1007600008500224066E09500320076E06C0F6FFEB
:1007700007C0F7FFF86A020EF76403D00800F550CF
:1007800005D0F6CFE9FFF7CFEAFFEF500009D8A474
:10079000CCEF03F0CEEF03F0D0EF03F0EEEF03F079
:1007A00008500224066E09500320076E06C0F6FFAB
:1007B00007C0F7FFF86A020EF76403D00800F5508F
:1007C00005D0F6CFE9FFF7CFEAFFEF50D3EC04F006
:1007D000C5EC04F0084A092A9FEF03F01200030E4B
:1007E0001E6E8A0E1D6E560EE82EFED71D2EFCD7ED
:1007F0001E2EFAD7B868010EB96E9268000E936E7D
:10080000800E946E1C0E956E070E966E000E816E15
:10081000000E826E000E836E000E846EF28EF28CDD
:10082000DDEC04F0A1EC04F07DEC04F08FEC04F0BE
:10083000B5EC01F018EF04F04CEF00F016C010F02A
:1008400017C011F0000E136E060E126E6AEC04F063
:1008500010C018F011C019F018C073FF1950726E53
:10086000120016C010F017C011F0000E136E060E25
:10087000126E6AEC04F010C018F011C019F018C024
:1008800075FF1950746E120016C010F017C011F0E9
:10089000000E136E060E126E6AEC04F010C018F013
:1008A00011C019F018C077FF1950766E120016C0EB
:1008B00010F017C011F0000E136E060E126E6AECE7
:1008C00004F010C018F011C019F018C079FF1950C9
:1008D000786E120010501202F3CF14F0F4CF15F01E
:1008E00010501302F350152611501202F350152622
:1008F00014C010F015C011F01200000E7F6E800EB3
:100900007E6E5F0E6F6E010E6E6E100E6D6E6B68FA
:10091000000E6A6E960E7B6E000E7A6E1200C19CFF
:10092000C19EC29AC298F30EC216C08EC050870BE9
:100930003009C06EC050F80B0509C06E000E9A6EEB
:100940001200810EAF6EAC84AC98AC9CAC8A9D98C2
:10095000AB8EAB9CAB88949C948E9E9A9D8A120021
:1009600000EE1FF00B0EEE6AE806FDE12A902A92D7
:10097000000EF86E0001EFEF03F0ACA2C2EF04F03E
:10098000C4EF04F0BDEF04F01200ACA2CAEF04F013
:10099000CCEF04F0C5EF04F01200106E10C0ADFFF4
:1009A000BDEC04F01200016E01C0ADFFC5EC04F017
:0C09B0001200AECF01F001501200120046
:020000040020DA
:08000000FFFFFFFFFFFFFFFF00
:020000040030CA
:0E000000FFC20D3E3C9D85FF0FC00FE00F407C
:00000001FF
