:020000040000FA
:040000004CEF00F0D1
:100008005082E9CF0AF0EACF0BF0F6CF0CF0F7CF29
:100018000DF0F8CF0EF0F5CF0FF09EAA16EF00F016
:1000280018EF00F03EEF00F0ABB41DEF00F01FEF4B
:1000380000F026EF00F0ABA224EF00F026EF00F06E
:1000480029EF00F0AB82AB98AB8894EC08F0660A15
:10005800D8A431EF00F033EF00F03DEF00F0010ECF
:10006800026E030E036E000E056E100E046EE4ECB5
:1000780005F09E9A0FC0F5FF0EC0F8FF0DC0F7FF00
:100088000CC0F6FF0BC0EAFF0AC0E9FF509211004E
:040098006BEF08F012
:09030000006672656E7465000070
:10030A002150800B2A6E21502124306E20AE90EFAE
:10031A0001F092EF01F093EF01F030803050D8B441
:10032A0099EF01F09BEF01F0AEEF01F03028D8A46D
:10033A00A1EF01F0A3EF01F0ABEF01F0000E1E6E8A
:10034A00000E1F6E000E206E000E216E208EB6EF7C
:10035A0001F0000E1E6E000E1F6E000E206E000EC3
:10036A00216E2550800B2A1A255025242B6E24AE87
:10037A00C1EF01F0C3EF01F0C4EF01F02B802B5065
:10038A00D8B4CAEF01F0CCEF01F0DFEF01F02B286F
:10039A00D8A4D2EF01F0D4EF01F0DCEF01F0000EA7
:1003AA00226E000E236E000E246E000E256E248E21
:1003BA00E7EF01F0000E226E000E236E000E246E8F
:1003CA00000E256E2B50D8B4EDEF01F0EFEF01F0DF
:1003DA00F7EF01F03050D8A4F5EF01F0F7EF01F094
:1003EA0001EF02F0000E1E6E000E1F6E000E206E50
:1003FA00000E216E99EF03F024501E02F3CF35F060
:10040A00F4CF36F035502C6E2D6A2E6A2F6A36508C
:10041A00316E326A336A346A23501F02F3CF35F0E1
:10042A00F4CF36F035502C26000E2D222E222F2204
:10043A0036503126000E3222332234222250200234
:10044A00F3CF35F0F4CF36F035502C26000E2D229E
:10045A002E222F2236503126000E32223322342207
:10046A002EC02FF02DC02EF02CC02DF02C6A225059
:10047A001F02F3CF35F0F4CF36F035502C26365024
:10048A002D22000E2E22000E2F2223501E02F3CF01
:10049A0035F0F4CF36F035502C2636502D22000E8A
:1004AA002E22000E2F222EC02FF02DC02EF02CC08F
:1004BA002DF02C6A22501E02F3CF35F0F4CF36F01D
:1004CA0035502C2636502D22000E2E22000E2F22B9
:1004DA0024501F02F3CF35F0F4CF36F035503126D1
:1004EA0036503222000E3322000E342223502002CC
:1004FA00F3CF35F0F4CF36F035503126365032226C
:10050A00000E3322000E342224502002F3CF35F09D
:10051A00F4CF36F03550266E3650276E286A296A8F
:10052A0028C029F027C028F026C027F0266A2650BE
:10053A0031262750322228503322295034222CC007
:10054A0026F02DC027F02EC028F02FC029F0190E52
:10055A00B4EF02F0D8902932283227322632E82E18
:10056A00AFEF02F02650312627503222285033228C
:10057A00295034222EC02FF02DC02EF02CC02DF081
:10058A002C6A2B5030C026F0276A2626000E272216
:10059A00820E2624356EFF0E2720366EEAEF02F011
:1005AA00D89031363236333634362FAEDFEF02F09A
:1005BA00E1EF02F0E2EF02F03180D8902C362D36CE
:1005CA002E362F363506D8A0360633AEEFEF02F0B8
:1005DA00F1EF02F0D5EF02F0000E2B6E2FAEF8EF1E
:1005EA0002F0FAEF02F01EEF03F0FF0E2C14266E53
:1005FA00FF0E2D14276EFF0E2E14286E7F0E2F1459
:10060A00296E2650271028102910D8B40FEF03F0AE
:10061A0011EF03F015EF03F0010E2B6E1EEF03F03E
:10062A0031A01AEF03F01CEF03F01EEF03F011EFF5
:10063A0003F02B50D8B424EF03F026EF03F04AEF6F
:10064A0003F0010E3126000E32223322342234A066
:10065A0031EF03F033EF03F04AEF03F031C026F035
:10066A0032C027F033C028F034C029F029342932A7
:10067A0028322732263226C031F027C032F028C06D
:10068A0033F029C034F0354A362A36BE55EF03F026
:10069A00365008E13528D8A055EF03F057EF03F09C
:1006AA0061EF03F0000E316E000E326E800E336E73
:1006BA007F0E346E8FEF03F036BE6EEF03F03650C6
:1006CA0006E13504D8B06CEF03F06EEF03F07AEF71
:1006DA0003F0000E316E000E326E000E336E000E05
:1006EA00346E000E2A6E8FEF03F035C030F0FF0E25
:1006FA003116FF0E32167F0E3316000E341630A056
:10070A0089EF03F08BEF03F08CEF03F0338ED89070
:10071A003030346E2A50341231C01EF032C01FF00D
:10072A0033C020F034C021F01200186E1850D8B42B
:10073A00A1EF03F0A3EF03F0C5EF03F013BEAAEF96
:10074A0003F0A8EF03F0C5EF03F010C014F011C0D6
:10075A0015F012C016F013C017F0141E151E161E3F
:10076A00171E142A000E15221622172214C01AF078
:10077A0015C01BF016C01CF017C01DF0CDEF03F01A
:10078A0010C01AF011C01BF012C01CF013C01DF0EB
:10079A001050111012101310D8A4D6EF03F0D8EF8E
:1007AA0003F0E2EF03F0000E106E000E116E000E61
:1007BA00126E000E136E73EF04F0960E196EECEFC4
:1007CA0003F0192AD8901D321C321B321A32000E3D
:1007DA001A14146E000E1B14156E000E1C14166EDD
:1007EA00FE0E1D14176E1450151016101710D8A4EB
:1007FA0001EF04F003EF04F0E6EF03F011EF04F069
:10080A00192A010E1A26000E1B221C221D22D8901C
:10081A001D321C321B321A32000E1A14146E000ECC
:10082A001B14156E000E1C14166EFF0E1D14176E87
:10083A001450151016101710D8A426EF04F028EF3C
:10084A0004F005EF04F030EF04F01906D8901A36D8
:10085A001B361C361D361CBE35EF04F037EF04F08C
:10086A003FEF04F0020E19603DEF04F03FEF04F091
:10087A002AEF04F019B044EF04F046EF04F047EF12
:10088A0004F01C9ED890193219C014F0156A166A21
:10089A00176A14C017F0166A156A146A14501A12E5
:1008AA0015501B1216501C1217501D121850D8B48E
:1008BA0061EF04F063EF04F06BEF04F013BE6AEF2C
:1008CA0004F068EF04F06BEF04F01D8E1AC010F00C
:1008DA001BC011F01CC012F01DC013F012003FC063
:1008EA0010F040C011F0000E136E020E126E000ED0
:1008FA00156E000E146E0BEC08F010461046C2502E
:10090A001018F30B1018C26E3FC010F040C011F05F
:10091A00000E136E010E126E000E156E020E146E8C
:10092A000BEC08F099501018FE0B1018996E3FC086
:10093A0010F040C011F0000E136E010E126E000E80
:10094A00156E020E146E0BEC08F0103A995010183E
:10095A00EF0B1018996E3FC010F040C011F0000E56
:10096A00136E010E126E000E156E020E146E0BEC53
:10097A0008F01046104699501018FB0B1018996E83
:10098A003FC010F040C011F0000E136E010E126E3F
:10099A00000E156E020E146E0BEC08F0103A10469B
:1009AA00104699501018BF0B1018996EC280C28257
:1009BA00C2B2E2EF04F0E4EF04F0DDEF04F0B8ECC9
:1009CA0007F037C041F038C042F039C043F03AC0AE
:1009DA0044F0C29041C010F042C011F043C012F07E
:1009EA0044C013F0FEEC04F010C03FF011C040F018
:1009FA00120012341334196E1950D8A407EF05F0F7
:100A0A0009EF05F013EF05F0000E106E000E116EDF
:100A1A00000E126E000E136E80EF05F010C014F077
:100A2A0011C015F012C016F013C017F0200E23EFF4
:100A3A0005F0D8901732163215321432E82E1EEF0E
:100A4A0005F01450186E128EFF0E1016FF0E1116B6
:100A5A00FF0E1216000E1316960E195E19BE3AEF05
:100A6A0005F038EF05F050EF05F01950800A970F9E
:100A7A00D8B042EF05F044EF05F046EF05F009EF74
:100A8A0005F0D8901332123211321032193E46EF65
:100A9A0005F068EF05F01F0E196456EF05F058EFE0
:100AAA0005F060EF05F009EF05F0D8901036113621
:100ABA001236133619061950D8A466EF05F068EFF6
:100ACA0005F05AEF05F01850D8B46EEF05F070EF44
:100ADA0005F078EF05F0131E121E111E106C000EA1
:100AEA0011221222132210C010F011C011F012C0EC
:100AFA0012F013C013F01200000E186E000E176EDB
:100B0A00000E186E000E176E14BE96EF05F0145004
:100B1A0006E11304D8B094EF05F096EF05F098EFCC
:100B2A0005F0E3EF05F017501124156E1850122046
:100B3A00166E15C0F6FF16C0F7FFF86A020EF764C4
:100B4A0003D00800F55005D0F6CFE9FFF7CFEAFF4A
:100B5A00EF500009D8A4B4EF05F0B6EF05F0B8EFEE
:100B6A0005F0E3EF05F017501124156E1850122006
:100B7A00166E15C0F6FF16C0F7FFF86A020EF76484
:100B8A0003D00800F55005D0F6CFE9FFF7CFEAFF0A
:100B9A00EF5088EC08F078EC08F0174A182A13503E
:100BAA00175C1850800A156E1450800A1558D8A080
:100BBA00E1EF05F0E3EF05F098EF05F01200000E03
:100BCA00096E000E086E000E096E000E086E05BE54
:100BDA00F9EF05F0055006E10404D8B0F7EF05F087
:100BEA00F9EF05F0FBEF05F046EF06F00850022496
:100BFA00066E09500320076E06C0F6FF07C0F7FF0E
:100C0A00F86A020EF76403D00800F55005D0F6CF53
:100C1A00E9FFF7CFEAFFEF500009D8A417EF06F073
:100C2A0019EF06F01BEF06F046EF06F00850022413
:100C3A00066E09500320076E06C0F6FF07C0F7FFCD
:100C4A00F86A020EF76403D00800F55005D0F6CF13
:100C5A00E9FFF7CFEAFFEF508EEC08F080EC08F0DE
:100C6A00084A092A0450085C0950800A066E055091
:100C7A00800A0658D8A044EF06F046EF06F0FBEFCC
:100C8A0005F01200000E156E13BE50EF06F04EEF7F
:100C9A0006F056EF06F0126C131ED8B0132A010E96
:100CAA00156E11BE5DEF06F05BEF06F063EF06F01E
:100CBA00106C111ED8B0112A010E151A000E176EEB
:100CCA00000E166E12501310D8B46EEF06F070EFC5
:100CDA0006F098EF06F0010E146E78EF06F0D89041
:100CEA0012361336142A13AE7DEF06F07FEF06F0A4
:100CFA0074EF06F0D890163617361250105C13505F
:100D0A001158D8A08BEF06F08DEF06F092EF06F09F
:100D1A001250105E1350115A1680D89013321232A4
:100D2A00142E7FEF06F01550D8B49EEF06F0A0EF10
:100D3A0006F0A4EF06F0166C171ED8B0172A16C0D4
:100D4A0010F017C011F01200030E0001616F8A0E35
:100D5A00606F550EE82EFED7602FFCD7612FFAD7A9
:100D6A0000F000F0B868010EB96E9268000E936E3A
:100D7A00800E946E1C0E956E070E966E000E816E96
:100D8A00000E826E000E836E000E846EF28EF28C5E
:100D9A0098EC08F05CEC08F038EC08F04AEC08F043
:100DAA00000E406E010E3F6E74EC04F03FC062F01C
:100DBA0040C063F062C01EF063C01FF008EC07F089
:100DCA001EC064F01FC065F064C011F065C012F067
:100DDA00000E146E100E136E81EC05F00D0E88ECE9
:100DEA0008F0080E0001616F9D0E606F050EE82E77
:100DFA00FED7602FFCD7612FFAD700F000F0D5EFAD
:100E0A0006F04CEF00F01EC010F01FC011F0000EEB
:100E1A00136E640E126E47EC06F010C020F011C07B
:100E2A0021F0000E136E0A0E126E1EC010F01FC0C3
:100E3A0011F047EC06F010C018F011C019F0000EBE
:100E4A001B6E0A0E1A6E60EC07F018C022F019C069
:100E5A0023F0000E1B6E640E1A6E1EC018F01FC01F
:100E6A0019F060EC07F018C026F019C027F026C068
:100E7A0018F027C019F0000E1B6E0A0E1A6E60ECED
:100E8A0007F018C024F019C025F020EE28F0040E4F
:100E9A00DE6AE806FDE22050300F286E2E0E296E1B
:100EAA002250300F2A6E2450300F2B6E280E1E6EE1
:100EBA00000E1F6E1200000E1D6E19BE69EF07F0BC
:100ECA0067EF07F06FEF07F0186C191ED8B0192AF0
:100EDA00010E1D6E1BBE76EF07F074EF07F07AEF76
:100EEA0007F01A6C1B1ED8B01B2A1A501B10D8B454
:100EFA0081EF07F083EF07F0A7EF07F0010E1C6EF2
:100F0A008BEF07F0D8901A361B361C2A1BAE90EFCF
:100F1A0007F092EF07F087EF07F01A50185C1B50A2
:100F2A001958D8A09BEF07F09DEF07F0A1EF07F043
:100F3A001A50185E1B50195AD8901B321A321C2E9E
:100F4A0092EF07F01D50D8B4ADEF07F0AFEF07F0FE
:100F5A00B3EF07F0186C191ED8B0192A18C018F088
:100F6A0019C019F01200C4CF4EF04F6A4E504F6E9E
:100F7A004E6AC3504E26000E4F22F60E226E280EDF
:100F8A00236E9C0E246E400E256E4EC010F04FC08C
:100F9A0011F0000E11BEFF0E126E136E010E9AECC6
:100FAA0003F010C01EF011C01FF012C020F013C0D1
:100FBA0021F085EC01F01EC03BF01FC03CF020C0C0
:100FCA003DF021C03EF03BC01EF03CC01FF03DC0CA
:100FDA0020F03EC021F0CD0E226ECC0E236ECC0E38
:100FEA00246E3D0E256E85EC01F01EC04AF01FC02E
:100FFA004BF020C04CF021C04DF04AC037F04BC036
:10100A0038F04CC039F04DC03AF0120014C016F056
:10101A0010C017F011C018F0162A17EF08F018348C
:10102A0018321732162E14EF08F0FF0E196EFF0E43
:10103A001A6E12C01BF0010E1C6E000E1D6E1B2ACA
:10104A002AEF08F0D8901C361D361B2E27EF08F021
:10105A0019501C261A501D2217501C14106E1850B5
:10106A001D14116E1200000E7F6E800E7E6E5F0ED2
:10107A006F6E010E6E6E100E6D6E6B68000E6A6EEC
:10108A00960E7B6E000E7A6E1200C19CC19EC29AA9
:10109A00C298F30EC216C08EC050870B3009C06EBC
:1010AA00C050F80B0509C06E000E9A6E1200810E30
:1010BA00AF6EAC84AC98AC9CAC8A9D98AB8EAB9C62
:1010CA00AB88949C948E9E9A9D8A120000EE45F0FD
:1010DA000B0EEE6AE806FDE150905092000EF86E93
:1010EA000001A9EF06F0ACA27DEF08F07FEF08F04F
:1010FA0078EF08F01200ACA285EF08F087EF08F04D
:10110A0080EF08F01200106E10C0ADFF78EC08F006
:10111A001200016E01C0ADFF80EC08F01200AECFE4
:08112A0001F001501200120057
:020000040020DA
:08000000FFFFFFFFFFFFFFFF00
:020000040030CA
:0E000000FFC20D3E3C9D85FF0FC00FE00F407C
:00000001FF
