:020000040000FA
:04000000F6EF00F027
:100008005082E9CF0AF0EACF0BF0F6CF0CF0F7CF29
:100018000DF0F8CF0EF0F5CF0FF0F2A416EF00F0C8
:1000280018EF00F021EF00F0630ED66E010E4426A3
:10003800000E452246224722F2949EAA26EF00F09F
:1000480028EF00F0E8EF00F0ABB42DEF00F02FEF51
:1000580000F036EF00F0ABA234EF00F036EF00F01E
:1000680039EF00F0AB82AB98AB8874EC0AF0300A39
:10007800D8A441EF00F043EF00F04FEF00F07AEC26
:100088000AF0770E026E030E036E000E056E100E58
:10009800046EF3EC08F074EC0AF0310AD8A457EFB8
:1000A80000F059EF00F065EF00F078EC0AF0820EEE
:1000B800026E030E036E000E056E100E046EF3EC56
:1000C80008F074EC0AF0660AD8A46DEF00F06FEF40
:1000D80000F07FEF00F06C0E016E030E026E6FEC05
:1000E8000AF0010E026E030E036E000E056E100E6E
:1000F800046EF3EC08F074EC0AF0610AD8A487EFF8
:1001080000F089EF00F099EF00F08C0E016E030EFD
:10011800026E6FEC0AF0310E026E030E036E000ED3
:10012800056E100E046EF3EC08F074EC0AF0620A27
:10013800D8A4A1EF00F0A3EF00F0B3EF00F0950E04
:10014800016E030E026E6FEC0AF03D0E026E030E96
:10015800036E000E056E100E046EF3EC08F074ECDE
:100168000AF0630AD8A4BBEF00F0BDEF00F0CDEFB2
:1001780000F09E0E016E030E026E6FEC0AF0490E3F
:10018800026E030E036E000E056E100E046EF3EC85
:1001980008F074EC0AF0640AD8A4D5EF00F0D7EFA1
:1001A80000F0E7EF00F0A70E016E030E026E6FEC91
:1001B8000AF0550E026E030E036E000E056E100E49
:1001C800046EF3EC08F09E9A0FC0F5FF0EC0F8FF1E
:1001D8000DC0F7FF0CC0F6FF0BC0EAFF0AC0E9FF2D
:0801E80050921100FCEF09F038
:1003000000416C746572616E646F204C616D706148
:100310006461730050574D412054657374652046E5
:10032000696D0050574D412054657374616E646F60
:1003300000416C746572616E646F203100416C74B1
:100340006572616E646F203200416C746572616E1B
:10035000646F203300416C746572616E646F203489
:10036000002D2D2D2D2D2D2D2D2D2D006C616D7021
:10037000616461734F4E0054696D657230206F6621
:10038000660054696D657230206F6E006C616D702F
:1003900061646131006C616D7061646132006C6137
:1003A0006D7061646133006C616D70616461340013
:1003B000414E303A2000414E313A2000414E323A0F
:1003C0002000414E333A2000414E343A2000414E45
:1003D000353A2000414E363A2000414E373A20004F
:0303E0000D00000D
:1003E4002150800B2A6E21502124306E20AEFDEF67
:1003F40001F0FFEF01F000EF02F030803050D8B48C
:1004040006EF02F008EF02F01BEF02F03028D8A448
:100414000EEF02F010EF02F018EF02F0000E1E6E65
:10042400000E1F6E000E206E000E216E208E23EF34
:1004340002F0000E1E6E000E1F6E000E206E000EE7
:10044400216E2550800B2A1A255025242B6E24AEAC
:100454002EEF02F030EF02F031EF02F02B802B5040
:10046400D8B437EF02F039EF02F04CEF02F02B284A
:10047400D8A43FEF02F041EF02F049EF02F0000E82
:10048400226E000E236E000E246E000E256E248E46
:1004940054EF02F0000E226E000E236E000E246E46
:1004A400000E256E2B50D8B45AEF02F05CEF02F028
:1004B40064EF02F03050D8A462EF02F064EF02F06F
:1004C4006EEF02F0000E1E6E000E1F6E000E206E08
:1004D400000E216E06EF04F024501E02F3CF35F017
:1004E400F4CF36F035502C6E2D6A2E6A2F6A3650B2
:1004F400316E326A336A346A23501F02F3CF35F007
:10050400F4CF36F035502C26000E2D222E222F2229
:1005140036503126000E3222332234222250200259
:10052400F3CF35F0F4CF36F035502C26000E2D22C3
:100534002E222F2236503126000E3222332234222C
:100544002EC02FF02DC02EF02CC02DF02C6A22507E
:100554001F02F3CF35F0F4CF36F035502C26365049
:100564002D22000E2E22000E2F2223501E02F3CF26
:1005740035F0F4CF36F035502C2636502D22000EAF
:100584002E22000E2F222EC02FF02DC02EF02CC0B4
:100594002DF02C6A22501E02F3CF35F0F4CF36F042
:1005A40035502C2636502D22000E2E22000E2F22DE
:1005B40024501F02F3CF35F0F4CF36F035503126F6
:1005C40036503222000E3322000E342223502002F1
:1005D400F3CF35F0F4CF36F0355031263650322291
:1005E400000E3322000E342224502002F3CF35F0C3
:1005F400F4CF36F03550266E3650276E286A296AB5
:1006040028C029F027C028F026C027F0266A2650E3
:1006140031262750322228503322295034222CC02C
:1006240026F02DC027F02EC028F02FC029F0190E77
:1006340021EF03F0D8902932283227322632E82ECF
:100644001CEF03F026503126275032222850332243
:10065400295034222EC02FF02DC02EF02CC02DF0A6
:100664002C6A2B5030C026F0276A2626000E27223B
:10067400820E2624356EFF0E2720366E57EF03F0C8
:10068400D89031363236333634362FAE4CEF03F051
:100694004EEF03F04FEF03F03180D8902C362D3617
:1006A4002E362F363506D8A0360633AE5CEF03F06F
:1006B4005EEF03F042EF03F0000E2B6E2FAE65EFFA
:1006C40003F067EF03F08BEF03F0FF0E2C14266E9C
:1006D400FF0E2D14276EFF0E2E14286E7F0E2F147E
:1006E400296E2650271028102910D8B47CEF03F067
:1006F4007EEF03F082EF03F0010E2B6E8BEF03F01D
:1007040031A087EF03F089EF03F08BEF03F07EEF66
:1007140003F02B50D8B491EF03F093EF03F0B7EF4D
:1007240003F0010E3126000E32223322342234A08B
:100734009EEF03F0A0EF03F0B7EF03F031C026F013
:1007440032C027F033C028F034C029F029342932CC
:1007540028322732263226C031F027C032F028C092
:1007640033F029C034F0354A362A36BEC2EF03F0DE
:10077400365008E13528D8A0C2EF03F0C4EF03F0E7
:10078400CEEF03F0000E316E000E326E800E336E2B
:100794007F0E346EFCEF03F036BEDBEF03F0365011
:1007A40006E13504D8B0D9EF03F0DBEF03F0E7EF4F
:1007B40003F0000E316E000E326E000E336E000E2A
:1007C400346E000E2A6EFCEF03F035C030F0FF0EDD
:1007D4003116FF0E32167F0E3316000E341630A07B
:1007E400F6EF03F0F8EF03F0F9EF03F0338ED8904F
:1007F4003030346E2A50341231C01EF032C01FF033
:1008040033C020F034C021F01200B00E0001716F2B
:10081400030E726F000E746F100E736F7AEC07F094
:10082400000E406E000E3F6E6DEC06F03FC041F0CE
:1008340040C042F042EC08F041C071F042C072F096
:10084400000E0001746F100E736F7AEC07F0E00E67
:100854000001716F030E726F000E746F100E736FD0
:100864007AEC07F0B60E0001716F030E726F000E82
:10087400746F100E736F7AEC07F0000E406E010E69
:100884003F6E6DEC06F03FC041F040C042F042ECD8
:1008940008F041C071F042C072F0000E0001746FA4
:1008A400100E736F7AEC07F0E00E0001716F030E07
:1008B400726F000E746F100E736F7AEC07F0BC0E3B
:1008C4000001716F030E726F000E746F100E736F60
:1008D4007AEC07F0000E406E020E3F6E6DEC06F0EF
:1008E4003FC041F040C042F042EC08F041C071F01A
:1008F40042C072F0000E0001746F100E736F7AEC38
:1009040007F0E00E0001716F030E726F000E746F3A
:10091400100E736F7AEC07F0C20E0001716F030EB4
:10092400726F000E746F100E736F7AEC07F0000E86
:10093400406E030E3F6E6DEC06F03FC041F040C0C8
:1009440042F042EC08F041C071F042C072F0000E77
:100954000001746F100E736F7AEC07F0E00E000163
:10096400716F030E726F000E746F100E736F7AEC5A
:1009740007F0C80E0001716F030E726F000E746FE2
:10098400100E736F7AEC07F0000E406E040E3F6E8B
:100994006DEC06F03FC041F040C042F042EC08F07C
:1009A40041C071F042C072F0000E0001746F100E6D
:1009B400736F7AEC07F0E00E0001716F030E726F33
:1009C400000E746F100E736F7AEC07F0CE0E0001F8
:1009D400716F030E726F000E746F100E736F7AECEA
:1009E40007F0000E406E050E3F6E6DEC06F03FC042
:1009F40041F040C042F042EC08F041C071F042C006
:100A040072F0000E0001746F100E736F7AEC07F031
:100A1400E00E0001716F030E726F000E746F100E02
:100A2400736F7AEC07F0D40E0001716F030E726FCE
:100A3400000E746F100E736F7AEC07F0000E406EA8
:100A4400060E3F6E6DEC06F03FC041F040C042F030
:100A540042EC08F041C071F042C072F0000E000197
:100A6400746F100E736F7AEC07F0E00E0001716F73
:100A7400030E726F000E746F100E736F7AEC07F032
:100A8400DA0E0001716F030E726F000E746F100E98
:100A9400736F7AEC07F0000E406E070E3F6E6DEC3C
:100AA40006F03FC041F040C042F042EC08F041C0C3
:100AB40071F042C072F0000E0001746F100E736F7B
:100AC4007AEC07F0E00E0001716F030E726F000EF6
:100AD400746F100E736F7AEC07F0610E0001716F82
:100AE400030E726F000E746F100E736F7AEC07F0C2
:100AF400E00E0001716F030E726F000E746F100E22
:100B0400736F7AEC07F00D0E00017A6FAF0E796FF8
:100B1400B60EE82EFED7792FFCD77A2FFAD700F03D
:100B24001200186E1850D8B49AEF05F09CEF05F037
:100B3400BEEF05F013BEA3EF05F0A1EF05F0BEEF85
:100B440005F010C014F011C015F012C016F013C057
:100B540017F0141E151E161E171E142A000E152239
:100B64001622172214C01AF015C01BF016C01CF070
:100B740017C01DF0C6EF05F010C01AF011C01BF02D
:100B840012C01CF013C01DF01050111012101310DD
:100B9400D8A4CFEF05F0D1EF05F0DBEF05F0000EA0
:100BA400106E000E116E000E126E000E136E6CEFBE
:100BB40006F0960E196EE5EF05F0192AD8901D324D
:100BC4001C321B321A32000E1A14146E000E1B143F
:100BD400156E000E1C14166EFE0E1D14176E1450A6
:100BE400151016101710D8A4FAEF05F0FCEF05F055
:100BF400DFEF05F00AEF06F0192A010E1A26000E9F
:100C04001B221C221D22D8901D321C321B321A3288
:100C1400000E1A14146E000E1B14156E000E1C1414
:100C2400166EFF0E1D14176E1450151016101710A3
:100C3400D8A41FEF06F021EF06F0FEEF05F029EF30
:100C440006F01906D8901A361B361C361D361CBE03
:100C54002EEF06F030EF06F038EF06F0020E1960C2
:100C640036EF06F038EF06F023EF06F019B03DEF4B
:100C740006F03FEF06F040EF06F01C9ED8901932C4
:100C840019C014F0156A166A176A14C017F0166AA8
:100C9400156A146A14501A1215501B1216501C129D
:100CA40017501D121850D8B45AEF06F05CEF06F036
:100CB40064EF06F013BE63EF06F061EF06F064EF35
:100CC40006F01D8E1AC010F01BC011F01CC012F0EB
:100CD4001DC013F012003FC010F040C011F0000E10
:100CE400136E020E126E000E156E000E146ECFEC13
:100CF40009F010461046C2501018F30B1018C26EBB
:100D04003FC010F040C011F0000E136E010E126EC1
:100D1400000E156E020E146ECFEC09F099501018E7
:100D2400FE0B1018996E3FC010F040C011F0000E79
:100D3400136E010E126E000E156E020E146ECFECC1
:100D440009F0103A99501018EF0B1018996E3FC023
:100D540010F040C011F0000E136E010E126E000E62
:100D6400156E020E146ECFEC09F010461046995021
:100D74001018FB0B1018996E3FC010F040C011F012
:100D8400000E136E010E126E000E156E020E146E1E
:100D9400CFEC09F0103A1046104699501018BF0BCA
:100DA4001018996EC280C282C2B2DBEF06F0DDEF8A
:100DB40006F0D6EF06F04BEC09F037C060F038C00F
:100DC40061F039C062F03AC063F0C29060C010F0C4
:100DD40061C011F062C012F063C013F0F7EC06F0CA
:100DE40010C03FF011C040F0120012341334196ED9
:100DF4001950D8A400EF07F002EF07F00CEF07F04A
:100E0400000E106E000E116E000E126E000E136EA8
:100E140079EF07F010C014F011C015F012C016F0ED
:100E240013C017F0200E1CEF07F0D89017321632BB
:100E340015321432E82E17EF07F01450186E128E84
:100E4400FF0E1016FF0E1116FF0E1216000E1316CB
:100E5400960E195E19BE33EF07F031EF07F049EF34
:100E640007F01950800A970FD8B03BEF07F03DEF19
:100E740007F03FEF07F002EF07F0D8901332123279
:100E840011321032193E3FEF07F061EF07F01F0EE9
:100E940019644FEF07F051EF07F059EF07F002EF35
:100EA40007F0D89010361136123613361906195039
:100EB400D8A45FEF07F061EF07F053EF07F0185085
:100EC400D8B467EF07F069EF07F071EF07F0131E6E
:100ED400121E111E106C000E11221222132210C0B9
:100EE40010F011C011F012C012F013C013F0120070
:100EF400000E0001786F000E776F000E786F000E01
:100F0400776F74BF90EF07F0745106E17305D8B0A2
:100F14008EEF07F090EF07F092EF07F0DFEF07F0A6
:100F240077517125756F78517221766F75C0F6FF10
:100F340076C0F7FFF86A020EF76403D00800F55094
:100F440005D0F6CFE9FFF7CFEAFFEF500009D8A4A8
:100F5400AEEF07F0B0EF07F0B2EF07F0DFEF07F006
:100F6400000177517125756F78517221766F75C0C4
:100F7400F6FF76C0F7FFF86A020EF76403D00800A4
:100F8400F55005D0F6CFE9FFF7CFEAFFEF505EEC5E
:100F94000AF04EEC0AF00001774B782B7351775D21
:100FA4007851800A756F7451800A7559D8A0DDEFA5
:100FB40007F0DFEF07F092EF07F01200000E156E56
:100FC40013BEE9EF07F0E7EF07F0EFEF07F0126C5D
:100FD400131ED8B0132A010E156E11BEF6EF07F0DA
:100FE400F4EF07F0FCEF07F0106C111ED8B0112AD3
:100FF400010E151A000E176E000E166E1250131005
:10100400D8B407EF08F009EF08F031EF08F0010E4B
:10101400146E11EF08F0D89012361336142A13AE5A
:1010240016EF08F018EF08F00DEF08F0D890163618
:1010340017361250105C13501158D8A024EF08F042
:1010440026EF08F02BEF08F01250105E1350115ADF
:101054001680D89013321232142E18EF08F015505F
:10106400D8B437EF08F039EF08F03DEF08F0166C0C
:10107400171ED8B0172A16C010F017C011F01200AE
:1010840041C010F042C011F0000E136E640E126ED7
:10109400E0EC07F010C064F011C065F0000E136EB0
:1010A4000A0E126E41C010F042C011F0E0EC07F0DD
:1010B40010C018F011C019F0000E1B6E0A0E1A6E43
:1010C4009BEC08F018C066F019C067F0000E1B6EA8
:1010D400640E1A6E41C018F042C019F09BEC08F07F
:1010E40018C06AF019C06BF06AC018F06BC019F030
:1010F400000E1B6E0A0E1A6E9BEC08F018C068F006
:1011040019C069F020EE6CF0040EDE6AE806FDE218
:1011140000016451300F6C6F2E0E6D6F6651300FED
:101124006E6F6851300F6F6F6C0E416E000E426E21
:101134001200000E1D6E19BEA4EF08F0A2EF08F015
:10114400AAEF08F0186C191ED8B0192A010E1D6EEA
:101154001BBEB1EF08F0AFEF08F0B5EF08F01A6C62
:101164001B1ED8B01B2A1A501B10D8B4BCEF08F0B1
:10117400BEEF08F0E2EF08F0010E1C6EC6EF08F0B7
:10118400D8901A361B361C2A1BAECBEF08F0CDEFD5
:1011940008F0C2EF08F01A50185C1B501958D8A078
:1011A400D6EF08F0D8EF08F0DCEF08F01A50185E1C
:1011B4001B50195AD8901B321A321C2ECDEF08F04E
:1011C4001D50D8B4E8EF08F0EAEF08F0EEEF08F0AD
:1011D400186C191ED8B0192A18C018F019C019F0C3
:1011E4001200000E096E000E086E000E096E000E4D
:1011F400086E0450085C0950800A066E0550800A87
:101204000658D8A008EF09F00AEF09F00CEF09F02E
:101214004AEF09F008500224066E09500320076EB5
:1012240006C0F6FF07C0F7FFF86A020EF76403D0A2
:101234000800F55005D0F6CFE9FFF7CFEAFFEF50ED
:101244000009D8A428EF09F02AEF09F02CEF09F0DF
:101254004AEF09F008500224066E09500320076E75
:1012640006C0F6FF07C0F7FFF86A020EF76403D062
:101274000800F55005D0F6CFE9FFF7CFEAFFEF50AD
:1012840064EC0AF056EC0AF0084A092AFBEF08F06D
:101294001200C4CF4CF04D6A4C504D6E4C6AC35092
:1012A4004C26000E4D22F60E226E280E236E9C0E46
:1012B400246E400E256E4CC010F04DC011F0000E8F
:1012C40011BEFF0E126E136E010E93EC05F010C0EA
:1012D4001EF011C01FF012C020F013C021F0F2EC78
:1012E40001F01EC03BF01FC03CF020C03DF021C007
:1012F4003EF03BC01EF03CC01FF03DC020F03EC09D
:1013040021F0CD0E226ECC0E236ECC0E246E3D0E3B
:10131400256EF2EC01F01EC048F01FC049F020C059
:101324004AF021C04BF048C037F049C038F04AC0F9
:1013340039F04BC03AF01200820E436EDE0EE82EF6
:10134400FED7432EFCD7B868010EB96E9268000E22
:10135400936E800E946E1C0E956E070E966E000EA4
:10136400816E8268000E836E000E846EF28EF28CA3
:10137400F28A7DEC0AF03FEC0AF01BEC0AF02DEC4B
:101384000AF0000E116E630E106E6AEC0AF007ECA0
:1013940004F0C9EF09F0F6EF00F014C016F010C025
:1013A40017F011C018F0162ADBEF09F018341832C0
:1013B4001732162ED8EF09F0FF0E196EFF0E1A6EB3
:1013C40012C01BF0010E1C6E000E1D6E1B2AEEEFE8
:1013D40009F0D8901C361D361B2EEBEF09F019507E
:1013E4001C261A501D2217501C14106E18501D1460
:1013F400116E1200F80EF66E140EF76E000EF86EF3
:101404000900F5CF4EF00900F5CF4FF000017F6BD6
:101414007E6B7D6B7C6B7B6B00EE44F00A0EEE6A98
:10142400E806FDE150905092000EF86E00019EEF28
:1014340009F0000E7F6E800E7E6E5F0E6F6E010EE1
:101444006E6E100E6D6E6B68000E6A6E960E7B6E7D
:10145400000E7A6E1200C19CC19EC29AC298F30E0D
:10146400C216C08EC050870B3009C06EC050F80B36
:101474000509C06E000E9A6E1200810EAF6EAC8428
:10148400AC98AC9CAC8A9D98AB8EAB9CAB88949C7E
:10149400948E9E9A9D8A1200ACA253EF0AF055EFE7
:1014A4000AF04EEF0AF01200ACA25BEF0AF05DEF17
:1014B4000AF056EF0AF01200106E10C0ADFF4EECA9
:1014C4000AF01200016E01C0ADFF56EC0AF01200E2
:1014D400D40ED56E10C0D6FF120001C04EF002C06B
:1014E4004FF01200AECF01F001501200D58E120061
:0814F400D59E1200E103120075
:020000040020DA
:08000000FFFFFFFFFFFFFFFF00
:020000040030CA
:0E000000FFC20D3E3C9D85FF0FC00FE00F407C
:00000001FF
