:020000040000FA
:0400000059EF01F0C3
:100008005F82D9CF76F0DACF77F0F3CF78F0F4CFFC
:1000180079F0F6CF7AF0F7CF7BF0F8CF7CF0F5CF18
:100028007DF0F2A41AEF00F01CEF00F026EF00F0CC
:10003800630ED66E010E0001CD27000ECE23CF230E
:10004800D023F2949EAA2BEF00F02DEF00F047EF9B
:1000580001F0ABB432EF00F034EF00F03BEF00F00A
:10006800ABA239EF00F03BEF00F03EEF00F0AB82BF
:10007800AB98AB88310EAE18D8A445EF00F047EF27
:1000880000F053EF00F04FEC1EF04F0E026E030E1F
:10009800036E000E056E100E046EA5EC1AF0610ECC
:1000A800AE18D8A45AEF00F05CEF00F06CEF00F047
:1000B8002C0E016E030E026E45EC1EF0DFC002F03E
:1000C800E0C003F0000E056E100E046EA5EC1AF0E9
:1000D800620EAE18D8A473EF00F075EF00F085EF4C
:1000E80000F01E0E016E030E026E45EC1EF0DFC01E
:1000F80002F0E0C003F0000E056E100E046EA5ECD1
:100108001AF0630EAE18D8A48CEF00F08EEF00F052
:100118009EEF00F0970E016E030E026E45EC1EF086
:10012800DFC002F0E0C003F0000E056E100E046E92
:10013800A5EC1AF0640EAE18D8A4A5EF00F0A7EF4E
:1001480000F0EEEF00F0000E0001CD6F000ECE6F54
:10015800000ECF6F000ED06FD051CF110BE1600EA3
:10016800CD5DEA0ECE59D8A0BCEF00F0BEEF00F08E
:10017800C0EF00F0E4EF00F029EC0EF0E80E00010B
:10018800CD1909E1030ECE19CF11D011D8A4CFEFA4
:1001980000F0D1EF00F0DBEF00F0930E026E030EDB
:1001A800036E000E056E100E046EA5EC1AF0010E1B
:1001B8000001CD27000ECE23CF23D023B0EF00F0CF
:1001C800DFC002F0E0C003F0000E056E100E046EF2
:1001D800A5EC1AF0660EAE18D8A4F5EF00F0F7EF0C
:1001E80000F007EF01F0440E016E030E026E45ECBD
:1001F8001EF0DFC002F0E0C003F0000E056E100E26
:10020800046EA5EC1AF0700EAE18D8A40EEF01F02B
:1002180010EF01F046EF01F08E0E016E030E026E34
:1002280045EC1EF0890E026E030E036E000E056E7D
:10023800100E046EA5EC1AF0000E086E000E076E84
:10024800B5EC1DF0000E086E000E076EA2EC1DF056
:10025800000E086E000E076E8FEC1DF0000E086E83
:10026800000E076E7CEC1DF082908292829482963A
:10027800DFC002F0E0C003F0000E056E100E046E41
:10028800A5EC1AF09E9A7DC0F5FF7CC0F8FF7BC0F4
:10029800F7FF7AC0F6FF79C0F4FF78C0F3FF77C0A4
:0E02A800DAFF76C0D9FF5F921100AFEF1CF0B5
:100300000050574D412054657374652046696D0057
:1003100050574D412054657374616E646F0074656D
:100320007374654C616D706164617300746573749E
:10033000654D6F746F726573002D2D2D2D2D2D2D34
:100340002D2D2D00746573746541446269740054E9
:10035000696D657230206F6E00414E303A20004169
:100360004E313A2000414E323A2000414E333A207D
:1003700000414E343A2000414E353A2000414E367D
:100380003A2000414E373A200049444C4500696408
:0F0390006C65005049440041440000000D00001E
:1003A000818C818E100E01016F6F030E706F000E35
:1003B000726F100E716F24EC19F0000E0101796F4D
:1003C000000E786F78C184F079C185F053EC1DF090
:1003D000820E0101776FDD0EE82EFED7772FFCD756
:1003E00000F000F0DFC08DF0E0C08EF08E0E000156
:1003F0008F6F030E906F86EC1CF000018D518E11F3
:10040000D8B405EF02F007EF02F009EF02F01AEF9F
:1004100002F00101784B792B79BF18EF02F0795186
:1004200009E1650E785DD8A018EF02F01AEF02F02E
:10043000E2EF01F0010E01016F6F030E706F000E0D
:10044000726F100E716F24EC19F0000E0001856FB1
:10045000000E846F53EC1DF0000E0101796F000E49
:10046000786F78C184F079C185F014EC1DF0820EAC
:100470000101776FDD0EE82EFED7772FFCD700F055
:1004800000F0DFC08DF0E0C08EF08E0E00018F6FA7
:10049000030E906F86EC1CF000018D518E11D8B4C4
:1004A00054EF02F056EF02F058EF02F069EF02F05D
:1004B0000101784B792B79BF67EF02F0795109E19F
:1004C000650E785DD8A067EF02F069EF02F031EFBA
:1004D00002F0000E0001856F000E846F14EC1DF019
:1004E000000E0101796F000E786F78C184F079C138
:1004F00085F03EEC1DF0820E0101776FDD0EE82ED7
:10050000FED7772FFCD700F000F0DFC08DF0E0C001
:100510008EF08E0E00018F6F030E906F86EC1CF034
:1005200000018D518E11D8B498EF02F09AEF02F0CD
:100530009CEF02F0ADEF02F00101784B792B79BF0F
:10054000ABEF02F0795109E1650E785DD8A0ABEF11
:1005500002F0ADEF02F075EF02F0000E0001856FC2
:10056000000E846F3EEC1DF0000E0101796F000E4D
:10057000786F78C184F079C185F03EEC1DF0820E71
:100580000101776FDD0EE82EFED7772FFCD700F044
:1005900000F0DFC08DF0E0C08EF08E0E00018F6F96
:1005A000030E906F86EC1CF000018D518E11D8B4B3
:1005B000DCEF02F0DEEF02F0E0EF02F0F1EF02F02C
:1005C0000101784B792B79BFEFEF02F0795109E106
:1005D000650E785DD8A0EFEF02F0F1EF02F0B9EF11
:1005E00002F0000E0001856F000E846F29EC1DF0F3
:1005F000000E0101796F000E786F78C184F079C127
:1006000085F053EC1DF078C184F079C185F03EECA3
:100610001DF0820E0101776FDD0EE82EFED7772FD9
:10062000FCD700F000F0DFC08DF0E0C08EF08E0E41
:1006300000018F6F030E906F86EC1CF000018D514E
:100640008E11D8B426EF03F028EF03F02AEF03F061
:100650003BEF03F00101784B792B79BF39EF03F0C1
:10066000795109E1650E785DD8A039EF03F03BEFD1
:1006700003F0FDEF02F0000E0001856F000E846FA5
:1006800053EC1DF0000E0001856F000E846F3EECF0
:100690001DF0000E0101796F000E786F78C184F0B3
:1006A00079C185F053EC1DF078C184F079C185F0F3
:1006B00029EC1DF0820E0101776FDD0EE82EFED7CA
:1006C000772FFCD700F000F0DFC08DF0E0C08EF097
:1006D0008E0E00018F6F030E906F86EC1CF00001F0
:1006E0008D518E11D8B477EF03F079EF03F07BEFE3
:1006F00003F08CEF03F00101784B792B79BF8AEF7F
:1007000003F0795109E1650E785DD8A08AEF03F016
:100710008CEF03F04EEF03F0000E0001856F000E2A
:10072000846F53EC1DF0000E0001856F000E846F86
:1007300029EC1DF0000E0101796F000E786F78C171
:1007400084F079C185F014EC1DF078C184F079C192
:1007500085F03EEC1DF0820E0101776FDD0EE82E74
:10076000FED7772FFCD700F000F0DFC08DF0E0C09F
:100770008EF08E0E00018F6F030E906F86EC1CF0D2
:1007800000018D518E11D8B4C8EF03F0CAEF03F009
:10079000CCEF03F0DDEF03F00101784B792B79BF4B
:1007A000DBEF03F0795109E1650E785DD8A0DBEF4E
:1007B00003F0DDEF03F09FEF03F0000E0001856F03
:1007C000000E846F14EC1DF0000E0001856F000E0A
:1007D000846F3EEC1DF0000E0101796F000E786F02
:1007E00078C184F079C185F014EC1DF078C184F0F3
:1007F00079C185F029EC1DF0820E0101776FDD0EC5
:10080000E82EFED7772FFCD700F000F0DFC08DF088
:10081000E0C08EF08E0E00018F6F030E906F86EC9D
:100820001CF000018D518E11D8B419EF04F01BEFAC
:1008300004F01DEF04F02EEF04F00101784B792B4A
:1008400079BF2CEF04F0795109E1650E785DD8A0ED
:100850002CEF04F02EEF04F0F0EF03F0000E000197
:10086000856F000E846F14EC1DF0000E0001856F83
:10087000000E846F29EC1DF012002B50800B346E9B
:100880002B502B24366E2AAE48EF04F04AEF04F0CA
:100890004BEF04F036803650D8B451EF04F053EFEC
:1008A00004F068EF04F03628D8A459EF04F05BEFA9
:1008B00004F063EF04F0000E286E000E296E000EA7
:1008C0002A6E000E2B6E2A8E000E2B6E70EF04F037
:1008D000000E286E000E296E000E2A6E000E2B6E82
:1008E0002F50800B356E34503518D8B47AEF04F0A1
:1008F0007CEF04F07DEF04F0348C2F502F24356E04
:100900002EAE85EF04F087EF04F088EF04F0358019
:100910003550D8B48EEF04F090EF04F0A5EF04F05A
:100920003528D8A496EF04F098EF04F0A0EF04F077
:10093000000E2C6E000E2D6E000E2E6E000E2F6E11
:100940002E8E000E2F6EADEF04F0000E2C6E000EFA
:100950002D6E000E2E6E000E2F6E3650355CD8B008
:10096000B4EF04F0B6EF04F0DDEF04F034ACBBEF0D
:1009700004F0BDEF04F0BFEF04F0800E341A36C06F
:1009800037F035C036F037C035F028C037F02CC00E
:1009900028F037C02CF029C037F02DC029F037C01F
:1009A0002DF02AC037F02EC02AF037C02EF02BC011
:1009B00037F02FC02BF037C02FF0000E376E3650B7
:1009C00035C030F0316A305E000E315A31BEF2EF80
:1009D00004F0315009E11A0E305CD8A0F2EF04F0B7
:1009E000F4EF04F02BEF05F0285029102A102B10FB
:1009F000D8A4FDEF04F000EF05F0010E01EF05F0C3
:100A0000000E376E000E286E000E296E000E2A6E44
:100A1000000E2B6E35C036F034EF05F037A013EF23
:100A200005F015EF05F01BEF05F0D8903730010900
:100A3000376E1DEF05F0D890373228A022EF05F071
:100A400024EF05F025EF05F0378E2B342B322A32B8
:100A500029322832362A3550365CD8A032EF05F0DC
:100A600034EF05F00EEF05F034BC39EF05F03BEF45
:100A700005F07BEF05F03650D8A441EF05F043EFC9
:100A800005F04DEF05F0000E286E000E296E000EE9
:100A90002A6E000E2B6E9CEF06F02C5028262D504F
:100AA00029222E502A222F502B222BA05AEF05F05C
:100AB0005CEF05F008EF06F037A061EF05F063EF9B
:100AC00005F069EF05F0D89037300109376E6BEF0C
:100AD00005F0D890373228A070EF05F072EF05F0DE
:100AE00073EF05F0378E2B342B322A32293228321D
:100AF000362A08EF06F02C50285C2D5029582E502D
:100B00002A582B50800A306E2F50800A3058D8B0A7
:100B10008CEF05F08EEF05F0B9EF05F028502C5C56
:100B2000306E29502D58316E2A502E58326E2B506F
:100B30002F58336EFF0E3024286EFF0E3120296EA1
:100B4000FF0E32202A6EFF0E33202B6E800E341AD9
:100B5000376C3750D8A4AFEF05F0B1EF05F0C1EF17
:100B600005F0010E2826000E29222A222B22C1EF91
:100B700005F02C50285E2D50295A2E502A5A2F50FD
:100B80002B5A285029102A102B10D8A4CAEF05F090
:100B9000CCEF05F001EF06F03750D8A4D2EF05F006
:100BA000D4EF05F001EF06F0000E286E000E296E5E
:100BB000000E2A6E000E2B6E9CEF06F0D8902836A1
:100BC00029362A362B3637AEE8EF05F0EAEF05F086
:100BD000EBEF05F0288037A0F0EF05F0F2EF05F01D
:100BE000F6EF05F0D8803736F8EF05F0D8903736B5
:100BF0003650D8B4FEEF05F000EF06F001EF06F036
:100C000036062AAE06EF06F008EF06F0DEEF05F036
:100C1000000E356E37AE0FEF06F011EF06F029EF3C
:100C200006F037C030F07F0E3016D8B41AEF06F059
:100C30001CEF06F020EF06F0010E356E29EF06F0EE
:100C400028A025EF06F027EF06F029EF06F01CEFAD
:100C500006F03550D8B42FEF06F031EF06F05CEF18
:100C600006F0010E2826000E29222A222B222BA074
:100C70003CEF06F03EEF06F05CEF06F028C030F0E7
:100C800029C031F02AC032F02BC033F03334333274
:100C900032323132303230C028F031C029F032C027
:100CA0002AF033C02BF03628D8B459EF06F05BEFAA
:100CB00006F05CEF06F0362A3628D8B462EF06F06C
:100CC00064EF06F06CEF06F03650D8A46AEF06F039
:100CD0006CEF06F07EEF06F0000E286E000E296E17
:100CE000000E2A6E000E2B6E3650D8A47AEF06F056
:100CF0007CEF06F07EEF06F0000E346E36A083EF38
:100D000006F085EF06F088EF06F02A8E89EF06F0F0
:100D10002A9ED89036302B6E34AE91EF06F093EFCA
:100D200006F094EF06F02B8E28C028F029C029F099
:100D30002AC02AF02BC02BF0120000018F51800B2B
:100D4000986F8F518F259E6F8EAFA9EF06F0ABEF96
:100D500006F0ACEF06F09E819E51D8B4B2EF06F0DB
:100D6000B4EF06F0C7EF06F09E29D8A4BAEF06F05C
:100D7000BCEF06F0C4EF06F0000E8C6F000E8D6F16
:100D8000000E8E6F000E8F6F8E8FCFEF06F0000E6D
:100D90008C6F000E8D6F000E8E6F000E8F6F935153
:100DA000800B981B935193259D6F92AFDAEF06F05D
:100DB000DCEF06F0DDEF06F09D819D51D8B4E3EF46
:100DC00006F0E5EF06F0F8EF06F09D29D8A4EBEF6A
:100DD00006F0EDEF06F0F5EF06F0000E906F000E56
:100DE000916F000E926F000E936F928F00EF07F0DD
:100DF000000E906F000E916F000E926F000E936FB9
:100E00009D51D8B406EF07F008EF07F010EF07F098
:100E10009E51D8A40EEF07F010EF07F01AEF07F07D
:100E2000000E8C6F000E8D6F000E8E6F000E8F6F98
:100E3000B2EF08F092518C03F3CFA3F0F4CFA4F0FB
:100E4000A351996F9A6B9B6B9C6BA4519F6FA06B86
:100E5000A16BA26B91518D03F3CFA3F0F4CFA4F05B
:100E6000A3519927000E9A239B239C23A4519F27CB
:100E7000000EA023A123A22390518E03F3CFA3F051
:100E8000F4CFA4F0A3519927000E9A239B239C230F
:100E9000A4519F27000EA023A123A2239BC09CF056
:100EA0009AC09BF099C09AF0996B90518D03F3CF43
:100EB000A3F0F4CFA4F0A3519927A4519A23000ED4
:100EC0009B23000E9C2391518C03F3CFA3F0F4CF0E
:100ED000A4F0A3519927A4519A23000E9B23000E3E
:100EE0009C239BC09CF09AC09BF099C09AF0996B90
:100EF00090518C03F3CFA3F0F4CFA4F0A351992722
:100F0000A4519A23000E9B23000E9C2392518D0323
:100F1000F3CFA3F0F4CFA4F0A3519F27A451A023B3
:100F2000000EA123000EA22391518E03F3CFA3F054
:100F3000F4CFA4F0A3519F27A451A023000EA12316
:100F4000000EA22392518E03F3CFA3F0F4CFA4F0AE
:100F5000A351946FA451956F966B976B96C097F0C1
:100F600095C096F094C095F0946B94519F2795513D
:100F7000A0239651A1239751A22399C094F09AC01F
:100F800095F09BC096F09CC097F0190ECDEF07F03E
:100F9000D8909733963395339433E82EC8EF07F003
:100FA00094519F279551A0239651A1239751A22395
:100FB0009BC09CF09AC09BF099C09AF0996B9D5190
:100FC0009EC094F0956B9427000E9523820E942575
:100FD000A36FFF0E9521A46F03EF08F0D8909F3701
:100FE000A037A137A2379CAFF8EF07F0FAEF07F070
:100FF000FBEF07F09F81D89099379A379B379C3742
:10100000A307D8A0A407A1AF08EF08F00AEF08F0E3
:10101000EEEF07F0000E9D6F9CAF11EF08F013EF9D
:1010200008F037EF08F0FF0E9915946FFF0E9A1530
:10103000956FFF0E9B15966F7F0E9C15976F9451C1
:10104000951196119711D8B428EF08F02AEF08F0FF
:101050002EEF08F0010E9D6F37EF08F09FA133EFE0
:1010600008F035EF08F037EF08F02AEF08F09D514F
:10107000D8B43DEF08F03FEF08F063EF08F0010E41
:101080009F27000EA023A123A223A2A14AEF08F0CC
:101090004CEF08F063EF08F09FC094F0A0C095F00B
:1010A000A1C096F0A2C097F0973597339633953349
:1010B000943394C09FF095C0A0F096C0A1F097C063
:1010C000A2F0A34BA42BA4BF6EEF08F0A45108E13B
:1010D000A329D8A06EEF08F070EF08F07AEF08F0BF
:1010E000000E9F6F000EA06F800EA16F7F0EA26F8B
:1010F000A8EF08F0A4BF87EF08F0A45106E1A3050C
:10110000D8B085EF08F087EF08F093EF08F0000EF5
:101110009F6F000EA06F000EA16F000EA26F000E59
:10112000986FA8EF08F0A3C09EF0FF0E9F17FF0E68
:10113000A0177F0EA117000EA2179EA1A2EF08F024
:10114000A4EF08F0A5EF08F0A18FD8909E31A26F10
:101150009851A2139FC08CF0A0C08DF0A1C08EF05A
:10116000A2C08FF012001250800B1B6E125012247E
:10117000216E11AEBEEF08F0C0EF08F0C1EF08F02D
:1011800021802150D8B4C7EF08F0C9EF08F0DCEF98
:1011900008F02128D8A4CFEF08F0D1EF08F0D9EF5C
:1011A00008F0000E0F6E000E106E000E116E000E95
:1011B000126E118EE4EF08F0000E0F6E000E106E2E
:1011C000000E116E000E126E1650800B1B1A165078
:1011D0001624206E15AEEFEF08F0F1EF08F0F2EFF5
:1011E00008F020802050D8B4F8EF08F0FAEF08F0AB
:1011F0000DEF09F02028D8A400EF09F002EF09F064
:101200000AEF09F0000E136E000E146E000E156E3C
:10121000000E166E158E15EF09F0000E136E000EFF
:10122000146E000E156E000E166E2050D8B41BEF13
:1012300009F01DEF09F025EF09F02150D8A423EFA4
:1012400009F025EF09F02FEF09F0000E0F6E000EE8
:10125000106E000E116E000E126EC7EF0AF01550E0
:101260000F02F3CF26F0F4CF27F026501C6E1D6A34
:101270001E6A1F6A2750226E236A246A256A145048
:101280001002F3CF26F0F4CF27F026501C26000ED4
:101290001D221E221F2227502226000E2322242236
:1012A000252213501102F3CF26F0F4CF27F0265059
:1012B0001C26000E1D221E221F2227502226000E51
:1012C0002322242225221EC01FF01DC01EF01CC098
:1012D0001DF01C6A13501002F3CF26F0F4CF27F054
:1012E00026501C2627501D22000E1E22000E1F22F3
:1012F00014500F02F3CF26F0F4CF27F026501C260F
:1013000027501D22000E1E22000E1F221EC01FF09D
:101310001DC01EF01CC01DF01C6A13500F02F3CF3D
:1013200026F0F4CF27F026501C2627501D22000E51
:101330001E22000E1F2215501002F3CF26F0F4CF0C
:1013400027F02650222627502322000E2422000EAA
:10135000252214501102F3CF26F0F4CF27F02650A7
:10136000222627502322000E2422000E252215506B
:101370001102F3CF26F0F4CF27F02650176E275036
:10138000186E196A1A6A19C01AF018C019F017C035
:1013900018F0176A175022261850232219502422B9
:1013A0001A5025221CC017F01DC018F01EC019F0DD
:1013B0001FC01AF0190EE2EF09F0D8901A32193254
:1013C00018321732E82EDDEF09F017502226185098
:1013D0002322195024221A5025221EC01FF01DC09E
:1013E0001EF01CC01DF01C6A205021C017F0186AA6
:1013F0001726000E1822820E1724266EFF0E1820C4
:10140000276E18EF0AF0D890223623362436253678
:101410001FAE0DEF0AF00FEF0AF010EF0AF0228076
:10142000D8901C361D361E361F362606D8A0270635
:1014300024AE1DEF0AF01FEF0AF003EF0AF0000ED2
:10144000206E1FAE26EF0AF028EF0AF04CEF0AF0EC
:10145000FF0E1C14176EFF0E1D14186EFF0E1E14C7
:10146000196E7F0E1F141A6E1750181019101A10CB
:10147000D8B43DEF0AF03FEF0AF043EF0AF0010E57
:10148000206E4CEF0AF022A048EF0AF04AEF0AF073
:101490004CEF0AF03FEF0AF02050D8B452EF0AF0B8
:1014A00054EF0AF078EF0AF0010E2226000E2322F4
:1014B0002422252225A05FEF0AF061EF0AF078EFE1
:1014C0000AF022C017F023C018F024C019F025C07C
:1014D0001AF01A341A3219321832173217C022F0A1
:1014E00018C023F019C024F01AC025F0264A272A74
:1014F00027BE83EF0AF0275008E12628D8A083EF03
:101500000AF085EF0AF08FEF0AF0000E226E000E4F
:10151000236E800E246E7F0E256EBDEF0AF027BE6F
:101520009CEF0AF0275006E12604D8B09AEF0AF0A3
:101530009CEF0AF0A8EF0AF0000E226E000E236E58
:10154000000E246E000E256E000E1B6EBDEF0AF01D
:1015500026C021F0FF0E2216FF0E23167F0E241642
:10156000000E251621A0B7EF0AF0B9EF0AF0BAEF86
:101570000AF0248ED8902130256E1B50251222C0EF
:101580000FF023C010F024C011F025C012F012009B
:101590004350800B506E43504324576E42AED3EFFE
:1015A0000AF0D5EF0AF0D6EF0AF057805750D8B4BA
:1015B000DCEF0AF0DEEF0AF0F3EF0AF05728D8A4C8
:1015C000E4EF0AF0E6EF0AF0EEEF0AF0000E406EEC
:1015D000000E416E000E426E000E436E428E000EF3
:1015E000436EFBEF0AF0000E406E000E416E000EDF
:1015F000426E000E436E4750800B501A47504724EE
:10160000586E46AE06EF0BF008EF0BF009EF0BF04B
:1016100058805850D8B40FEF0BF011EF0BF026EFB5
:101620000BF05828D8A417EF0BF019EF0BF021EFAF
:101630000BF0000E446E000E456E000E466E000E5E
:10164000476E468E000E476E2EEF0BF0000E446E76
:10165000000E456E000E466E000E476E445045105B
:1016600046104710D8A437EF0BF039EF0BF051EFCD
:101670000BF0000E406E000E416E000E426E000E2A
:10168000436E800E42127F0E43125050431240C0F0
:1016900040F041C041F042C042F043C043F094EFFB
:1016A0000CF05750D8A457EF0BF059EF0BF063EF45
:1016B0000BF0000E406E000E416E000E426E000EEA
:1016C000436E94EF0CF0585057C048F0496A485E9A
:1016D000000E495A7F0E4824516E000E4920526E6A
:1016E00040C04CF041C04DF042C04EF043C04FF0FE
:1016F000000E406E000E416E000E426E000E436EF4
:10170000000E536E000E546E000E556E000E566E97
:10171000000E586EC4EF0BF05850D8B492EF0BF097
:1017200094EF0BF0ABEF0BF0D8904C364D364E36B5
:101730004F36D890403641364236433656AEA3EF48
:101740000BF0A5EF0BF0A6EF0BF04080D8905336CE
:1017500054365536563644504C5C45504D584650DC
:101760004E5847504F58D8A0B8EF0BF0BAEF0BF0D7
:10177000C3EF0BF0568C44504C5E45504D5A4650CA
:101780004E5A47504F5A582A190E5864CAEF0BF058
:10179000CCEF0BF08CEF0BF04C504D104E104F1067
:1017A000D8B4D5EF0BF0D7EF0BF0EFEF0BF0538081
:1017B000EFEF0BF0D890403641364236433656AE06
:1017C000E4EF0BF0E6EF0BF0E7EF0BF04080D89082
:1017D00053365436553656365106D8A0520642AEC8
:1017E000F4EF0BF0F6EF0BF0DAEF0BF0000E586EA3
:1017F00056AEFDEF0BF0FFEF0BF023EF0CF0FF0EFA
:101800005314486EFF0E5414496EFF0E55144A6E61
:101810007F0E56144B6E485049104A104B10D8B4E6
:1018200014EF0CF016EF0CF01AEF0CF0010E586EDE
:1018300023EF0CF040A01FEF0CF021EF0CF023EF92
:101840000CF016EF0CF05850D8B429EF0CF02BEF39
:101850000CF04FEF0CF0010E4026000E4122422208
:10186000432243A036EF0CF038EF0CF04FEF0CF0B2
:1018700040C048F041C049F042C04AF043C04BF07C
:101880004B344B324A324932483248C040F049C0AA
:1018900041F04AC042F04BC043F0514A522A52BE76
:1018A0005AEF0CF0525008E15128D8A05AEF0CF032
:1018B0005CEF0CF067EF0CF0000E526E5168000EFA
:1018C000406E000E416E000E426E000E436E52BE20
:1018D00074EF0CF0525006E15104D8B072EF0CF0E6
:1018E00074EF0CF082EF0CF0000E526E000E516E91
:1018F000000E406E000E416E000E426E000E436EF2
:10190000000E506E51C057F057A089EF0CF08BEFCE
:101910000CF08EEF0CF0428E8FEF0CF0429ED890C0
:101920005730436E45EF0BF01200590E01016F6FF7
:10193000030E706F000E726F100E716F24EC19F0B1
:10194000000E0001AE6F000EAD6F15EC14F0ADC0CF
:10195000B3F0AEC0B4F0EDEC19F0B3C06FF1B4C0A9
:1019600070F1000E0101726F100E716F24EC19F00E
:101970009C0E01016F6F030E706F000E726F100EE0
:10198000716F24EC19F05F0E01016F6F030E706F21
:10199000000E726F100E716F24EC19F0000E000132
:1019A000AE6F010EAD6F15EC14F0ADC0B3F0AEC06C
:1019B000B4F0EDEC19F0B3C06FF1B4C070F1000EEB
:1019C0000101726F100E716F24EC19F09C0E010171
:1019D0006F6F030E706F000E726F100E716F24EC3C
:1019E00019F0650E01016F6F030E706F000E726FBC
:1019F000100E716F24EC19F0000E0001AE6F020E94
:101A0000AD6F15EC14F0ADC0B3F0AEC0B4F0EDECBA
:101A100019F0B3C06FF1B4C070F1000E0101726F24
:101A2000100E716F24EC19F09C0E01016F6F030E04
:101A3000706F000E726F100E716F24EC19F06B0E48
:101A400001016F6F030E706F000E726F100E716FD9
:101A500024EC19F0000E0001AE6F030EAD6F15EC13
:101A600014F0ADC0B3F0AEC0B4F0EDEC19F0B3C0FB
:101A70006FF1B4C070F1000E0101726F100E716F42
:101A800024EC19F09C0E01016F6F030E706F000EB5
:101A9000726F100E716F24EC19F0710E01016F6FEF
:101AA000030E706F000E726F100E716F24EC19F040
:101AB000000E0001AE6F040EAD6F15EC14F0ADC05A
:101AC000B3F0AEC0B4F0EDEC19F0B3C06FF1B4C038
:101AD00070F1000E0101726F100E716F24EC19F09D
:101AE0009C0E01016F6F030E706F000E726F100E6F
:101AF000716F24EC19F0770E01016F6F030E706F98
:101B0000000E726F100E716F24EC19F0000E0001C0
:101B1000AE6F050EAD6F15EC14F0ADC0B3F0AEC0F6
:101B2000B4F0EDEC19F0B3C06FF1B4C070F1000E79
:101B30000101726F100E716F24EC19F09C0E0101FF
:101B40006F6F030E706F000E726F100E716F24ECCA
:101B500019F07D0E01016F6F030E706F000E726F32
:101B6000100E716F24EC19F0000E0001AE6F060E1E
:101B7000AD6F15EC14F0ADC0B3F0AEC0B4F0EDEC49
:101B800019F0B3C06FF1B4C070F1000E0101726FB3
:101B9000100E716F24EC19F09C0E01016F6F030E93
:101BA000706F000E726F100E716F24EC19F0830EBF
:101BB00001016F6F030E706F000E726F100E716F68
:101BC00024EC19F0000E0001AE6F070EAD6F15EC9E
:101BD00014F0ADC0B3F0AEC0B4F0EDEC19F0B3C08A
:101BE0006FF1B4C070F1000E0101726F100E716FD1
:101BF00024EC19F09C0E01016F6F030E706F000E44
:101C0000726F100E716F24EC19F0390E01016F6FB5
:101C1000030E706F000E726F100E716F24EC19F0CE
:101C20009C0E01016F6F030E706F000E726F100E2D
:101C3000716F24EC19F00D0E0101786FAF0E776F04
:101C4000B60EE82EFED7772FFCD7782FFAD700F004
:101C5000120073EC13F044EC11F059C0C5F05AC0F7
:101C6000C6F05BC0C7F05CC0C8F0C5C0C9F0C6C054
:101C7000CAF0C7C0CBF0C8C0CCF0D9C038F0DAC0C9
:101C800039F0DBC03AF0DCC03BF0C5C03CF0C6C068
:101C90003DF0C7C03EF0C8C03FF0D2EC1CF038C0E9
:101CA000C1F039C0C2F03AC0C3F03BC0C4F0C1C0FB
:101CB00038F0C2C039F0C3C03AF0C4C03BF042C1F2
:101CC0003CF043C13DF044C13EF045C13FF0D2EC91
:101CD0001CF038C04AF139C04BF13AC04CF13BC05E
:101CE0004DF1C1C042F1C2C043F1C3C044F1C4C010
:101CF00045F146C13CF047C13DF048C13EF049C105
:101D00003FF0CDC001F0CEC002F0CFC003F0D0C094
:101D100004F0000E6AEC10F001C038F002C039F097
:101D200003C03AF004C03BF0D2EC1CF038C040F0E5
:101D300039C041F03AC042F03BC043F0000E446E5F
:101D4000000E456E7A0E466E440E476EC8EC0AF0E1
:101D500040C0B5F041C0B6F042C0B7F043C0B8F0E3
:101D6000CDC001F0CEC002F0CFC003F0D0C004F06F
:101D7000000E6AEC10F001C046F102C047F103C04A
:101D800048F104C049F156C10FF057C110F058C1D5
:101D900011F059C112F0C1C013F0C2C014F0C3C099
:101DA00015F0C4C016F0B3EC08F00FC0BDF010C0C1
:101DB000BEF011C0BFF012C0C0F0C1C013F0C2C06D
:101DC00014F0C3C015F0C4C016F052C10FF053C1D7
:101DD00010F054C111F055C112F0B3EC08F00FC06F
:101DE00072F010C073F011C074F012C075F0B5C07D
:101DF00013F0B6C014F0B7C015F0B8C016F072C03A
:101E00000FF073C010F074C011F075C012F0B3EC95
:101E100008F00FC028F010C029F011C02AF012C03D
:101E20002BF0B9C02CF0BAC02DF0BBC02EF0BCC056
:101E30002FF03DEC04F028C0B9F029C0BAF02AC058
:101E4000BBF02BC0BCF04AC113F04BC114F04CC125
:101E500015F04DC116F04EC10FF04FC110F050C13A
:101E600011F051C112F0B3EC08F00FC040F010C0F7
:101E700041F011C042F012C043F0B5C044F0B6C00A
:101E800045F0B7C046F0B8C047F0C8EC0AF040C013
:101E90005EF141C05FF142C060F143C061F1B9C081
:101EA0002CF0BAC02DF0BBC02EF0BCC02FF0BDC0CE
:101EB00028F0BEC029F0BFC02AF0C0C02BF03DEC16
:101EC00004F028C06EF029C06FF02AC070F02BC05B
:101ED00071F06EC038F06FC039F070C03AF071C068
:101EE0003BF05EC13CF05FC13DF060C13EF061C1BE
:101EF0003FF0D2EC1CF038C05AF139C05BF13AC067
:101F00005CF13BC05DF15AC14DF05BC14EF05CC16C
:101F10004FF05DC150F02FEC15F012000001866FFC
:101F200000018651D8B497EF0FF099EF0FF0BBEF97
:101F30000FF081BFA0EF0FF09EEF0FF0BBEF0FF09F
:101F40007EC082F07FC083F080C084F081C085F0C5
:101F5000821F831F841F851F822B000E83238423EF
:101F6000852382C088F083C089F084C08AF085C050
:101F70008BF0C3EF0FF07EC088F07FC089F080C087
:101F80008AF081C08BF07E517F1180118111D8A41D
:101F9000CCEF0FF0CEEF0FF0D8EF0FF0000E7E6F0A
:101FA000000E7F6F000E806F000E816F69EF10F0E2
:101FB000960E876FE2EF0FF0872BD8908B338A3322
:101FC00089338833000E8815826F000E8915836F60
:101FD000000E8A15846FFE0E8B15856F825183115A
:101FE00084118511D8A4F7EF0FF0F9EF0FF0DCEFB3
:101FF0000FF007EF10F0872B010E8827000E8923C2
:102000008A238B23D8908B338A3389338833000E0D
:102010008815826F000E8915836F000E8A15846FF4
:10202000FF0E8B15856F8251831184118511D8A401
:102030001CEF10F01EEF10F0FBEF0FF026EF10F08A
:102040008707D890883789378A378B378ABF2BEF35
:1020500010F02DEF10F035EF10F0020E876133EF26
:1020600010F035EF10F020EF10F087B13AEF10F0DC
:102070003CEF10F03DEF10F08A9FD890873387C077
:1020800082F0836B846B856B82C085F0846B836B7D
:10209000826B825188138351891384518A1385512D
:1020A0008B138651D8B457EF10F059EF10F061EF51
:1020B00010F081BF60EF10F05EEF10F061EF10F0F4
:1020C0008B8F88C07EF089C07FF08AC080F08BC083
:1020D00081F01200096E0950D8B471EF10F073EF5F
:1020E00010F095EF10F004BE7AEF10F078EF10F0DA
:1020F00095EF10F001C005F002C006F003C007F034
:1021000004C008F0051E061E071E081E052A000E44
:1021100006220722082205C00BF006C00CF007C0FB
:102120000DF008C00EF09DEF10F001C00BF002C0E2
:102130000CF003C00DF004C00EF0015002100310AB
:102140000410D8A4A6EF10F0A8EF10F0B2EF10F032
:10215000000E016E000E026E000E036E000E046E85
:1021600043EF11F0960E0A6EBCEF10F00A2AD890D9
:102170000E320D320C320B32000E0B14056E000EB7
:102180000C14066E000E0D14076EFE0E0E14086E73
:102190000550061007100810D8A4D1EF10F0D3EFA7
:1021A00010F0B6EF10F0E1EF10F00A2A010E0B2646
:1021B000000E0C220D220E22D8900E320D320C325F
:1021C0000B32000E0B14056E000E0C14066E000E82
:1021D0000D14076EFF0E0E14086E05500610071042
:1021E0000810D8A4F6EF10F0F8EF10F0D5EF10F0CB
:1021F00000EF11F00A06D8900B360C360D360E366D
:102200000DBE05EF11F007EF11F00FEF11F0020E08
:102210000A600DEF11F00FEF11F0FAEF10F00AB0B5
:1022200014EF11F016EF11F017EF11F00D9ED8908A
:102230000A320AC005F0066A076A086A05C008F093
:10224000076A066A056A05500B1206500C12075001
:102250000D1208500E120950D8B431EF11F033EFBF
:1022600011F03BEF11F004BE3AEF11F038EF11F02E
:102270003BEF11F00E8E0BC001F00CC002F00DC050
:1022800003F00EC004F01200000E0001646F000E97
:10229000656F000E666F000E676F000E686F000EB0
:1022A000696F000E6A6F000E6B6F000E6D6F010E8E
:1022B0006C6F000E5D6E010E5E6ED8906C35D96E3F
:1022C0006D35DA6ED890D936DA365D50D9265E5043
:1022D000DA22DECF01F0DECF02F0DECF03F0DECF78
:1022E00004F0000E056E000E066E800E076E3F0EA7
:1022F000086E52EC1BF0D8A080EF11F082EF11F0C5
:10230000B6EF11F064C028F065C029F066C02AF06D
:1023100067C02BF0000E2C6E000E2D6E800E2E6E00
:102320003F0E2F6E3DEC04F028C064F029C065F02C
:102330002AC066F02BC067F068C028F069C029F099
:102340006AC02AF06BC02BF0000E2C6E000E2D6EB2
:10235000800E2E6E3F0E2F6E3DEC04F028C068F00C
:1023600029C069F02AC06AF02BC06BF000016C4BE9
:102370006D2B6DBFC5EF11F06D5109E1060E6C5D5F
:10238000D8A0C5EF11F0C7EF11F059EF11F068C0F8
:1023900001F069C002F06AC003F06BC004F0000EE7
:1023A000056E000E066E000E076E000E086E52ECF3
:1023B0001BF0D8B0DEEF11F0E0EF11F004EF12F0F7
:1023C00064C040F065C041F066C042F067C043F0B1
:1023D00068C044F069C045F06AC046F06BC047F081
:1023E000C8EC0AF040C060F041C061F042C062F049
:1023F00043C063F060C059F061C05AF062C05BF046
:1024000063C05CF00CEF12F0C9C059F0CAC05AF0BA
:10241000CBC05BF0CCC05CF01200820E01017D6F7E
:10242000DD0EE82EFED77D2FFCD700F000F0B86857
:10243000010EB96E9268000E936E800E946E1C0EA3
:10244000956E070E966E000E816E8268000E836E8A
:10245000000E846EF28EF28CF28A51EC1EF00FECBC
:102460001EF0DBEC1DF0EDEC1DF0000E00017F6FA7
:10247000630E7E6F3BEC1EF09A0E0001DF6F030EC1
:10248000E06F40EC1EF02EEC1EF0DFC08DF0E0C0DF
:102490008EF08E0E00018F6F030E906F86EC1CF095
:1024A00000018D518E11D8B458EF12F05AEF12F08E
:1024B0005EEF12F040EC1EF02EEC1EF0DFC08DF04F
:1024C000E0C08EF02C0E00018F6F030E906F86EC33
:1024D0001CF000018D518E11D8B471EF12F073EF22
:1024E00012F075EF12F0D0EC01F0DFC08DF0E0C01B
:1024F0008EF01E0E00018F6F030E906F86EC1CF0A5
:1025000000018D518E11D8B488EF12F08AEF12F0CD
:102510008CEF12F0D1EC12F0DFC08DF0E0C08EF045
:10252000970E00018F6F030E906F86EC1CF0000178
:102530008D518E11D8B49FEF12F0A1EF12F0A7EFDA
:1025400012F040EC1EF02EEC1EF095EC0CF0DFC00B
:102550008DF0E0C08EF0440E00018F6F030E906F7F
:1025600086EC1CF000018D518E11D8B4BAEF12F038
:10257000BCEF12F041EF12F040EC1EF02EEC1EF01A
:10258000DFC06FF1E0C070F1000E0101726F100E3C
:10259000716F24EC19F0C2EC17F041EF12F059EF13
:1025A00001F0000E0001946F000E936F93C07EF057
:1025B00094C07FF0000E816F010E806F000E836F5C
:1025C000000E826FFBEC1BF000017E31D8B0EBEF08
:1025D00012F0EEEF12F08280EFEF12F0829093C0D3
:1025E0007EF094C07FF0000E0001816F010E806FBD
:1025F000000E836F010E826FFBEC1BF000017E3139
:10260000D8B005EF13F008EF13F0828209EF13F052
:10261000829293C07EF094C07FF0000E0001816F23
:10262000010E806F000E836F020E826FFBEC1BF0B9
:1026300000017E31D8B01FEF13F022EF13F0828437
:1026400023EF13F0829493C07EF094C07FF0000ECD
:102650000001816F010E806F000E836F030E826F89
:10266000FBEC1BF000017E31D8B039EF13F03CEFEA
:1026700013F082863DEF13F08296DFC08DF0E0C04C
:102680008EF08E0E00018F6F030E906F86EC1CF0A3
:1026900000018D518E11D8B450EF13F052EF13F0AA
:1026A00054EF13F072EF13F00D0E0001926FAF0EA6
:1026B000916FB60EE82EFED7912FFCD7922FFAD746
:1026C00000F00001934B942B94BF70EF13F09451E2
:1026D00009E1100E935DD8A070EF13F072EF13F0C4
:1026E000D6EF12F01200000E576E000E566E56C056
:1026F0004AF057C04BF0A5EC14F04AC052F04BC062
:1027000053F0000E53BEFF0E546E556E52C001F0D2
:1027100053C002F054C003F055C004F0010E6AEC3F
:1027200010F01C0E506E010E516ED8905634D96EBA
:102730005734DA6ED890D936DA365050D9265150FF
:10274000DA2201C0DEFF02C0DEFF03C0DEFF04C0EC
:10275000DEFF000E016E800E026E540E036E440EFC
:10276000046E1C0E506E010E516ED8905634D96E08
:102770005734DA6ED890D936DA365050D9265150BF
:10278000DA22DECF05F0DECF06F0DECF07F0DECFB7
:1027900008F040EC17F0D8B0D0EF13F0D2EF13F000
:1027A000ECEF13F0000E506E010E516ED8905634BF
:1027B000D96E5734DA6ED890D936DA365050D926D9
:1027C0005150DA22000EDE6E000EDE6E800EDE6EDE
:1027D0003F0EDD6E04EF14F0000E506E010E516ED0
:1027E000D8905634D96E5734DA6ED890D936DA3656
:1027F0005050D9265150DA22000EDE6E000EDE6EE9
:10280000000EDE6E000EDD6E564A572A57BE12EFDE
:1028100014F0575009E1070E565CD8A012EF14F0DF
:1028200014EF14F077EF13F01200ADC07EF0AEC0DD
:102830007FF0000E0001816F020E806F000E836F2B
:10284000000E826FFBEC1BF000017E477E47C250FA
:102850007E19F30B7E19C26EADC07EF0AEC07FF064
:10286000000E816F010E806F000E836F020E826F6B
:10287000FBEC1BF0995000017E19FE0B7E19996E3E
:10288000ADC07EF0AEC07FF0000E816F010E806F94
:10289000000E836F020E826FFBEC1BF000017E3B8B
:1028A00099507E19EF0B7E19996EADC07EF0AEC0C7
:1028B0007FF0000E816F010E806F000E836F020E9D
:1028C000826FFBEC1BF000017E477E4799507E191A
:1028D000FB0B7E19996EADC07EF0AEC07FF0000E8E
:1028E000816F010E806F000E836F020E826FFBEC12
:1028F0001BF000017E3B7E477E4799507E19BF0B3F
:102900007E19996EC280C282C2B289EF14F08BEF39
:1029100014F084EF14F0FDEC1AF0A5C0AFF0A6C0DF
:10292000B0F0A7C0B1F0A8C0B2F0C290AFC07EF0C6
:10293000B0C07FF0B1C080F0B2C081F0B7EC15F04C
:102940007EC0ADF07FC0AEF012004AC001F04BC0B7
:1029500002F0000E046E020E036E000E066E000EF4
:10296000056E59EC1CF001460146C2500118F30BEC
:102970000118C26E4AC001F04BC002F0000E046E96
:10298000010E036E000E066E020E056E59EC1CF071
:1029900099500118FE0B0118996E4AC001F04BC006
:1029A00002F0000E046E010E036E000E066E020EA3
:1029B000056E59EC1CF0013A99500118EF0B011803
:1029C000996E4AC001F04BC002F0000E046E010E79
:1029D000036E000E066E020E056E59EC1CF00146E9
:1029E000014699500118FB0B0118996E4AC001F07D
:1029F0004BC002F0000E046E010E036E000E066E58
:102A0000020E056E59EC1CF0013A01460146995040
:102A10000118BF0B0118996EC280C282C2B213EFB7
:102A200015F015EF15F00EEF15F0A7EC1BF028C010
:102A30004CF029C04DF02AC04EF02BC04FF0C29090
:102A40004CC040F04DC041F04EC042F04FC043F08A
:102A50003BEC16F040C04AF041C04BF012004DC0B4
:102A600001F04EC002F04FC003F050C004F0000E61
:102A7000056E000E066E000E076E000E086E52EC1C
:102A80001BF0D8A046EF15F048EF15F058EF15F001
:102A9000DDC04AF0DEC04BF0650E2BEC1CF0DDC053
:102AA0004AF0DEC04BF0640E2BEC1CF0B6EF15F0D4
:102AB0004DC02CF04EC02DF04FC02EF050C02FF066
:102AC000DDC001F0DEC002F0000E02BEFF0E036E9C
:102AD000046E010E6AEC10F001C028F002C029F06B
:102AE00003C02AF004C02BF03DEC04F028C040F0F5
:102AF00029C041F02AC042F02BC043F03BEC16F055
:102B000040C04AF041C04BF0650E2BEC1CF04DC0AC
:102B10003CF04EC03DF04FC03EF050C03FF0DDC035
:102B200001F0DEC002F0000E02BEFF0E036E046E66
:102B3000010E6AEC10F001C038F002C039F003C099
:102B40003AF004C03BF0D2EC1CF038C040F039C081
:102B500041F03AC042F03BC043F03BEC16F040C0BD
:102B60004AF041C04BF0640E2BEC1CF01200000147
:102B700080358135876F8751D8A4C1EF15F0C3EF39
:102B800015F0CDEF15F0000E7E6F000E7F6F000E7A
:102B9000806F000E816F3AEF16F07EC082F07FC02A
:102BA00083F080C084F081C085F0200EDDEF15F049
:102BB000D8908533843383338233E82ED8EF15F0F1
:102BC0008251866F808FFF0E7E17FF0E7F17FF0EDC
:102BD0008017000E8117960E875F87BFF4EF15F000
:102BE000F2EF15F00AEF16F08751800A970FD8B070
:102BF000FCEF15F0FEEF15F000EF16F0C3EF15F047
:102C0000D890813380337F337E33873F00EF16F0D7
:102C100022EF16F01F0E876510EF16F012EF16F078
:102C20001AEF16F0C3EF15F0D8907E377F37803754
:102C3000813787078751D8A420EF16F022EF16F0CE
:102C400014EF16F08651D8B428EF16F02AEF16F0DC
:102C500032EF16F0811F801F7F1F7E6D000E7F23D5
:102C6000802381237EC07EF07FC07FF080C080F013
:102C700081C081F0120042344334496E4950D8A4D7
:102C800044EF16F046EF16F050EF16F0000E406ECF
:102C9000000E416E000E426E000E436EBDEF16F048
:102CA00040C044F041C045F042C046F043C047F048
:102CB000200E60EF16F0D89047324632453244324B
:102CC000E82E5BEF16F04450486E428EFF0E401621
:102CD000FF0E4116FF0E4216000E4316960E495E79
:102CE00049BE77EF16F075EF16F08DEF16F04950EC
:102CF000800A970FD8B07FEF16F081EF16F083EFC0
:102D000016F046EF16F0D89043324232413240324C
:102D1000493E83EF16F0A5EF16F01F0E496493EFBE
:102D200016F095EF16F09DEF16F046EF16F0D890DE
:102D3000403641364236433649064950D8A4A3EFBF
:102D400016F0A5EF16F097EF16F04850D8B4ABEF99
:102D500016F0ADEF16F0B5EF16F0431E421E411E01
:102D6000406C000E41224222432240C040F041C04C
:102D700041F042C042F043C043F012008CC07EF0EC
:102D80008DC07FF0000E0001816F020E806F000E7B
:102D9000836F000E826FFBEC1BF000017E477E47C5
:102DA000C2507E19F30B7E19C26E8CC07EF08DC0AE
:102DB0007FF0000E816F010E806F000E836F020E98
:102DC000826FFBEC1BF0995000017E19FE0B7E19FF
:102DD000996E8CC07EF08DC07FF0000E816F010E69
:102DE000806F000E836F020E826FFBEC1BF0000100
:102DF0007E3B99507E19EF0B7E19996E8CC07EF048
:102E00008DC07FF0000E816F010E806F000E836F0A
:102E1000020E826FFBEC1BF000017E477E4799504B
:102E20007E19FB0B7E19996E8CC07EF08DC07FF0F1
:102E3000000E816F010E806F000E836F020E826F95
:102E4000FBEC1BF000017E3B7E477E4799507E19CC
:102E5000BF0B7E19996EC280C282C2B232EF17F0E8
:102E600034EF17F02DEF17F0FFEC1DF07EC08EF061
:102E70007FC08FF0C2908EC08CF08FC08DF012009A
:102E8000000E0114096E000E02140A6E800E031467
:102E90000B6E7F0E04140C6E09500A100B100C10F0
:102EA000D8A455EF17F057EF17F05FEF17F0000EAB
:102EB000016E000E026E000E036E000E046E000E18
:102EC0000514096E000E06140A6E800E07140B6EB0
:102ED0007F0E08140C6E09500A100B100C10D8A4A9
:102EE00074EF17F076EF17F07EEF17F0000E056E17
:102EF000000E066E000E076E000E086E04AE83EF25
:102F000017F085EF17F08EEF17F0016C021ED8B0A6
:102F1000022A031ED8B0032A800E045608AE93EF8F
:102F200017F095EF17F09EEF17F0056C061ED8B05E
:102F3000062A071ED8B0072A800E0856000E011A6E
:102F4000000E021A000E031A800E041A000E051A53
:102F5000000E061A000E071A800E081A0550015CB2
:102F6000065002580750035808500458D8B0BBEF19
:102F700017F0BDEF17F0C0EF17F0D890C1EF17F0C2
:102F8000D8801200000E01017C6F000E7B6F000ED6
:102F90007A6F000E796F7B51300F796F790E6F6FFA
:102FA000010E706F000E726F100E716F24EC19F02D
:102FB0009C0E01016F6F030E706F000E726F100E8A
:102FC000716F24EC19F07BC18CF07CC18DF0BEECEC
:102FD00016F08CC090F08DC091F03BEC18F090C0D2
:102FE0006FF191C070F1000E0101726F100E716FE0
:102FF00024EC19F09C0E01016F6F030E706F000E30
:10300000726F100E716F24EC19F0390E01016F6FA1
:10301000030E706F000E726F100E716F24EC19F0BA
:103020009C0E01016F6F030E706F000E726F100E19
:10303000716F24EC19F001017B4B7C2B7CBF2AEFD4
:1030400018F07C5109E1070E7B5DD8A02AEF18F03B
:103050002CEF18F0C7EF17F0330E0101786FBB0E9D
:10306000776FDF0EE82EFED7772FFCD7782FFAD7B1
:1030700000F000F0120090C07EF091C07FF0030ECF
:103080000001816FE80E806F8AEC19F07EC092F02B
:103090007FC093F0000E0001816F640E806F90C0BE
:1030A0007EF091C07FF08AEC19F07EC086F07FC080
:1030B00087F0000E0001896F0A0E886F4CEC1AF041
:1030C00086C094F087C095F0000E0001816F0A0E53
:1030D000806F90C07EF091C07FF08AEC19F07EC0C6
:1030E00086F07FC087F0000E0001896F0A0E886F9E
:1030F0004CEC1AF086C096F087C097F0000E0001E5
:10310000896F640E886F90C086F091C087F04CEC98
:103110001AF086C09AF087C09BF09AC086F09BC0D8
:1031200087F0000E0001896F0A0E886F4CEC1AF0D0
:1031300086C098F087C099F020EE9CF0040EDE6AFD
:10314000E806FDE200019251300F9C6F9451300F60
:103150009D6F9651300F9E6F9851300F9F6F9C0E50
:10316000906F000E916F120082C089F083C08AF0C8
:1031700084C08BF085C08CF000018607D8A087073B
:10318000862906E18729D8A4C8EF18F0CAEF18F0FD
:10319000D7EF18F0000E836F000E826F23EF19F047
:1031A000894B8A2B8B4B8C2B8607D8A0870789C02D
:1031B000F6FF8AC0F7FF0800F5500009D8B4E3EF26
:1031C00018F0E5EF18F011EF19F08BC0F6FF8CC086
:1031D000F7FF0800F5500009D8B4F1EF18F0F3EF4D
:1031E00018F011EF19F086518711D8B4FAEF18F0E2
:1031F000FCEF18F011EF19F089C0F6FF8AC0F7FF55
:103200000800F5CF88F08BC0F6FF8CC0F7FF0800F0
:10321000F5508819D8B40FEF19F011EF19F0D0EF6D
:1032200018F089C0F6FF8AC0F7FF0800F5CF88F0D4
:103230008BC0F6FF8CC0F7FF0800F550885D826FE9
:10324000836BD8A083071200000E0101766F000E79
:10325000756F000E766F000E756F72BF3AEF19F042
:10326000725106E17105D8B038EF19F03AEF19F054
:103270003CEF19F089EF19F075516F25736F765196
:103280007021746F73C1F6FF74C1F7FFF86A020E04
:10329000F76403D00800F55005D0F6CFD9FFF7CF7B
:1032A000DAFFDF500009D8A458EF19F05AEF19F0EF
:1032B0005CEF19F089EF19F0010175516F25736FFB
:1032C00076517021746F73C1F6FF74C1F7FFF86A0D
:1032D000020EF76403D00800F55005D0F6CFD9FFF1
:1032E000F7CFDAFFDF502EEC1EF01EEC1EF00101CE
:1032F000754B762B7151755D7651800A736F7251E3
:10330000800A7359D8A087EF19F089EF19F03CEFC4
:1033100019F01200000E0001836F81BF94EF19F0C5
:1033200092EF19F09AEF19F0806D811FD8B0812BC0
:10333000010E836F7FBFA1EF19F09FEF19F0A7EF88
:1033400019F07E6D7F1FD8B07F2B010E831B000EFE
:10335000856F000E846F80518111D8B4B2EF19F0DF
:10336000B4EF19F0DCEF19F0010E826FBCEF19F029
:10337000D89080378137822B81AFC1EF19F0C3EF2E
:1033800019F0B8EF19F0D8908437853780517E5DF9
:1033900081517F59D8A0CFEF19F0D1EF19F0D6EFB6
:1033A00019F080517E5F81517F5B8481D890813399
:1033B0008033822FC3EF19F08351D8B4E2EF19F0B4
:1033C000E4EF19F0E8EF19F0846D851FD8B0852B74
:1033D00084C07EF085C07FF01200B3C07EF0B4C020
:1033E0007FF0000E0001816F640E806F8AEC19F08F
:1033F0007EC062F17FC063F1000E0001816F0A0E92
:10340000806FB3C07EF0B4C07FF08AEC19F07EC04C
:1034100086F07FC087F0000E0001896F0A0E886F6A
:103420004CEC1AF086C064F187C065F1000E000113
:10343000896F640E886FB3C086F0B4C087F04CEC1F
:103440001AF086C068F187C069F168C186F069C169
:1034500087F0000E0001896F0A0E886F4CEC1AF09D
:1034600086C066F187C067F121EE6AF0040EDE6A5D
:10347000E806FDE201016251300F6A6F2E0E6B6F9C
:103480006451300F6C6F6651300F6D6F6A0E000122
:10349000B36F010EB46F1200000E00018B6F87BF77
:1034A00056EF1AF054EF1AF05CEF1AF0866D871F92
:1034B000D8B0872B010E8B6F89BF63EF1AF061EFD5
:1034C0001AF067EF1AF0886D891FD8B0892B8851E0
:1034D0008911D8B46EEF1AF070EF1AF094EF1AF069
:1034E000010E8A6F78EF1AF0D890883789378A2BC7
:1034F00089AF7DEF1AF07FEF1AF074EF1AF0885160
:10350000865D89518759D8A088EF1AF08AEF1AF0A2
:103510008EEF1AF08851865F8951875BD890893386
:1035200088338A2F7FEF1AF08B51D8B49AEF1AF0B4
:103530009CEF1AF0A0EF1AF0866D871FD8B0872B8A
:1035400086C086F087C087F01200000E096E000E5C
:10355000086E000E096E000E086E0450085C0950DB
:10356000800A066E0550800A0658D8A0BAEF1AF0F5
:10357000BCEF1AF0BEEF1AF0FCEF1AF0085002246C
:10358000066E09500320076E06C0F6FF07C0F7FF5E
:10359000F86A020EF76403D00800F55005D0F6CFA4
:1035A000D9FFF7CFDAFFDF500009D8A4DAEF1AF01D
:1035B000DCEF1AF0DEEF1AF0FCEF1AF008500224EC
:1035C000066E09500320076E06C0F6FF07C0F7FF1E
:1035D000F86A020EF76403D00800F55005D0F6CF64
:1035E000D9FFF7CFDAFFDF5035EC1EF026EC1EF0E6
:1035F000084A092AADEF1AF01200C4CFD7F0000133
:10360000D86BD751D86FD76BC350D727000ED823AC
:10361000F60E906F280E916F9C0E926F400E936F76
:10362000D7C07EF0D8C07FF0000E7FBFFF0E806F46
:10363000816F010E8EEC0FF07EC08CF07FC08DF09C
:1036400080C08EF081C08FF09DEC06F08CC0A9F098
:103650008DC0AAF08EC0ABF08FC0ACF0A9C08CF0CA
:10366000AAC08DF0ABC08EF0ACC08FF0CD0E0001C3
:10367000906FCC0E916FCC0E926F3D0E936F9DECC0
:1036800006F08CC0D1F08DC0D2F08EC0D3F08FC0C8
:10369000D4F0D1C0A5F0D2C0A6F0D3C0A7F0D4C05A
:1036A000A8F01200000E0114096E000E02140A6E3A
:1036B000800E03140B6E7F0E04140C6E09500A105A
:1036C0000B100C10D8A467EF1BF069EF1BF071EF23
:1036D0001BF0000E016E000E026E000E036E000E57
:1036E000046E000E0514096E000E06140A6E800E9C
:1036F00007140B6E7F0E08140C6E09500A100B1085
:103700000C10D8A486EF1BF088EF1BF090EF1BF095
:10371000000E056E000E066E000E076E000E086E9F
:10372000055001180FE1065002180CE1075003186C
:1037300009E108500418D8B4A0EF1BF0A2EF1BF069
:10374000A5EF1BF0D890A6EF1BF0D8801200C4CFD5
:10375000D7F00001D86BD751D86FD76BC350D7279C
:10376000000ED823F60E136E280E146E9C0E156EE6
:10377000400E166ED7C001F0D8C002F0000E02BE97
:10378000FF0E036E046E010E6AEC10F001C00FF024
:1037900002C010F003C011F004C012F0B3EC08F046
:1037A0000FC02CF010C02DF011C02EF012C02FF061
:1037B0002CC00FF02DC010F02EC011F02FC012F051
:1037C000CD0E136ECC0E146ECC0E156E3D0E166E15
:1037D000B3EC08F00FC0D1F010C0D2F011C0D3F09C
:1037E00012C0D4F0D1C028F0D2C029F0D3C02AF042
:1037F000D4C02BF0120082C084F07EC085F07FC060
:1038000086F00001842B08EF1CF086358633853363
:10381000842F05EF1CF0FF0E0001876FFF0E886FED
:1038200080C089F0010E8A6F000E8B6F892B1CEF10
:103830001CF0D8908A378B37892F19EF1CF00001C4
:1038400087518A2788518B2385518A157E6F86512F
:103850008B157F6F12004C6E818C818E650E4C181B
:10386000D8A435EF1CF037EF1CF043EF1CF04AC032
:1038700007F04BC008F0B5EC1DF0000E086E000E0E
:10388000076E7CEC1DF0640E4C18D8A44AEF1CF0B7
:103890004CEF1CF058EF1CF04AC007F04BC008F08A
:1038A000A2EC1DF0000E086E000E076E8FEC1DF0EE
:1038B000120005C007F001C008F002C009F0072A95
:1038C00065EF1CF0093409320832072E62EF1CF054
:1038D000FF0E0A6EFF0E0B6E03C00CF0010E0D6E94
:1038E000000E0E6E0C2A78EF1CF0D8900D360E36B6
:1038F0000C2E75EF1CF00A500D260B500E220850AE
:103900000D14016E09500E14026E12008DC082F06B
:103910008EC083F08FC084F090C085F08DC07EF0A3
:103920008EC07FF0F5EC1CF07EC086F07FC087F083
:10393000B4EC18F0000182518311D8A4A2EF1CF05E
:10394000A4EF1CF0AAEF1CF0000E8E6F010E8D6F1D
:10395000AEEF1CF0000E8E6F000E8D6F1200940EF5
:10396000F66E3C0EF76E000EF86E00EED9F010EE1B
:1039700009F00900F5CFEEFFE550E150FAE101EE64
:1039800000F0620EEE6AE806FDE100EEB5F0240EEE
:10399000EE6AE806FDE15F905F92000EF86E0001AE
:1039A0000DEF12F0000E3C1A000E3D1A000E3E1AEA
:1039B000800E3F1A38C028F039C029F03AC02AF0EA
:1039C0003BC02BF03CC02CF03DC02DF03EC02EF093
:1039D0003FC02FF03DEC04F028C038F029C039F08A
:1039E0002AC03AF02BC03BF012007EC080F07FC0AE
:1039F00081F0FEEF1CF000017E4B7F2B7EC0F6FFB6
:103A00007FC0F7FF0800F5500009D8A40AEF1DF0A9
:103A10000CEF1DF0FBEF1CF0000180517E5D7E6F0E
:103A200081517F597F6F120084C07EF085C07FF086
:103A3000000E0001816F060E806F68EC1DF07EC0E5
:103A400086F07FC087F086C073FF00018751726ED9
:103A5000120084C07EF085C07FF0000E0001816FEF
:103A6000060E806F68EC1DF07EC086F07FC087F088
:103A700086C075FF00018751746E120084C07EF00D
:103A800085C07FF0000E0001816F060E806F68EC2C
:103A90001DF07EC086F07FC087F086C077FF0001F2
:103AA0008751766E120084C07EF085C07FF0000ED4
:103AB0000001816F060E806F68EC1DF07EC086F0FD
:103AC0007FC087F086C079FF00018751786E1200B1
:103AD00000017E518003F3CF82F0F4CF83F07E515A
:103AE0008103F35083277F518003F350832782C0E3
:103AF0007EF083C07FF0120007C001F008C002F022
:103B0000000E046E060E036EC8EC1DF001C009F035
:103B100002C00AF009C073FF0A50726E120007C09B
:103B200001F008C002F0000E046E060E036EC8EC31
:103B30001DF001C009F002C00AF009C075FF0A506B
:103B4000746E120007C001F008C002F0000E046E8F
:103B5000060E036EC8EC1DF001C009F002C00AF0A9
:103B600009C077FF0A50766E120007C001F008C046
:103B700002F0000E046E060E036EC8EC1DF001C0CC
:103B800009F002C00AF009C079FF0A50786E1200ED
:103B900001500302F3CF05F0F4CF06F00150040208
:103BA000F350062602500302F350062605C001F02A
:103BB00006C002F01200000E7F6E800E7E6E5F0E59
:103BC0006F6E010E6E6E100E6D6E6B68000E6A6E7B
:103BD000960E7B6E000E7A6E1200C19CC19EC29A38
:103BE000C298F30EC216C08EC050870B3009C06E4B
:103BF000C050F80B0509C06E000E9A6E1200C4CFBB
:103C0000D7F00001D86BD751D86FD76BC350D727E7
:103C1000000ED823D7C07EF0D8C07FF01200810EEE
:103C2000AF6EAC84AC98AC9CAC8A9D98AB8EAB9CD0
:103C3000AB88949C948E9E9A9D8A1200ACA223EF2E
:103C40001EF025EF1EF01EEF1EF01200ACA22BEFAF
:103C50001EF02DEF1EF026EF1EF0120000017E6F09
:103C60007EC0ADFF1EEC1EF01200016E01C0ADFF64
:103C700026EC1EF01200D40ED56E7EC0D6FF1200C8
:103C8000AECF7EF000017E51120001C0DFF002C015
:0D3C9000E0F012000000404014009B030D06
:063C9E00D58E1200120099
:020000040020DA
:08000000FFFFFFFFFFFFFFFF00
:020000040030CA
:0E000000FFC20D3E3C9D85FF0FC00FE00F407C
:00000001FF
