:020000040000FA
:04000000F6EF00F027
:100008002582E9CF0AF0EACF0BF0F6CF0CF0F7CF54
:100018000DF0F8CF0EF0F5CF0FF0F2A416EF00F0C8
:1000280018EF00F021EF00F0630ED66E010E1926CE
:10003800000E1A221B221C22F2949EAA26EF00F020
:1000480028EF00F0E8EF00F0ABB42DEF00F02FEF51
:1000580000F036EF00F0ABA234EF00F036EF00F01E
:1000680039EF00F0AB82AB98AB880BEC03F0300AA9
:10007800D8A441EF00F043EF00F04FEF00F011EC8F
:1000880003F0770E026E030E036E000E056E100E5F
:10009800046EF2EC01F00BEC03F0310AD8A457EF30
:1000A80000F059EF00F065EF00F00FEC03F0820E5E
:1000B800026E030E036E000E056E100E046EF2EC57
:1000C80001F00BEC03F0660AD8A46DEF00F06FEFB7
:1000D80000F07FEF00F06C0E016E030E026E06EC6E
:1000E80003F0010E026E030E036E000E056E100E75
:1000F800046EF2EC01F00BEC03F0610AD8A487EF70
:1001080000F089EF00F099EF00F08C0E016E030EFD
:10011800026E06EC03F0310E026E030E036E000E43
:10012800056E100E046EF2EC01F00BEC03F0620A9F
:10013800D8A4A1EF00F0A3EF00F0B3EF00F0950E04
:10014800016E030E026E06EC03F03D0E026E030E06
:10015800036E000E056E100E046EF2EC01F00BEC4F
:1001680003F0630AD8A4BBEF00F0BDEF00F0CDEFB9
:1001780000F09E0E016E030E026E06EC03F0490EAF
:10018800026E030E036E000E056E100E046EF2EC86
:1001980001F00BEC03F0640AD8A4D5EF00F0D7EF18
:1001A80000F0E7EF00F0A70E016E030E026E06ECFA
:1001B80003F0550E026E030E036E000E056E100E50
:1001C800046EF2EC01F09E9A0FC0F5FF0EC0F8FF26
:1001D8000DC0F7FF0CC0F6FF0BC0EAFF0AC0E9FF2D
:0801E80025921100A7EF02F0BF
:1003000000416C746572616E646F204C616D706148
:100310006461730050574D412054657374652046E5
:10032000696D0050574D412054657374616E646F60
:1003300000416C746572616E646F203100416C74B1
:100340006572616E646F203200416C746572616E1B
:10035000646F203300416C746572616E646F203489
:10036000002D2D2D2D2D2D2D2D2D2D006C616D7021
:10037000616461734F4E0054696D657230206F6621
:10038000660054696D657230206F6E006C616D702F
:1003900061646131006C616D7061646132006C6137
:1003A0006D7061646133006C616D70616461340013
:1003B000414E303A2000414E313A2000414E323A0F
:1003C0002000414E333A2000414E343A2000414E45
:1003D000353A2000414E363A2000414E373A20004F
:0303E0000D00000D
:1003E400000E096E000E086E000E096E000E086EF7
:1003F40005BE07EF02F0055006E10404D8B005EF8E
:1004040002F007EF02F009EF02F054EF02F0085097
:100414000224066E09500320076E06C0F6FF07C0CB
:10042400F7FFF86A020EF76403D00800F55005D010
:10043400F6CFE9FFF7CFEAFFEF500009D8A425EF84
:1004440002F027EF02F029EF02F054EF02F0085017
:100454000224066E09500320076E06C0F6FF07C08B
:10046400F7FFF86A020EF76403D00800F55005D0D0
:10047400F6CFE9FFF7CFEAFFEF50FBEC02F0F3EC25
:1004840002F0084A092A0450085C0950800A066EE2
:100494000550800A0658D8A052EF02F054EF02F03B
:1004A40009EF02F01200030E136E8A0E126E560E3E
:1004B400E82EFED7122EFCD7132EFAD7B868010EF9
:1004C400B96E9268000E936E800E946E1C0E956E3B
:1004D400070E966E000E816E8268000E836E000E0B
:1004E400846EF28EF28CF28A14EC03F0E4EC02F0E7
:1004F400C0EC02F0D2EC02F0000E116E630E106E2E
:1005040001EC03F01C501B100BE1E90E195C030E07
:100514001A58D8A090EF02F092EF02F084EF02F0A4
:1005240082A097EF02F09AEF02F082809BEF02F034
:100534008290000E196E000E1A6E000E1B6E000ED5
:100544001C6E84EF02F0F6EF00F0260EF66E060E37
:10055400F76E000EF86E0900F5CF23F00900F5CF11
:1005640024F000EE14F00F0EEE6AE806FDE125908B
:100574002592000EF86E000155EF02F0000E7F6E1A
:10058400800E7E6E5F0E6F6E010E6E6E100E6D6EBF
:100594006B68000E6A6E960E7B6E000E7A6E120009
:1005A400C19CC19EC29AC298F30EC216C08EC0509E
:1005B400870B3009C06EC050F80B0509C06E000EE1
:1005C4009A6E1200810EAF6EAC84AC98AC9CAC8A6F
:1005D4009D98AB8EAB9CAB88949C948E9E9A9D8A7E
:1005E4001200ACA2F8EF02F0FAEF02F0F3EF02F01F
:1005F4001200016E01C0ADFFF3EC02F01200D40E44
:10060400D56E10C0D6FF120001C023F002C024F042
:100614001200AECF01F001501200D58E1200D59E0B
:060624001200E1031200C8
:020000040020DA
:08000000FFFFFFFFFFFFFFFF00
:020000040030CA
:0E000000FFC20D3E3C9D85FF0FC00FE00F407C
:00000001FF
