:0400000070EF01F0AC
:100008004D82E9CF0BF0EACF0CF0F3CF0DF0F4CF2F
:100018000EF0F6CF0FF0F7CF10F0F8CF11F0F5CFC4
:1000280012F09EAA1AEF00F01CEF00F04DEF01F05D
:10003800ABB421EF00F023EF00F02AEF00F0ABA201
:1000480028EF00F02AEF00F02DEF00F0AB82AB981C
:10005800AB8858EC1AF04C6E310EAE18D8A437EFB6
:1000680000F039EF00F045EF00F05CEC1AF0B70E45
:10007800026E3F0E036E000E056E100E046E06EC47
:1000880016F0610EAE18D8A44CEF00F04EEF00F059
:100098005EEF00F04C0E016E3F0E026E4FEC1AF050
:1000A800FEC002F0FFC003F0000E056E100E046ED5
:1000B80006EC16F0620EAE18D8A465EF00F067EFF4
:1000C80000F077EF00F00A0E016E3F0E026E4FEC63
:1000D8001AF0FEC002F0FFC003F0000E056E100E0D
:1000E800046E06EC16F0630EAE18D8A47EEF00F08E
:1000F80080EF00F090EF00F0F40E016E3F0E026EFC
:100108004FEC1AF0FEC002F0FFC003F0000E056EBF
:10011800100E046E06EC16F0640EAE18D8A497EF15
:1001280000F099EF00F0A9EF00F0F00E016E3F0E1D
:10013800026E4FEC1AF0FEC002F0FFC003F0000E92
:10014800056E100E046E06EC16F0650EAE18D8A4F7
:10015800B0EF00F0B2EF00F0C2EF00F0DC0E016E7D
:100168003E0E026E4FEC1AF0FEC002F0FFC003F024
:10017800000E056E100E046E06EC16F0660EAE1834
:10018800D8A4C9EF00F0CBEF00F0DBEF00F0AC0E25
:10019800016E3F0E026E4FEC1AF0FEC002F0FFC077
:1001A80003F0000E056E100E046E06EC16F0670ED6
:1001B800AE18D8A4E2EF00F0E4EF00F0F4EF00F09E
:1001C800FB0E016E3E0E026E4FEC1AF0FEC002F0FE
:1001D800FFC003F0000E056E100E046E06EC16F05C
:1001E800680EAE18D8A4FBEF00F0FDEF00F00DEF9D
:1001F80001F0A50E016E3E0E026E4FEC1AF0FEC025
:1002080002F0FFC003F0000E056E100E046E06EC3F
:1002180016F0700EAE18D8A414EF01F016EF01F026
:100228004CEF01F0EB0E016E3F0E026E4FEC1AF030
:10023800E60E026E3F0E036E000E056E100E046E83
:1002480006EC16F0000E086E000E076EBFEC19F0F3
:10025800000E086E000E076EACEC19F0000E086E6A
:10026800000E076E99EC19F0000E086E000E076E6E
:1002780086EC19F08280828282848286FEC002F037
:10028800FFC003F0000E056E100E046E06EC16F0AB
:100298009E9AF2A452EF01F054EF01F05EEF01F0E4
:1002A800630ED66E010E0001E627000EE723E82351
:1002B800E923F29412C0F5FF11C0F8FF10C0F7FF50
:1002C8000FC0F6FF0EC0F4FF0DC0F3FF0CC0EAFF2D
:1002D8000BC0E9FF4D921100BCEF18F000017451FA
:1002E800800B7D6F745174257F6F73AF7EEF01F0C3
:1002F80080EF01F081EF01F07F817F51D8B487EF63
:1003080001F089EF01F09EEF01F07F29D8A48FEF6B
:1003180001F091EF01F099EF01F0000E716F000EFE
:10032800726F000E736F000E746F738F000E746F10
:10033800A6EF01F0000E716F000E726F000E736F62
:10034800000E746F7851800B7E6F7D517E19D8B482
:10035800B0EF01F0B2EF01F0B3EF01F07D8D78510D
:1003680078257E6F77AFBBEF01F0BDEF01F0BEEFF0
:1003780001F07E817E51D8B4C4EF01F0C6EF01F0E0
:10038800DBEF01F07E29D8A4CCEF01F0CEEF01F02D
:10039800D6EF01F0000E756F000E766F000E776FC6
:1003A800000E786F778F000E786FE3EF01F0000E84
:1003B800756F000E766F000E776F000E786F7F51A5
:1003C8007E5DD8B0EAEF01F0ECEF01F013EF02F038
:1003D8007DADF1EF01F0F3EF01F0F5EF01F0800EE4
:1003E8007D1B7FC080F07EC07FF080C07EF071C032
:1003F80080F075C071F080C075F072C080F076C072
:1004080072F080C076F073C080F077C073F080C05F
:1004180077F074C080F078C074F080C078F0000E77
:10042800806F7F517EC079F07A6B795F000E7A5BBE
:100438007ABF28EF02F07A5109E11A0E795DD8A047
:1004480028EF02F02AEF02F061EF02F07151721109
:1004580073117411D8A433EF02F036EF02F0010ED5
:1004680037EF02F0000E806F000E716F000E726F92
:10047800000E736F000E746F7EC07FF06AEF02F09B
:1004880080A149EF02F04BEF02F051EF02F0D89053
:1004980080310109806F53EF02F0D890803371A149
:1004A80058EF02F05AEF02F05BEF02F0808F7435DC
:1004B80074337333723371337F2B7E517F5DD8A0D1
:1004C80068EF02F06AEF02F044EF02F07DBD6FEFD3
:1004D80002F071EF02F0B1EF02F07F51D8A477EF8C
:1004E80002F079EF02F083EF02F0000E716F000E58
:1004F800726F000E736F000E746FD2EF03F07551B8
:10050800712776517223775173237851742374A11C
:1005180090EF02F092EF02F03EEF03F080A197EF28
:1005280002F099EF02F09FEF02F0D89080310109B4
:10053800806FA1EF02F0D890803371A1A6EF02F08E
:10054800A8EF02F0A9EF02F0808F7435743373338B
:10055800723371337F2B3EEF03F07551715D765125
:100568007259775173597451800A796F7851800A9A
:100578007959D8B0C2EF02F0C4EF02F0EFEF02F001
:100588007151755D796F725176597A6F73517759D8
:100598007B6F745178597C6FFF0E7925716FFF0E50
:1005A8007A21726FFF0E7B21736FFF0E7C21746FAF
:1005B800800E7D1B806D8051D8A4E5EF02F0E7EF37
:1005C80002F0F7EF02F0010E7127000E7223732379
:1005D8007423F7EF02F07551715F7651725B7751B2
:1005E800735B7851745B7151721173117411D8A4D3
:1005F80000EF03F002EF03F037EF03F08051D8A4C7
:1006080008EF03F00AEF03F037EF03F0000E716F05
:10061800000E726F000E736F000E746FD2EF03F04E
:10062800D890713772377337743780AF1EEF03F085
:1006380020EF03F021EF03F0718180A126EF03F092
:1006480028EF03F02CEF03F0D88080372EEF03F06B
:10065800D89080377F51D8B434EF03F036EF03F0E9
:1006680037EF03F07F0773AF3CEF03F03EEF03F083
:1006780014EF03F0000E7E6F80AF45EF03F047EFF5
:1006880003F05FEF03F080C079F07F0E7917D8B4DC
:1006980050EF03F052EF03F056EF03F0010E7E6FB8
:1006A8005FEF03F071A15BEF03F05DEF03F05FEF25
:1006B80003F052EF03F07E51D8B465EF03F067EF13
:1006C80003F092EF03F0010E7127000E72237323DB
:1006D800742374A172EF03F074EF03F092EF03F048
:1006E80071C079F072C07AF073C07BF074C07CF08E
:1006F8007C357C337B337A33793379C071F07AC0B7
:1007080072F07BC073F07CC074F07F29D8B48FEF8F
:1007180003F091EF03F092EF03F07F2B7F29D8B419
:1007280098EF03F09AEF03F0A2EF03F07F51D8A4FB
:10073800A0EF03F0A2EF03F0B4EF03F0000E716F27
:10074800000E726F000E736F000E746F7F51D8A485
:10075800B0EF03F0B2EF03F0B4EF03F0000E7D6FDB
:100768007FA1B9EF03F0BBEF03F0BEEF03F0738F87
:10077800BFEF03F0739FD8907F31746F7DAFC7EFE1
:1007880003F0C9EF03F0CAEF03F0748F71C071F082
:1007980072C072F073C073F074C074F01200818C70
:1007A800818EEC0E0001A06F3E0EA16F000EA36FAC
:1007B800100EA26FA0EC15F0000E0001A96F000E3C
:1007C800A86FA8C019F0A9C01AF060EC19F0820E41
:1007D8003B6EDE0EE82EFED73B2EFCD7FEC018F08F
:1007E800FFC019F0EB0E1A6E3F0E1B6E09EC19F0E4
:1007F80018501910D8B403EF04F005EF04F007EF10
:1008080004F018EF04F00001A84BA92BA9BF16EFBC
:1008180004F0A95109E1650EA85DD8A016EF04F00F
:1008280018EF04F0E5EF03F0CC0E0001A06F3E0EC8
:10083800A16F000EA36F100EA26FA0EC15F0000EB2
:100848001A6E000E196E60EC19F0000E0001A96F07
:10085800000EA86FA8C019F0A9C01AF027EC19F06B
:10086800820E3B6EDE0EE82EFED73B2EFCD7FEC076
:1008780018F0FFC019F0EB0E1A6E3F0E1B6E09EC54
:1008880019F018501910D8B44CEF04F04EEF04F0DA
:1008980050EF04F061EF04F00001A84BA92BA9BFA9
:1008A8005FEF04F0A95109E1650EA85DD8A05FEFDC
:1008B80004F061EF04F02EEF04F0000E1A6E000E43
:1008C800196E27EC19F0000E0001A96F000EA86F31
:1008D800A8C019F0A9C01AF04DEC19F0820E3B6EB1
:1008E800DE0EE82EFED73B2EFCD7FEC018F0FFC068
:1008F80019F0EB0E1A6E3F0E1B6E09EC19F018502A
:100908001910D8B48AEF04F08CEF04F08EEF04F0DD
:100918009FEF04F00001A84BA92BA9BF9DEF04F09D
:10092800A95109E1650EA85DD8A09DEF04F09FEFDD
:1009380004F06CEF04F0000E1A6E000E196E4DEC08
:1009480019F0000E0001A96F000EA86FA8C019F0D9
:10095800A9C01AF04DEC19F0820E3B6EDE0EE82E9F
:10096800FED73B2EFCD7FEC018F0FFC019F0EB0EE7
:100978001A6E3F0E1B6E09EC19F018501910D8B4F6
:10098800C8EF04F0CAEF04F0CCEF04F0DDEF04F098
:100998000001A84BA92BA9BFDBEF04F0A95109E17D
:1009A800650EA85DD8A0DBEF04F0DDEF04F0AAEF38
:1009B80004F0000E1A6E000E196E3AEC19F0000ED3
:1009C8000001A96F000EA86FA8C019F0A9C01AF0FD
:1009D80060EC19F0A8C019F0A9C01AF04DEC19F094
:1009E800820E3B6EDE0EE82EFED73B2EFCD7FEC0F5
:1009F80018F0FFC019F0EB0E1A6E3F0E1B6E09ECD3
:100A080019F018501910D8B40CEF05F00EEF05F0D6
:100A180010EF05F021EF05F00001A84BA92BA9BFA5
:100A28001FEF05F0A95109E1650EA85DD8A01FEFD9
:100A380005F021EF05F0E8EF04F0000E1A6E000E45
:100A4800196E60EC19F0000E1A6E000E196E4DEC5E
:100A580019F0000E0001A96F000EA86FA8C019F0C8
:100A6800A9C01AF060EC19F0A8C019F0A9C01AF0D2
:100A78003AEC19F0820E3B6EDE0EE82EFED73B2EC6
:100A8800FCD7FEC018F0FFC019F0EB0E1A6E3F0E2F
:100A98001B6E09EC19F018501910D8B456EF05F070
:100AA80058EF05F05AEF05F06BEF05F00001A84B81
:100AB800A92BA9BF69EF05F0A95109E1650EA85D49
:100AC800D8A069EF05F06BEF05F032EF05F0000EE6
:100AD8001A6E000E196E60EC19F0000E1A6E000EF8
:100AE800196E3AEC19F0000E0001A96F000EA86FFC
:100AF800A8C019F0A9C01AF027EC19F0A8C019F07D
:100B0800A9C01AF04DEC19F0820E3B6EDE0EE82EED
:100B1800FED73B2EFCD7FEC018F0FFC019F0EB0E35
:100B28001A6E3F0E1B6E09EC19F018501910D8B444
:100B3800A0EF05F0A2EF05F0A4EF05F0B5EF05F082
:100B48000001A84BA92BA9BFB3EF05F0A95109E1F2
:100B5800650EA85DD8A0B3EF05F0B5EF05F07CEF02
:100B680005F0000E1A6E000E196E27EC19F0000E33
:100B78001A6E000E196E4DEC19F0000E0001A96FE7
:100B8800000EA86FA8C019F0A9C01AF027EC19F038
:100B9800A8C019F0A9C01AF03AEC19F0820E3B6E01
:100BA800DE0EE82EFED73B2EFCD7FEC018F0FFC0A5
:100BB80019F0EB0E1A6E3F0E1B6E09EC19F0185067
:100BC8001910D8B4EAEF05F0ECEF05F0EEEF05F0F8
:100BD800FFEF05F00001A84BA92BA9BFFDEF05F019
:100BE800A95109E1650EA85DD8A0FDEF05F0FFEF5A
:100BF80005F0C6EF05F0000E1A6E000E196E27EC10
:100C080019F0000E1A6E000E196E3AEC19F0120067
:100C18003650800B0001646F365036246A6F35AE4B
:100C280018EF06F01AEF06F01BEF06F06A816A511A
:100C3800D8B421EF06F023EF06F036EF06F06A2964
:100C4800D8A429EF06F02BEF06F033EF06F0000EDC
:100C5800336E000E346E000E356E000E366E358E15
:100C68003EEF06F0000E336E000E346E000E356E49
:100C7800000E366E3A50800B641B3A503A24656F6A
:100C880039AE49EF06F04BEF06F04CEF06F0658100
:100C98006551D8B452EF06F054EF06F067EF06F04E
:100CA8006529D8A45AEF06F05CEF06F064EF06F069
:100CB800000E376E000E386E000E396E000E3A6E5A
:100CC800398E6FEF06F0000E376E000E386E000E8C
:100CD800396E000E3A6E6551D8B475EF06F077EFAD
:100CE80006F07FEF06F06A51D8A47DEF06F07FEF9B
:100CF80006F089EF06F0000E336E000E346E000E1B
:100D0800356E000E366E21EF08F039503302F3CFFE
:100D18006FF0F4CF70F06F51666F676B686B696B3B
:100D280070516B6F6C6B6D6B6E6B38503402F3CF18
:100D38006FF0F4CF70F06F516627000E67236823B9
:100D4800692370516B27000E6C236D236E23375077
:100D58003502F3CF6FF0F4CF70F06F516627000EB5
:100D680067236823692370516B27000E6C236D235A
:100D78006E2368C069F067C068F066C067F0666B8C
:100D880037503402F3CF6FF0F4CF70F06F5166270D
:100D980070516723000E6823000E69233850330210
:100DA800F3CF6FF0F4CF70F06F516627705167235F
:100DB800000E6823000E692368C069F067C068F0F8
:100DC80066C067F0666B37503302F3CF6FF0F4CF2D
:100DD80070F06F51662770516723000E6823000E6C
:100DE800692339503402F3CF6FF0F4CF70F06F51AC
:100DF8006B2770516C23000E6D23000E6E23385044
:100E08003502F3CF6FF0F4CF70F06F516B2770514C
:100E18006C23000E6D23000E6E2339503502F3CF7C
:100E28006FF0F4CF70F06F51606F7051616F626B4B
:100E3800636B62C063F061C062F060C061F0606BB8
:100E480060516B2761516C2362516D2363516E238E
:100E580066C060F067C061F068C062F069C063F0A6
:100E6800190E3CEF07F0D890633362336133603377
:100E7800E82E37EF07F060516B2761516C23625100
:100E88006D2363516E2368C069F067C068F066C05F
:100E980067F0666B65516AC060F0616B6027000E91
:100EA8006123820E60256F6FFF0E6121706F72EFF4
:100EB80007F0D8906B376C376D376E3769AF67EFCF
:100EC80007F069EF07F06AEF07F06B81D890663793
:100ED8006737683769376F07D8A070076DAF77EF46
:100EE80007F079EF07F05DEF07F0000E656F69AF67
:100EF80080EF07F082EF07F0A6EF07F0FF0E661508
:100F0800606FFF0E6715616FFF0E6815626F7F0EC9
:100F18006915636F6051611162116311D8B497EF5D
:100F280007F099EF07F09DEF07F0010E656FA6EF48
:100F380007F06BA1A2EF07F0A4EF07F0A6EF07F008
:100F480099EF07F06551D8B4ACEF07F0AEEF07F0B2
:100F5800D2EF07F0010E6B27000E6C236D236E2372
:100F68006EA1B9EF07F0BBEF07F0D2EF07F06BC047
:100F780060F06CC061F06DC062F06EC063F0633504
:100F8800633362336133603360C06BF061C06CF00F
:100F980062C06DF063C06EF06F4B702B70BFDDEFF9
:100FA80007F0705108E16F29D8A0DDEF07F0DFEFF7
:100FB80007F0E9EF07F0000E6B6F000E6C6F800E04
:100FC8006D6F7F0E6E6F17EF08F070BFF6EF07F0CA
:100FD800705106E16F05D8B0F4EF07F0F6EF07F0AF
:100FE80002EF08F0000E6B6F000E6C6F000E6D6F55
:100FF800000E6E6F000E646F17EF08F06FC06AF096
:10100800FF0E6B17FF0E6C177F0E6D17000E6E1715
:101018006AA111EF08F013EF08F014EF08F06D8FD4
:10102800D8906A316E6F64516E136BC033F06CC028
:1010380034F06DC035F06EC036F0120000018C51EE
:10104800800B996F8C518C25A06F8BAF2EEF08F019
:1010580030EF08F031EF08F0A081A051D8B437EF95
:1010680008F039EF08F04EEF08F0A029D8A43FEFB8
:1010780008F041EF08F049EF08F0000E896F000E04
:101088008A6F000E8B6F000E8C6F8B8F000E8C6F2B
:1010980056EF08F0000E896F000E8A6F000E8B6FF6
:1010A800000E8C6F9051800B991B90519025A16F69
:1010B8008FAF61EF08F063EF08F064EF08F0A181EB
:1010C800A151D8B46AEF08F06CEF08F081EF08F08E
:1010D800A129D8A472EF08F074EF08F07CEF08F0AB
:1010E800000E8D6F000E8E6F000E8F6F000E906FCA
:1010F8008F8F000E906F89EF08F0000E8D6F000E35
:101108008E6F000E8F6F000E906F8D518E118F11A4
:101118009011D8A492EF08F094EF08F0ACEF08F023
:10112800000E896F000E8A6F000E8B6F000E8C6F99
:10113800800E8B137F0E8C1399518C1389C089F004
:101148008AC08AF08BC08BF08CC08CF0EFEF09F06E
:10115800A051D8A4B2EF08F0B4EF08F0BEEF08F041
:10116800000E896F000E8A6F000E8B6F000E8C6F59
:10117800EFEF09F0A151A0C091F0926B915F000EC2
:10118800925B7F0E91259A6F000E92219B6F89C00A
:1011980095F08AC096F08BC097F08CC098F0000E3E
:1011A800896F000E8A6F000E8B6F000E8C6F000E19
:1011B8009C6F000E9D6F000E9E6F000E9F6F000EBD
:1011C800A16F1FEF09F0A151D8B4EDEF08F0EFEFD0
:1011D80008F006EF09F0D890953796379737983783
:1011E800D89089378A378B378C379FAFFEEF08F056
:1011F80000EF09F001EF09F08981D8909C379D37FD
:101208009E379F378D51955D8E5196598F519759BD
:1012180090519859D8A013EF09F015EF09F01EEF77
:1012280009F09F8D8D51955F8E51965B8F51975B1D
:101238009051985BA12B190EA16525EF09F027EFB6
:1012480009F0E7EF08F09551961197119811D8B465
:1012580030EF09F032EF09F04AEF09F09C814AEFCC
:1012680009F0D89089378A378B378C379FAF3FEF93
:1012780009F041EF09F042EF09F08981D8909C37D5
:101288009D379E379F379A07D8A09B078BAF4FEFA4
:1012980009F051EF09F035EF09F0000EA16F9FAF8B
:1012A80058EF09F05AEF09F07EEF09F0FF0E9C1590
:1012B800916FFF0E9D15926FFF0E9E15936F7F0E17
:1012C8009F15946F9151921193119411D8B46FEFA7
:1012D80009F071EF09F075EF09F0010EA16F7EEFCB
:1012E80009F089A17AEF09F07CEF09F07EEF09F0A7
:1012F80071EF09F0A151D8B484EF09F086EF09F035
:10130800AAEF09F0010E8927000E8A238B238C236C
:101318008CA191EF09F093EF09F0AAEF09F089C0C9
:1013280091F08AC092F08BC093F08CC094F0943501
:10133800943393339233913391C089F092C08AF0F9
:1013480093C08BF094C08CF09A4B9B2B9BBFB5EF4E
:1013580009F09B5108E19A29D8A0B5EF09F0B7EF39
:1013680009F0C2EF09F0000E9B6F9A69000E896FB1
:10137800000E8A6F000E8B6F000E8C6F9BBFCFEF35
:1013880009F09B5106E19A05D8B0CDEF09F0CFEFEF
:1013980009F0DDEF09F0000E9B6F000E9A6F000E4A
:1013A800896F000E8A6F000E8B6F000E8C6F000E17
:1013B800996F9AC0A0F0A0A1E4EF09F0E6EF09F058
:1013C800E9EF09F08B8FEAEF09F08B9FD890A031F5
:1013D8008C6FA0EF08F01200820E0101366FDD0E4F
:1013E800E82EFED7362FFCD700F000F0B868010EC3
:1013F800B96E9268000E936E800E946E1C0E956EF8
:10140800070E966E000E816E8268000E836E000EC7
:10141800846EF28EF28CF28A5EEC1AF019EC1AF0F5
:10142800E5EC19F0F7EC19F0000E146E630E136E6C
:101438004AEC1AF0FA0E0001FE6F3F0EFF6F000E25
:1014480000018C6F060E8B6F32EC12F000018CBF1E
:1014580037EF0AF05E0E8B5D010E8C59D8A037EF7E
:101468000AF039EF0AF04CEF0BF0FEC018F0FFC09D
:1014780019F0EB0E1A6E3F0E1B6E09EC19F018509E
:101488001910D8B44AEF0AF04CEF0AF050EF0AF0FE
:1014980054EC1AF03EEC1AF0FEC018F0FFC019F038
:1014A8004C0E1A6E3F0E1B6E09EC19F018501910ED
:1014B800D8B461EF0AF063EF0AF065EF0AF0D3ECF5
:1014C80003F0FEC018F0FFC019F00A0E1A6E3F0EA6
:1014D8001B6E09EC19F018501910D8B476EF0AF001
:1014E80078EF0AF07AEF0AF09BEC11F0FEC018F0E2
:1014F800FFC019F0F40E1A6E3F0E1B6E09EC19F0BE
:1015080018501910D8B48BEF0AF08DEF0AF093EF4A
:101518000AF054EC1AF03EEC1AF044EC0EF0FEC05F
:1015280018F0FFC019F0AC0E1A6E3F0E1B6E09ECD6
:1015380019F018501910D8B4A4EF0AF0A6EF0AF061
:10154800ACEF0AF054EC1AF03EEC1AF0BCEC12F0D6
:10155800FEC018F0FFC019F0F00E1A6E3F0E1B6E99
:1015680009EC19F018501910D8B4BDEF0AF0BFEF04
:101578000AF0C3EF0AF079EC0BF0EAEC0CF0FEC0CD
:1015880018F0FFC019F0DC0E1A6E3E0E1B6E09EC47
:1015980019F018501910D8B4D4EF0AF0D6EF0AF0A1
:1015A800DAEF0AF001EC11F0EAEC0CF0FEC018F0EA
:1015B800FFC019F0FB0E1A6E3E0E1B6E09EC19F0F7
:1015C80018501910D8B4EBEF0AF0EDEF0AF0F4EF69
:1015D8000AF0000E00018E6F000E8D6F33EC15F0CF
:1015E800FEC018F0FFC019F0A50E1A6E3E0E1B6E55
:1015F80009EC19F018501910D8B405EF0BF007EFE3
:101608000BF023EF0AF079EC0BF0EAEC0CF0829087
:101618008292829482960001E9510DE1C10EE65D45
:10162800D40EE759010EE859D8A01DEF0BF01FEFB3
:101638000BF075EF0BF0E60EA06F3F0EA16F000EDA
:10164800A36F100EA26FA0EC15F0EB0E0001FE6F59
:101658003F0EFF6F000E1A6E000E196E60EC19F047
:10166800000E1A6E000E196E4DEC19F0000E1A6E6F
:10167800000E196E3AEC19F0000E1A6E000E196E73
:1016880027EC19F0828082828284828623EF0AF016
:10169800000E1A6E000E196E60EC19F0000E1A6E2C
:1016A800000E196E4DEC19F0000E1A6E000E196E30
:1016B8003AEC19F0000E1A6E000E196E27EC19F0AC
:1016C8008280828282848286B90E0001A06F3E0EDB
:1016D800A16F000EA36F100EA26FA0EC15F023EF00
:1016E8000AF023EF0AF070EF01F001EC11F028EC9A
:1016F80010F0A2C0DEF0A3C0DFF0A4C0E0F0A5C0E7
:10170800E1F0DEC0E2F0DFC0E3F0E0C0E4F0E1C009
:10171800E5F0000E0001816F000E826F400E836FAE
:10172800400E846FDEC085F0DFC086F0E0C087F031
:10173800E1C088F0E5EC18F081C0DAF082C0DBF097
:1017480083C0DCF084C0DDF0DAC081F0DBC082F059
:10175800DCC083F0DDC084F0B6C085F0B7C086F089
:10176800B8C087F0B9C088F0E5EC18F081C0BEF0C9
:1017780082C0BFF083C0C0F084C0C1F0DAC0B6F048
:10178800DBC0B7F0DCC0B8F0DDC0B9F0BAC085F096
:10179800BBC086F0BCC087F0BDC088F0E6C025F0AD
:1017A800E7C026F0E8C027F0E9C028F0000E4EECAC
:1017B8000FF025C081F026C082F027C083F028C032
:1017C80084F0E5EC18F081C089F082C08AF083C00B
:1017D8008BF084C08CF0000E00018D6F000E8E6FB0
:1017E8007A0E8F6F440E906F22EC08F089C0C2F019
:1017F8008AC0C3F08BC0C4F08CC0C5F0E6C025F029
:10180800E7C026F0E8C027F0E9C028F0000E4EEC4B
:101818000FF025C0BAF026C0BBF027C0BCF028C026
:10182800BDF0DAC033F0DBC034F0DCC035F0DDC029
:1018380036F0000E376E000E386EA00E396E400E70
:101848003A6E0CEC06F033C0D6F034C0D7F035C091
:10185800D8F036C0D9F0000E376E000E386E000E84
:10186800396E000E3A6EDAC033F0DBC034F0DCC0FB
:1018780035F0DDC036F00CEC06F033C0A8F034C00B
:10188800A9F035C0AAF036C0ABF0C2C037F0C3C06B
:1018980038F0C4C039F0C5C03AF0A8C033F0A9C0C8
:1018A80034F0AAC035F0ABC036F00CEC06F033C00B
:1018B80071F034C072F035C073F036C074F0D2C025
:1018C80075F0D3C076F0D4C077F0D5C078F072EC5C
:1018D80001F071C0D2F072C0D3F073C0D4F074C0FC
:1018E800D5F0000E376E000E386E000E396E000E01
:1018F8003A6EBEC033F0BFC034F0C0C035F0C1C0CE
:1019080036F00CEC06F033C089F034C08AF035C0EC
:101918008BF036C08CF0C2C08DF0C3C08EF0C4C04E
:101928008FF0C5C090F022EC08F089C0CEF08AC0D4
:10193800CFF08BC0D0F08CC0D1F0D2C075F0D3C03E
:1019480076F0D4C077F0D5C078F0D6C071F0D7C0A3
:1019580072F0D8C073F0D9C074F072EC01F071C0A5
:10196800ACF072C0ADF073C0AEF074C0AFF0ACC0F4
:1019780071F0ADC072F0AEC073F0AFC074F0CEC0FD
:1019880075F0CFC076F0D0C077F0D1C078F072ECA7
:1019980001F071C0CAF072C0CBF073C0CCF074C053
:1019A800CDF0CAC081F0CBC082F0CCC083F0CDC0EE
:1019B80084F040EC13F081C0B0F082C0B1F0B0C048
:1019C8008DF0B1C08EF033EC15F01200E6C0ACF02B
:1019D800E7C0ADF0E8C0AEF0E9C0AFF00001B25129
:1019E800AC5DA86FB351AD59A96FB451AE59AA6F88
:1019F800B551AF59AB6FAB51AA110BE1F50EA85D0C
:101A0800010EA959D8A00BEF0DF00DEF0DF043EF23
:101A18000EF0ACC0B2F0ADC0B3F0AEC0B4F0AFC021
:101A2800B5F004C113F005C114F006C115F007C1E3
:101A380016F0000E176E000E186E800E196E3F0E0F
:101A48001A6E7CEC17F0D8A02CEF0DF02EEF0DF0ED
:101A58003BEF0DF0590E0001A06F3F0EA16F000E75
:101A6800A36F100EA26FA0EC15F046EF0DF0180E44
:101A78000001A06F3F0EA16F000EA36F100EA26FA2
:101A8800A0EC15F008C113F009C114F00AC115F053
:101A98000BC116F0000E176E000E186E800E196E30
:101AA8003F0E1A6E7CEC17F0D8A05DEF0DF05FEFDB
:101AB8000DF06CEF0DF0A10E0001A06F3F0EA16FAD
:101AC800000EA36F100EA26FA0EC15F077EF0DF0CB
:101AD800950E0001A06F3F0EA16F000EA36F100EB0
:101AE800A26FA0EC15F00CC113F00DC114F00EC1DB
:101AF80015F00FC116F0000E176E000E186E800E4E
:101B0800196E3F0E1A6E7CEC17F0D8A08EEF0DF010
:101B180090EF0DF09DEF0DF0650E0001A06F3F0EE8
:101B2800A16F000EA36F100EA26FA0EC15F0A8EF26
:101B38000DF0250E0001A06F3F0EA16F000EA36FE0
:101B4800100EA26FA0EC15F010C113F011C114F023
:101B580012C115F013C116F0000E176E000E186EA4
:101B6800800E196E3F0E1A6E7CEC17F0D8A0BFEFEE
:101B78000DF0C1EF0DF0CEEF0DF0710E0001A06F6A
:101B88003F0EA16F000EA36F100EA26FA0EC15F010
:101B9800D9EF0DF0320E0001A06F3F0EA16F000EBD
:101BA800A36F100EA26FA0EC15F014C113F015C1AD
:101BB80014F016C115F017C116F0000E176E000EBE
:101BC800186E800E196E3F0E1A6E7CEC17F0D8A0B6
:101BD800F0EF0DF0F2EF0DF0FFEF0DF07D0E0001CC
:101BE800A06F3F0EA16F000EA36F100EA26FA0ECA6
:101BF80015F00AEF0EF03F0E0001A06F3F0EA16F27
:101C0800000EA36F100EA26FA0EC15F0C10E00011C
:101C1800A06F3F0EA16F000EA36F100EA26FA0EC75
:101C280015F0000E00018C6F060E8B6F32EC12F06F
:101C38008BC091F08CC092F0CBEC16F091C0A0F064
:101C480092C0A1F0000E0001A36F100EA26FA0ECCD
:101C580015F0890E0001A06F3F0EA16F000EA36F53
:101C6800100EA26FA0EC15F0DA0E0001A06F3E0E68
:101C7800A16F000EA36F100EA26FA0EC15F012005A
:101C8800C80E0001A06F3F0EA16F000EA36F100ECB
:101C9800A26FA0EC15F0000E00018C6F010E8B6F87
:101CA80032EC12F08BC091F08CC092F0CBEC16F0B5
:101CB80091C0A0F092C0A1F0000E0001A36F100E19
:101CC800A26FA0EC15F0DA0E0001A06F3E0EA16F16
:101CD800000EA36F100EA26FA0EC15F0CE0E00013F
:101CE800A06F3F0EA16F000EA36F100EA26FA0ECA5
:101CF80015F0000E00018C6F020E8B6F32EC12F0A3
:101D08008BC091F08CC092F0CBEC16F091C0A0F093
:101D180092C0A1F0000E0001A36F100EA26FA0ECFC
:101D280015F0DA0E0001A06F3E0EA16F000EA36F32
:101D3800100EA26FA0EC15F0D40E0001A06F3F0E9C
:101D4800A16F000EA36F100EA26FA0EC15F0000E8D
:101D580000018C6F030E8B6F32EC12F08BC091F088
:101D68008CC092F0CBEC16F091C0A0F092C0A1F01C
:101D7800000E0001A36F100EA26FA0EC15F0DA0E92
:101D88000001A06F3E0EA16F000EA36F100EA26F90
:101D9800A0EC15F0DA0E0001A06F3F0EA16F000E47
:101DA800A36F100EA26FA0EC15F0000E00018C6F4F
:101DB800040E8B6F32EC12F08BC091F08CC092F055
:101DC800CBEC16F091C0A0F092C0A1F0000E00017B
:101DD800A36F100EA26FA0EC15F0DA0E0001A06F31
:101DE8003E0EA16F000EA36F100EA26FA0EC15F0AF
:101DF800E00E0001A06F3F0EA16F000EA36F100E42
:101E0800A26FA0EC15F0000E00018C6F050E8B6F11
:101E180032EC12F08BC091F08CC092F0CBEC16F043
:101E280091C0A0F092C0A1F0000E0001A36F100EA7
:101E3800A26FA0EC15F0DA0E0001A06F3E0EA16FA4
:101E4800000EA36F100EA26FA0EC15F08A0E000111
:101E5800A06F3F0EA16F000EA36F100EA26FA0EC33
:101E680015F0DA0E0001A06F3E0EA16F000EA36FF1
:101E7800100EA26FA0EC15F00D0E0001A96FAF0EA9
:101E8800A86FB60EE82EFED7A82FFCD7A92FFAD731
:101E980000F012002D6E2D50D8B455EF0FF057EF0B
:101EA8000FF079EF0FF028BE5EEF0FF05CEF0FF048
:101EB80079EF0FF025C029F026C02AF027C02BF0B3
:101EC80028C02CF0291E2A1E2B1E2C1E292A000E83
:101ED8002A222B222C2229C02FF02AC030F02BC016
:101EE80031F02CC032F081EF0FF025C02FF026C062
:101EF80030F027C031F028C032F0255026102710C6
:101F08002810D8A48AEF0FF08CEF0FF096EF0FF09F
:101F1800000E256E000E266E000E276E000E286E2F
:101F280027EF10F0960E2E6EA0EF0FF02E2AD89005
:101F38003232313230322F32000E2F14296E000E19
:101F480030142A6E000E31142B6EFE0E32142C6ED5
:101F580029502A102B102C10D8A4B5EF0FF0B7EF8A
:101F68000FF09AEF0FF0C5EF0FF02E2A010E2F2673
:101F7800000E302231223222D890323231323032C1
:101F88002F32000E2F14296E000E30142A6E000E08
:101F980031142B6EFF0E32142C6E29502A102B1080
:101FA8002C10D8A4DAEF0FF0DCEF0FF0B9EF0FF038
:101FB800E4EF0FF02E06D8902F3630363136323611
:101FC80031BEE9EF0FF0EBEF0FF0F3EF0FF0020E79
:101FD8002E60F1EF0FF0F3EF0FF0DEEF0FF02EB001
:101FE800F8EF0FF0FAEF0FF0FBEF0FF0319ED890FB
:101FF8002E322EC029F02A6A2B6A2C6A29C02CF0AE
:102008002B6A2A6A296A29502F122A5030122B501B
:1020180031122C5032122D50D8B415EF10F017EFA2
:1020280010F01FEF10F028BE1EEF10F01CEF10F09C
:102038001FEF10F0328E2FC025F030C026F031C0CF
:1020480027F032C028F01200000E01012C6F000E9C
:102058002D6F000E2E6F000E2F6F000E306F000ECA
:10206800316F000E326F000E336F000E356F010EA8
:10207800346F000E0001A66F010EA76FD890010102
:102088003435D96E3535DA6ED890D936DA3600015E
:10209800A651D926A751DA22DECF13F0DECF14F0ED
:1020A800DECF15F0DECF16F0000E176E000E186E9C
:1020B800800E196E3F0E1A6E7CEC17F0D8A067EFF1
:1020C80010F069EF10F0AAEF10F02CC171F02DC1DB
:1020D80072F02EC173F02FC174F034C125F035C1F0
:1020E80026F0000E26BEFF0E276E286E010E4EEC5F
:1020F8000FF025C075F026C076F027C077F028C00D
:1021080078F072EC01F071C02CF172C02DF173C03F
:102118002EF174C02FF130C171F031C172F032C1AB
:1021280073F033C174F0000E0001756F000E766F06
:10213800800E776F3F0E786F72EC01F071C030F14E
:1021480072C031F173C032F174C033F10101344B04
:10215800352B35BFB9EF10F0355109E1060E345D66
:10216800D8A0B9EF10F0BBEF10F03DEF10F030C180
:1021780013F031C114F032C115F033C116F0000E5E
:10218800176E000E186E000E196E000E1A6E7CEC9B
:1021980017F0D8B0D2EF10F0D4EF10F0F8EF10F03D
:1021A8002CC189F02DC18AF02EC18BF02FC18CF083
:1021B80030C18DF031C18EF032C18FF033C190F053
:1021C80022EC08F089C028F18AC029F18BC02AF1D5
:1021D8008CC02BF128C1A2F029C1A3F02AC1A4F018
:1021E8002BC1A5F000EF11F0E2C0A2F0E3C0A3F00C
:1021F800E4C0A4F0E5C0A5F01200000E366E010E92
:10220800356E35C021F036C022F046EC14F021C0FE
:1022180025F022C026F0000E26BEFF0E276E286E7F
:10222800010E4EEC0FF0140E336E010E346ED89082
:102238003534D96E3634DA6ED890D936DA3633502A
:10224800D9263450DA2225C0DEFF26C0DEFF27C09B
:10225800DEFF28C0DEFF000E136E000E146E570E50
:10226800156E440E166E140E336E010E346ED89031
:102278003534D96E3634DA6ED890D936DA363350EA
:10228800D9263450DA22DECF17F0DECF18F0DECFB1
:1022980019F0DECF1AF0C4EC13F0D8B056EF11F0F5
:1022A80058EF11F072EF11F0000E336E010E346E1C
:1022B800D8903534D96E3634DA6ED890D936DA36C5
:1022C8003350D9263450DA22000EDE6E000EDE6E50
:1022D800800EDE6E3F0EDD6E8AEF11F0000E336E5B
:1022E800010E346ED8903534D96E3634DA6ED89003
:1022F800D936DA363350D9263450DA22000EDE6E5B
:10230800000EDE6E000EDE6E000EDD6E354A362AD9
:1023180036BE98EF11F0365009E1060E355CD8A0AC
:1023280098EF11F09AEF11F005EF11F01200000E7E
:10233800246E000E236E23C013F024C014F0000E88
:10234800166E010E156E000E186E000E176E8FECCD
:1023580018F01330D8B0B3EF11F0B6EF11F0828057
:10236800B7EF11F0829023C013F024C014F0000ED0
:10237800166E010E156E000E186E010E176E8FEC9C
:1023880018F01330D8B0CBEF11F0CEEF11F08282F5
:10239800CFEF11F0829223C013F024C014F0000E86
:1023A800166E010E156E000E186E020E176E8FEC6B
:1023B80018F01330D8B0E3EF11F0E6EF11F0828493
:1023C800E7EF11F0829423C013F024C014F0000E3C
:1023D800166E010E156E000E186E030E176E8FEC3A
:1023E80018F01330D8B0FBEF11F0FEEF11F0828631
:1023F800FFEF11F08296FEC018F0FFC019F0EB0E47
:102408001A6E3F0E1B6E09EC19F018501910D8B44B
:1024180010EF12F012EF12F014EF12F031EF12F089
:102428000D0E226EAF0E216EB60EE82EFED7212EAF
:10243800FCD7222EFAD700F000F0234A242A24BE23
:102448002FEF12F0245009E1100E235CD8A02FEFD3
:1024580012F031EF12F09FEF11F012008BC013F061
:102468008CC014F0000E166E020E156E000E186E5B
:10247800000E176E8FEC18F013461346C25013184F
:10248800F30B1318C26E8BC013F08CC014F0000E3F
:10249800166E010E156E000E186E020E176E8FEC7A
:1024A80018F099501318FE0B1318996E8BC013F07F
:1024B8008CC014F0000E166E010E156E000E186E0C
:1024C800020E176E8FEC18F0133A99501318EF0B91
:1024D8001318996E8BC013F08CC014F0000E166E92
:1024E800010E156E000E186E020E176E8FEC18F0A6
:1024F8001346134699501318FB0B1318996E8BC08B
:1025080013F08CC014F0000E166E010E156E000E3E
:10251800186E020E176E8FEC18F0133A1346134616
:1025280099501318BF0B1318996EC280C282C2B299
:10253800A0EF12F0A2EF12F09BEF12F0D1EC17F01F
:1025480071C08DF072C08EF073C08FF074C090F0BF
:10255800C2908DC081F08EC082F08FC083F090C091
:1025680084F040EC13F081C08BF082C08CF0120034
:10257800000E0001AD6F010EAC6F000EAB6F000EC8
:10258800AA6FAC51300FAA6FF70EA06F3F0EA16F64
:10259800000EA36F100EA26FA0EC15F0AA0E00019A
:1025A800A06F000EA16F000EA36F100EA26FA0EC1B
:1025B80015F0FC0E0001A06F3F0EA16F000EA36F77
:1025C800100EA26FA0EC15F0ACC021F0ADC022F047
:1025D80046EC14F021C025F022C026F0C2EC14F01D
:1025E80025C0A0F026C0A1F0000E0001A36F100EB8
:1025F800A26FA0EC15F0DA0E0001A06F3E0EA16FDD
:10260800000EA36F100EA26FA0EC15F08A0E000149
:10261800A06F3F0EA16F000EA36F100EA26FA0EC6B
:1026280015F0DA0E0001A06F3E0EA16F000EA36F29
:10263800100EA26FA0EC15F00001AC4BAD2BADBF96
:102648002FEF13F0AD5109E1060EAC5DD8A02FEFC6
:1026580013F031EF13F0C1EF12F0330E0001A96F40
:10266800BB0EA86FDF0EE82EFED7A82FFCD7A92F28
:10267800FAD700F000F012000001833584358A6F24
:102688008A51D8A44AEF13F04CEF13F056EF13F029
:10269800000E816F000E826F000E836F000E846F34
:1026A800C3EF13F081C085F082C086F083C087F045
:1026B80084C088F0200E66EF13F0D89088338733F3
:1026C80086338533E82E61EF13F08551896F838F48
:1026D800FF0E8117FF0E8217FF0E8317000E841757
:1026E800960E8A5F8ABF7DEF13F07BEF13F093EFAE
:1026F80013F08A51800A970FD8B085EF13F087EF4F
:1027080013F089EF13F04CEF13F0D8908433833330
:10271800823381338A3F89EF13F0ABEF13F01F0E3A
:102728008A6599EF13F09BEF13F0A3EF13F04CEFCA
:1027380013F0D89081378237833784378A078A51D4
:10274800D8A4A9EF13F0ABEF13F09DEF13F0895164
:10275800D8B4B1EF13F0B3EF13F0BBEF13F0841F4D
:10276800831F821F816D000E82238323842381C0EF
:1027780081F082C082F083C083F084C084F01200AC
:10278800000E13141B6E000E14141C6E800E15140C
:102798001D6E7F0E16141E6E1B501C101D101E1071
:1027A800D8A4D9EF13F0DBEF13F0E3EF13F0000E2A
:1027B800136E000E146E000E156E000E166E000ECF
:1027C80017141B6E000E18141C6E800E19141D6E43
:1027D8007F0E1A141E6E1B501C101D101E10D8A43C
:1027E800F8EF13F0FAEF13F002EF14F0000E176E83
:1027F800000E186E000E196E000E1A6E16AE07EF58
:1028080014F009EF14F012EF14F0136C141ED8B082
:10281800142A151ED8B0152A800E16561AAE17EFB0
:1028280014F019EF14F022EF14F0176C181ED8B03A
:10283800182A191ED8B0192A800E1A56000E131A13
:10284800000E141A000E151A800E161A000E171A0A
:10285800000E181A000E191A800E1A1A1750135C57
:1028680018501458195015581A501658D8B03FEF28
:1028780014F041EF14F044EF14F0D89045EF14F041
:10288800D880120021C013F022C014F0000E166E7A
:10289800020E156E000E186E000E176E8FEC18F0F3
:1028A80013461346C2501318F30B1318C26E21C0F7
:1028B80013F022C014F0000E166E010E156E000EF5
:1028C800186E020E176E8FEC18F099501318FE0B45
:1028D8001318996E21C013F022C014F0000E166E62
:1028E800010E156E000E186E020E176E8FEC18F0A2
:1028F800133A99501318EF0B1318996E21C013F05F
:1029080022C014F0000E166E010E156E000E186E21
:10291800020E176E8FEC18F01346134699501318D1
:10292800FB0B1318996E21C013F022C014F0000E8F
:10293800166E010E156E000E186E020E176E8FECD5
:1029480018F0133A1346134699501318BF0B13186F
:10295800996EC280C282C2B2B4EF14F0B6EF14F01E
:10296800AFEF14F009EC1AF013C023F014C024F0F0
:10297800C29023C021F024C022F0120025C013F019
:1029880026C014F0030E166EE80E156E69EC16F0EC
:1029980013C02CF014C02DF0000E166E640E156EC8
:1029A80025C013F026C014F069EC16F013C01BF014
:1029B80014C01CF0000E1E6E0A0E1D6E24EC17F0DB
:1029C8001BC02EF01CC02FF0000E166E0A0E156EDE
:1029D80025C013F026C014F069EC16F013C01BF0E4
:1029E80014C01CF0000E1E6E0A0E1D6E24EC17F0AB
:1029F8001BC030F01CC031F0000E1E6E640E1D6E40
:102A080025C01BF026C01CF024EC17F01BC034F0C6
:102A18001CC035F034C01BF035C01CF0000E1E6E13
:102A28000A0E1D6E24EC17F01BC032F01CC033F0E8
:102A380020EE27F0040EDE6AE806FDE22C50300F87
:102A4800276E2E50300F286E3050300F296E3250BE
:102A5800300F2A6E270E256E000E266E120000011A
:102A68008D518E11D8A43BEF15F03DEF15F04EEFC8
:102A780015F0000E8C6F140E8B6F650E61EC18F05C
:102A8800000E00018C6F160E8B6F640E61EC18F04F
:102A98009FEF15F08DC0EEF08EC0EFF0EE511408E8
:102AA8008B6FEF51D8A0E82A00088C6F650E61EC97
:102AB80018F0000E0001756F000E766FA00E776F8C
:102AC800410E786FCD0E376ECC0E386E8C0E396E87
:102AD8003F0E3A6EEEC025F0EFC026F0000E26BE7F
:102AE800FF0E276E286E010E4EEC0FF025C033F056
:102AF80026C034F027C035F028C036F00CEC06F0BC
:102B080033C071F034C072F035C073F036C074F061
:102B180072EC01F071C081F072C082F073C083F072
:102B280074C084F040EC13F081C08BF082C08CF04C
:102B3800640E61EC18F01200000E0001A76F000E81
:102B4800A66F000EA76F000EA66FA3BFB6EF15F015
:102B5800A35106E1A205D8B0B4EF15F0B6EF15F011
:102B6800B8EF15F005EF16F0A651A025A46FA751F0
:102B7800A121A56FA4C0F6FFA5C0F7FFF86A020E51
:102B8800F76403D00800F55005D0F6CFE9FFF7CF7A
:102B9800EAFFEF500009D8A4D4EF15F0D6EF15F0EE
:102BA800D8EF15F005EF16F00001A651A025A46F87
:102BB800A751A121A56FA4C0F6FFA5C0F7FFF86A29
:102BC800020EF76403D00800F55005D0F6CFE9FFF0
:102BD800F7CFEAFFEF503EEC1AF028EC1AF00001AC
:102BE800A64BA72BA251A65DA751800AA46FA3519B
:102BF800800AA459D8A003EF16F005EF16F0B8EF35
:102C080015F01200000E096E000E086E000E096E17
:102C1800000E086E05BE1BEF16F0055006E1040411
:102C2800D8B019EF16F01BEF16F01DEF16F068EF8D
:102C380016F008500224066E09500320076E06C0DD
:102C4800F6FF07C0F7FFF86A020EF76403D0080022
:102C5800F55005D0F6CFE9FFF7CFEAFFEF500009AE
:102C6800D8A439EF16F03BEF16F03DEF16F068EFF9
:102C780016F008500224066E09500320076E06C09D
:102C8800F6FF07C0F7FFF86A020EF76403D00800E2
:102C9800F55005D0F6CFE9FFF7CFEAFFEF5044EC47
:102CA8001AF030EC1AF0084A092A0450085C095056
:102CB800800A066E0550800A0658D8A066EF16F0FE
:102CC80068EF16F01DEF16F01200000E186E16BE13
:102CD80072EF16F070EF16F078EF16F0156C161EFE
:102CE800D8B0162A010E186E14BE7FEF16F07DEFCD
:102CF80016F085EF16F0136C141ED8B0142A010EC6
:102D0800181A000E1A6E000E196E15501610D8B447
:102D180090EF16F092EF16F0BAEF16F0010E176E5C
:102D28009AEF16F0D89015361636172A16AE9FEF7A
:102D380016F0A1EF16F096EF16F0D89019361A365D
:102D48001550135C16501458D8A0ADEF16F0AFEF1D
:102D580016F0B4EF16F01550135E1650145A198079
:102D6800D89016321532172EA1EF16F01850D8B495
:102D7800C0EF16F0C2EF16F0C6EF16F0196C1A1E67
:102D8800D8B01A2A19C013F01AC014F0120091C052
:102D980013F092C014F0000E166E640E156E69ECF6
:102DA80016F013C098F014C099F0000E166E0A0EB3
:102DB800156E91C013F092C014F069EC16F013C0B0
:102DC8001BF014C01CF0000E1E6E0A0E1D6E24ECC3
:102DD80017F01BC09AF01CC09BF0000E1E6E640E0C
:102DE8001D6E91C01BF092C01CF024EC17F01BC0A4
:102DF8009EF01CC09FF09EC01BF09FC01CF0000EF0
:102E08001E6E0A0E1D6E24EC17F01BC09CF01CC031
:102E18009DF020EE93F0040EDE6AE806FDE2000164
:102E28009851300F936F2E0E946F9A51300F956F03
:102E38009C51300F966F930E916F000E926F120097
:102E4800000E206E1CBE2DEF17F02BEF17F033EF9E
:102E580017F01B6C1C1ED8B01C2A010E206E1EBE5B
:102E68003AEF17F038EF17F03EEF17F01D6C1E1E03
:102E7800D8B01E2A1D501E10D8B445EF17F047EFE2
:102E880017F06BEF17F0010E1F6E4FEF17F0D89089
:102E98001D361E361F2A1EAE54EF17F056EF17F0D8
:102EA8004BEF17F01D501B5C1E501C58D8A05FEF4D
:102EB80017F061EF17F065EF17F01D501B5E1E50FD
:102EC8001C5AD8901E321D321F2E56EF17F0205074
:102ED800D8B471EF17F073EF17F077EF17F01B6C9A
:102EE8001C1ED8B01C2A1BC01BF01CC01CF01200F2
:102EF800000E13141B6E000E14141C6E800E151495
:102F08001D6E7F0E16141E6E1B501C101D101E10F9
:102F1800D8A491EF17F093EF17F09BEF17F0000E7E
:102F2800136E000E146E000E156E000E166E000E57
:102F380017141B6E000E18141C6E800E19141D6ECB
:102F48007F0E1A141E6E1B501C101D101E10D8A4C4
:102F5800B0EF17F0B2EF17F0BAEF17F0000E176ED8
:102F6800000E186E000E196E000E1A6E1750131808
:102F78000FE1185014180CE11950151809E11A50EE
:102F88001618D8B4CAEF17F0CCEF17F0CFEF17F038
:102F9800D890D0EF17F0D8801200C4CFF2F000011B
:102FA800F36BF251F36FF26BC350F227000EF32369
:102FB800F60E376E280E386E9C0E396E400E3A6E3D
:102FC800F2C025F0F3C026F0000E26BEFF0E276ED5
:102FD800286E010E4EEC0FF025C033F026C034F0F9
:102FE80027C035F028C036F00CEC06F033C075F079
:102FF80034C076F035C077F036C078F075C033F05D
:1030080076C034F077C035F078C036F0CD0E376E24
:10301800CC0E386ECC0E396E3D0E3A6E0CEC06F0C6
:1030280033C0EAF034C0EBF035C0ECF036C0EDF058
:10303800EAC071F0EBC072F0ECC073F0EDC074F050
:1030480012002BEF18F0134A142A154A162A13C037
:10305800F6FF14C0F7FF0800F5CF17F015C0F6FF0C
:1030680016C0F7FF0800F5501718D8A43EEF18F05F
:1030780040EF18F04EEF18F013C0F6FF14C0F7FF3A
:103088000800F5500009D8A44CEF18F04EEF18F0DE
:1030980027EF18F013C0F6FF14C0F7FF0800F5CFAC
:1030A80017F015C0F6FF16C0F7FF0800F550175CBB
:1030B800136E146AD8A0140612003B6E818C818EA0
:1030C800650E3B18D8A46BEF18F06DEF18F079EF88
:1030D80018F08BC019F08CC01AF060EC19F0000ED3
:1030E8001A6E000E196E27EC19F0640E3B18D8A45E
:1030F80080EF18F082EF18F08EEF18F08BC019F0FF
:103108008CC01AF04DEC19F0000E1A6E000E196EF4
:103118003AEC19F0120017C019F013C01AF014C0D5
:103128001BF0192A9BEF18F01B341B321A32192E88
:1031380098EF18F0FF0E1C6EFF0E1D6E15C01EF0E6
:10314800010E1F6E000E206E1E2AAEEF18F0D890EA
:103158001F3620361E2EABEF18F01C501F261D50B0
:1031680020221A501F14136E1B502014146E1200C4
:10317800700EF66E340EF76E000EF86E00EEF4F078
:1031880010EE0CF00900F5CFEEFFE550E150FAE142
:1031980001EE00F0280EEE6AE806FDE100EEB2F05E
:1031A800420EEE6AE806FDE100EE3CF0110EEE6A12
:1031B800E806FDE14D904D92000EF86E0001F0EF2B
:1031C80009F0000E0001851B000E861B000E871BF0
:1031D800800E881B81C071F082C072F083C073F0CA
:1031E80084C074F085C075F086C076F087C077F02B
:1031F80088C078F072EC01F071C081F072C082F082
:1032080073C083F074C084F0120018C013F019C0A2
:1032180014F01AC015F01BC016F025EC18F0135066
:103228001410D8A41AEF19F01CEF19F022EF19F0B6
:10323800000E196E010E186E26EF19F0000E196EA9
:10324800000E186E120019C013F01AC014F0000E08
:10325800166E060E156E73EC19F013C01BF014C031
:103268001CF01BC073FF1C50726E120019C013F0C3
:103278001AC014F0000E166E060E156E73EC19F0D7
:1032880013C01BF014C01CF01BC075FF1C50746EDB
:10329800120019C013F01AC014F0000E166E060EB4
:1032A800156E73EC19F013C01BF014C01CF01BC092
:1032B80077FF1C50766E120019C013F01AC014F074
:1032C800000E166E060E156E73EC19F013C01BF087
:1032D80014C01CF01BC079FF1C50786E12001350EC
:1032E8001502F3CF17F0F4CF18F013501602F3506D
:1032F800182614501502F350182617C013F018C0DA
:1033080014F0120007C001F008C002F0000E046EAD
:10331800060E036ED2EC19F001C009F002C00AF0E3
:1033280009C073FF0A50726E120007C001F008C08E
:1033380002F0000E046E060E036ED2EC19F001C006
:1033480009F002C00AF009C075FF0A50746E120035
:1033580007C001F008C002F0000E046E060E036EEE
:10336800D2EC19F001C009F002C00AF009C077FFD9
:103378000A50766E120007C001F008C002F0000E75
:10338800046E060E036ED2EC19F001C009F002C0FB
:103398000AF009C079FF0A50786E12000150030242
:1033A800F3CF05F0F4CF06F001500402F3500626DF
:1033B80002500302F350062605C001F006C002F0D1
:1033C8001200000E7F6E800E7E6E5F0E6F6E010E15
:1033D8006E6E100E6D6E6B68000E6A6E960E7B6ECA
:1033E800000E7A6E1200C19CC19EC29AC298F30E5A
:1033F800C216C08EC050870B3009C06EC050F80B83
:103408000509C06E000E9A6E1200C4CFF2F00001DA
:10341800F36BF251F36FF26BC350F227000EF323F4
:10342800F2C013F0F3C014F01200810EAF6EAC843A
:10343800AC98AC9CAC8A9D98AB8EAB9CAB88949CAA
:10344800948E9E9A9D8A1200ACA22DEF1AF02FEF4F
:103458001AF028EF1AF01200ACA235EF1AF037EF85
:103468001AF030EF1AF012000000A04000004040AF
:103478001400FB3F136E13C0ADFF28EC1AF01200C6
:10348800016E01C0ADFF30EC1AF01200D40ED56EFB
:1034980013C0D6FF120001C0FEF002C0FFF01200F8
:1034A800AECF13F013501200AECF01F0015012004E
:0634B800D58E1200120087
:103EA40000526F74696E6146756E63696F6E616D01
:103EB400656E746F0052454341525245474152204A
:103EC400424154455249410050574D412054657375
:103ED40074652046696D0A004C6569747572615396
:103EE400656E736F7265730050574D41205465734E
:103EF40074616E646F0A004D6F766572507261462C
:103F040072656E74650074657374654C616D70617F
:103F1400646173000A414E313A6272616E636F20CC
:103F2400000A414E333A6272616E636F20000A41A7
:103F34004E343A6272616E636F20000A414E353A24
:103F44006272616E636F200074657374654D6F7483
:103F54006F726573000A414E313A707265746F2056
:103F6400000A414E333A707265746F20000A414E64
:103F7400343A707265746F20000A414E353A70729B
:103F840065746F20000A2D2D2D2D2D2D2D2D2D2DF9
:103F9400000A414E323A6272616E636F000A414E0A
:103FA400323A707265746F0074657374654144626B
:103FB40069740054696D657230206F6E000A424165
:103FC400543A2000414E313A2000414E323A20000A
:103FD400414E333A2000414E343A2000414E353AA6
:103FE400200049444C450069646C65005049440014
:0B3FF400414400414E0000003A000074
:020000040020DA
:08000000FFFFFFFFFFFFFFFF00
:020000040030CA
:0E000000FFC20D3E3C9D85FF0FC00FE00F407C
:00000001FF
